{
  "address": "0x4327d5f6DEe02A02088d2e19604AD71c3D5451A1",
  "abi": [
    {
      "anonymous": false,
      "inputs": [
        {
          "indexed": true,
          "internalType": "address",
          "name": "provider",
          "type": "address"
        },
        {
          "indexed": false,
          "internalType": "uint256[]",
          "name": "tokenAmounts",
          "type": "uint256[]"
        },
        {
          "indexed": false,
          "internalType": "uint256[]",
          "name": "fees",
          "type": "uint256[]"
        },
        {
          "indexed": false,
          "internalType": "uint256",
          "name": "invariant",
          "type": "uint256"
        },
        {
          "indexed": false,
          "internalType": "uint256",
          "name": "lpTokenSupply",
          "type": "uint256"
        }
      ],
      "name": "AddLiquidity",
      "type": "event"
    },
    {
      "anonymous": false,
      "inputs": [
        {
          "indexed": false,
          "internalType": "uint256",
          "name": "newAdminFee",
          "type": "uint256"
        }
      ],
      "name": "NewAdminFee",
      "type": "event"
    },
    {
      "anonymous": false,
      "inputs": [
        {
          "indexed": false,
          "internalType": "uint256",
          "name": "newSwapFee",
          "type": "uint256"
        }
      ],
      "name": "NewSwapFee",
      "type": "event"
    },
    {
      "anonymous": false,
      "inputs": [
        {
          "indexed": false,
          "internalType": "uint256",
          "name": "newWithdrawFee",
          "type": "uint256"
        }
      ],
      "name": "NewWithdrawFee",
      "type": "event"
    },
    {
      "anonymous": false,
      "inputs": [
        {
          "indexed": true,
          "internalType": "address",
          "name": "previousOwner",
          "type": "address"
        },
        {
          "indexed": true,
          "internalType": "address",
          "name": "newOwner",
          "type": "address"
        }
      ],
      "name": "OwnershipTransferred",
      "type": "event"
    },
    {
      "anonymous": false,
      "inputs": [
        {
          "indexed": false,
          "internalType": "address",
          "name": "account",
          "type": "address"
        }
      ],
      "name": "Paused",
      "type": "event"
    },
    {
      "anonymous": false,
      "inputs": [
        {
          "indexed": false,
          "internalType": "uint256",
          "name": "oldA",
          "type": "uint256"
        },
        {
          "indexed": false,
          "internalType": "uint256",
          "name": "newA",
          "type": "uint256"
        },
        {
          "indexed": false,
          "internalType": "uint256",
          "name": "initialTime",
          "type": "uint256"
        },
        {
          "indexed": false,
          "internalType": "uint256",
          "name": "futureTime",
          "type": "uint256"
        }
      ],
      "name": "RampA",
      "type": "event"
    },
    {
      "anonymous": false,
      "inputs": [
        {
          "indexed": true,
          "internalType": "address",
          "name": "provider",
          "type": "address"
        },
        {
          "indexed": false,
          "internalType": "uint256[]",
          "name": "tokenAmounts",
          "type": "uint256[]"
        },
        {
          "indexed": false,
          "internalType": "uint256",
          "name": "lpTokenSupply",
          "type": "uint256"
        }
      ],
      "name": "RemoveLiquidity",
      "type": "event"
    },
    {
      "anonymous": false,
      "inputs": [
        {
          "indexed": true,
          "internalType": "address",
          "name": "provider",
          "type": "address"
        },
        {
          "indexed": false,
          "internalType": "uint256[]",
          "name": "tokenAmounts",
          "type": "uint256[]"
        },
        {
          "indexed": false,
          "internalType": "uint256[]",
          "name": "fees",
          "type": "uint256[]"
        },
        {
          "indexed": false,
          "internalType": "uint256",
          "name": "invariant",
          "type": "uint256"
        },
        {
          "indexed": false,
          "internalType": "uint256",
          "name": "lpTokenSupply",
          "type": "uint256"
        }
      ],
      "name": "RemoveLiquidityImbalance",
      "type": "event"
    },
    {
      "anonymous": false,
      "inputs": [
        {
          "indexed": true,
          "internalType": "address",
          "name": "provider",
          "type": "address"
        },
        {
          "indexed": false,
          "internalType": "uint256",
          "name": "lpTokenAmount",
          "type": "uint256"
        },
        {
          "indexed": false,
          "internalType": "uint256",
          "name": "lpTokenSupply",
          "type": "uint256"
        },
        {
          "indexed": false,
          "internalType": "uint256",
          "name": "boughtId",
          "type": "uint256"
        },
        {
          "indexed": false,
          "internalType": "uint256",
          "name": "tokensBought",
          "type": "uint256"
        }
      ],
      "name": "RemoveLiquidityOne",
      "type": "event"
    },
    {
      "anonymous": false,
      "inputs": [
        {
          "indexed": false,
          "internalType": "uint256",
          "name": "currentA",
          "type": "uint256"
        },
        {
          "indexed": false,
          "internalType": "uint256",
          "name": "time",
          "type": "uint256"
        }
      ],
      "name": "StopRampA",
      "type": "event"
    },
    {
      "anonymous": false,
      "inputs": [
        {
          "indexed": true,
          "internalType": "address",
          "name": "buyer",
          "type": "address"
        },
        {
          "indexed": false,
          "internalType": "uint256",
          "name": "tokensSold",
          "type": "uint256"
        },
        {
          "indexed": false,
          "internalType": "uint256",
          "name": "tokensBought",
          "type": "uint256"
        },
        {
          "indexed": false,
          "internalType": "uint128",
          "name": "soldId",
          "type": "uint128"
        },
        {
          "indexed": false,
          "internalType": "uint128",
          "name": "boughtId",
          "type": "uint128"
        }
      ],
      "name": "TokenSwap",
      "type": "event"
    },
    {
      "anonymous": false,
      "inputs": [
        {
          "indexed": true,
          "internalType": "address",
          "name": "buyer",
          "type": "address"
        },
        {
          "indexed": false,
          "internalType": "uint256",
          "name": "tokensSold",
          "type": "uint256"
        },
        {
          "indexed": false,
          "internalType": "uint256",
          "name": "tokensBought",
          "type": "uint256"
        },
        {
          "indexed": false,
          "internalType": "uint128",
          "name": "soldId",
          "type": "uint128"
        },
        {
          "indexed": false,
          "internalType": "uint128",
          "name": "boughtId",
          "type": "uint128"
        }
      ],
      "name": "TokenSwapUnderlying",
      "type": "event"
    },
    {
      "anonymous": false,
      "inputs": [
        {
          "indexed": false,
          "internalType": "address",
          "name": "account",
          "type": "address"
        }
      ],
      "name": "Unpaused",
      "type": "event"
    },
    {
      "inputs": [
        {
          "internalType": "uint256[]",
          "name": "amounts",
          "type": "uint256[]"
        },
        {
          "internalType": "uint256",
          "name": "minToMint",
          "type": "uint256"
        },
        {
          "internalType": "uint256",
          "name": "deadline",
          "type": "uint256"
        }
      ],
      "name": "addLiquidity",
      "outputs": [
        {
          "internalType": "uint256",
          "name": "",
          "type": "uint256"
        }
      ],
      "stateMutability": "payable",
      "type": "function"
    },
    {
      "inputs": [
        {
          "internalType": "uint256",
          "name": "amount",
          "type": "uint256"
        }
      ],
      "name": "calculateRemoveLiquidity",
      "outputs": [
        {
          "internalType": "uint256[]",
          "name": "",
          "type": "uint256[]"
        }
      ],
      "stateMutability": "view",
      "type": "function"
    },
    {
      "inputs": [
        {
          "internalType": "uint256",
          "name": "tokenAmount",
          "type": "uint256"
        },
        {
          "internalType": "uint8",
          "name": "tokenIndex",
          "type": "uint8"
        }
      ],
      "name": "calculateRemoveLiquidityOneToken",
      "outputs": [
        {
          "internalType": "uint256",
          "name": "",
          "type": "uint256"
        }
      ],
      "stateMutability": "view",
      "type": "function"
    },
    {
      "inputs": [
        {
          "internalType": "uint8",
          "name": "tokenIndexFrom",
          "type": "uint8"
        },
        {
          "internalType": "uint8",
          "name": "tokenIndexTo",
          "type": "uint8"
        },
        {
          "internalType": "uint256",
          "name": "dx",
          "type": "uint256"
        }
      ],
      "name": "calculateSwap",
      "outputs": [
        {
          "internalType": "uint256",
          "name": "",
          "type": "uint256"
        }
      ],
      "stateMutability": "view",
      "type": "function"
    },
    {
      "inputs": [
        {
          "internalType": "uint8",
          "name": "tokenIndexFrom",
          "type": "uint8"
        },
        {
          "internalType": "uint8",
          "name": "tokenIndexTo",
          "type": "uint8"
        },
        {
          "internalType": "uint256",
          "name": "dx",
          "type": "uint256"
        }
      ],
      "name": "calculateSwapUnderlying",
      "outputs": [
        {
          "internalType": "uint256",
          "name": "",
          "type": "uint256"
        }
      ],
      "stateMutability": "view",
      "type": "function"
    },
    {
      "inputs": [
        {
          "internalType": "uint256[]",
          "name": "amounts",
          "type": "uint256[]"
        },
        {
          "internalType": "bool",
          "name": "deposit",
          "type": "bool"
        }
      ],
      "name": "calculateTokenAmount",
      "outputs": [
        {
          "internalType": "uint256",
          "name": "",
          "type": "uint256"
        }
      ],
      "stateMutability": "view",
      "type": "function"
    },
    {
      "inputs": [],
      "name": "getA",
      "outputs": [
        {
          "internalType": "uint256",
          "name": "",
          "type": "uint256"
        }
      ],
      "stateMutability": "view",
      "type": "function"
    },
    {
      "inputs": [],
      "name": "getAPrecise",
      "outputs": [
        {
          "internalType": "uint256",
          "name": "",
          "type": "uint256"
        }
      ],
      "stateMutability": "view",
      "type": "function"
    },
    {
      "inputs": [
        {
          "internalType": "uint256",
          "name": "index",
          "type": "uint256"
        }
      ],
      "name": "getAdminBalance",
      "outputs": [
        {
          "internalType": "uint256",
          "name": "",
          "type": "uint256"
        }
      ],
      "stateMutability": "view",
      "type": "function"
    },
    {
      "inputs": [
        {
          "internalType": "uint8",
          "name": "index",
          "type": "uint8"
        }
      ],
      "name": "getToken",
      "outputs": [
        {
          "internalType": "contract IERC20",
          "name": "",
          "type": "address"
        }
      ],
      "stateMutability": "view",
      "type": "function"
    },
    {
      "inputs": [
        {
          "internalType": "uint8",
          "name": "index",
          "type": "uint8"
        }
      ],
      "name": "getTokenBalance",
      "outputs": [
        {
          "internalType": "uint256",
          "name": "",
          "type": "uint256"
        }
      ],
      "stateMutability": "view",
      "type": "function"
    },
    {
      "inputs": [
        {
          "internalType": "address",
          "name": "tokenAddress",
          "type": "address"
        }
      ],
      "name": "getTokenIndex",
      "outputs": [
        {
          "internalType": "uint8",
          "name": "",
          "type": "uint8"
        }
      ],
      "stateMutability": "view",
      "type": "function"
    },
    {
      "inputs": [],
      "name": "getVirtualPrice",
      "outputs": [
        {
          "internalType": "uint256",
          "name": "",
          "type": "uint256"
        }
      ],
      "stateMutability": "view",
      "type": "function"
    },
    {
      "inputs": [
        {
          "internalType": "contract IERC20[]",
          "name": "_pooledTokens",
          "type": "address[]"
        },
        {
          "internalType": "uint8[]",
          "name": "decimals",
          "type": "uint8[]"
        },
        {
          "internalType": "string",
          "name": "lpTokenName",
          "type": "string"
        },
        {
          "internalType": "string",
          "name": "lpTokenSymbol",
          "type": "string"
        },
        {
          "internalType": "uint256",
          "name": "_a",
          "type": "uint256"
        },
        {
          "internalType": "uint256",
          "name": "_fee",
          "type": "uint256"
        },
        {
          "internalType": "uint256",
          "name": "_adminFee",
          "type": "uint256"
        },
        {
          "internalType": "address",
          "name": "lpTokenTargetAddress",
          "type": "address"
        }
      ],
      "name": "initialize",
      "outputs": [],
      "stateMutability": "payable",
      "type": "function"
    },
    {
      "inputs": [
        {
          "internalType": "contract IERC20[]",
          "name": "_pooledTokens",
          "type": "address[]"
        },
        {
          "internalType": "uint8[]",
          "name": "decimals",
          "type": "uint8[]"
        },
        {
          "internalType": "string",
          "name": "lpTokenName",
          "type": "string"
        },
        {
          "internalType": "string",
          "name": "lpTokenSymbol",
          "type": "string"
        },
        {
          "internalType": "uint256",
          "name": "_a",
          "type": "uint256"
        },
        {
          "internalType": "uint256",
          "name": "_fee",
          "type": "uint256"
        },
        {
          "internalType": "uint256",
          "name": "_adminFee",
          "type": "uint256"
        },
        {
          "internalType": "address",
          "name": "lpTokenTargetAddress",
          "type": "address"
        },
        {
          "internalType": "contract ISwap",
          "name": "baseSwap",
          "type": "address"
        }
      ],
      "name": "initializeMetaSwap",
      "outputs": [],
      "stateMutability": "payable",
      "type": "function"
    },
    {
      "inputs": [],
      "name": "metaSwapStorage",
      "outputs": [
        {
          "internalType": "contract ISwap",
          "name": "baseSwap",
          "type": "address"
        },
        {
          "internalType": "uint256",
          "name": "baseVirtualPrice",
          "type": "uint256"
        },
        {
          "internalType": "uint256",
          "name": "baseCacheLastUpdated",
          "type": "uint256"
        }
      ],
      "stateMutability": "view",
      "type": "function"
    },
    {
      "inputs": [],
      "name": "owner",
      "outputs": [
        {
          "internalType": "address",
          "name": "",
          "type": "address"
        }
      ],
      "stateMutability": "view",
      "type": "function"
    },
    {
      "inputs": [],
      "name": "pause",
      "outputs": [],
      "stateMutability": "nonpayable",
      "type": "function"
    },
    {
      "inputs": [],
      "name": "paused",
      "outputs": [
        {
          "internalType": "bool",
          "name": "",
          "type": "bool"
        }
      ],
      "stateMutability": "view",
      "type": "function"
    },
    {
      "inputs": [
        {
          "internalType": "uint256",
          "name": "futureA",
          "type": "uint256"
        },
        {
          "internalType": "uint256",
          "name": "futureTime",
          "type": "uint256"
        }
      ],
      "name": "rampA",
      "outputs": [],
      "stateMutability": "payable",
      "type": "function"
    },
    {
      "inputs": [
        {
          "internalType": "uint256",
          "name": "amount",
          "type": "uint256"
        },
        {
          "internalType": "uint256[]",
          "name": "minAmounts",
          "type": "uint256[]"
        },
        {
          "internalType": "uint256",
          "name": "deadline",
          "type": "uint256"
        }
      ],
      "name": "removeLiquidity",
      "outputs": [
        {
          "internalType": "uint256[]",
          "name": "",
          "type": "uint256[]"
        }
      ],
      "stateMutability": "payable",
      "type": "function"
    },
    {
      "inputs": [
        {
          "internalType": "uint256[]",
          "name": "amounts",
          "type": "uint256[]"
        },
        {
          "internalType": "uint256",
          "name": "maxBurnAmount",
          "type": "uint256"
        },
        {
          "internalType": "uint256",
          "name": "deadline",
          "type": "uint256"
        }
      ],
      "name": "removeLiquidityImbalance",
      "outputs": [
        {
          "internalType": "uint256",
          "name": "",
          "type": "uint256"
        }
      ],
      "stateMutability": "payable",
      "type": "function"
    },
    {
      "inputs": [
        {
          "internalType": "uint256",
          "name": "tokenAmount",
          "type": "uint256"
        },
        {
          "internalType": "uint8",
          "name": "tokenIndex",
          "type": "uint8"
        },
        {
          "internalType": "uint256",
          "name": "minAmount",
          "type": "uint256"
        },
        {
          "internalType": "uint256",
          "name": "deadline",
          "type": "uint256"
        }
      ],
      "name": "removeLiquidityOneToken",
      "outputs": [
        {
          "internalType": "uint256",
          "name": "",
          "type": "uint256"
        }
      ],
      "stateMutability": "payable",
      "type": "function"
    },
    {
      "inputs": [],
      "name": "renounceOwnership",
      "outputs": [],
      "stateMutability": "nonpayable",
      "type": "function"
    },
    {
      "inputs": [
        {
          "internalType": "uint256",
          "name": "newAdminFee",
          "type": "uint256"
        }
      ],
      "name": "setAdminFee",
      "outputs": [],
      "stateMutability": "payable",
      "type": "function"
    },
    {
      "inputs": [
        {
          "internalType": "uint256",
          "name": "newSwapFee",
          "type": "uint256"
        }
      ],
      "name": "setSwapFee",
      "outputs": [],
      "stateMutability": "payable",
      "type": "function"
    },
    {
      "inputs": [],
      "name": "stopRampA",
      "outputs": [],
      "stateMutability": "payable",
      "type": "function"
    },
    {
      "inputs": [
        {
          "internalType": "uint8",
          "name": "tokenIndexFrom",
          "type": "uint8"
        },
        {
          "internalType": "uint8",
          "name": "tokenIndexTo",
          "type": "uint8"
        },
        {
          "internalType": "uint256",
          "name": "dx",
          "type": "uint256"
        },
        {
          "internalType": "uint256",
          "name": "minDy",
          "type": "uint256"
        },
        {
          "internalType": "uint256",
          "name": "deadline",
          "type": "uint256"
        }
      ],
      "name": "swap",
      "outputs": [
        {
          "internalType": "uint256",
          "name": "",
          "type": "uint256"
        }
      ],
      "stateMutability": "payable",
      "type": "function"
    },
    {
      "inputs": [],
      "name": "swapStorage",
      "outputs": [
        {
          "internalType": "uint256",
          "name": "initialA",
          "type": "uint256"
        },
        {
          "internalType": "uint256",
          "name": "futureA",
          "type": "uint256"
        },
        {
          "internalType": "uint256",
          "name": "initialATime",
          "type": "uint256"
        },
        {
          "internalType": "uint256",
          "name": "futureATime",
          "type": "uint256"
        },
        {
          "internalType": "uint256",
          "name": "swapFee",
          "type": "uint256"
        },
        {
          "internalType": "uint256",
          "name": "adminFee",
          "type": "uint256"
        },
        {
          "internalType": "contract LPToken",
          "name": "lpToken",
          "type": "address"
        }
      ],
      "stateMutability": "view",
      "type": "function"
    },
    {
      "inputs": [
        {
          "internalType": "uint8",
          "name": "tokenIndexFrom",
          "type": "uint8"
        },
        {
          "internalType": "uint8",
          "name": "tokenIndexTo",
          "type": "uint8"
        },
        {
          "internalType": "uint256",
          "name": "dx",
          "type": "uint256"
        },
        {
          "internalType": "uint256",
          "name": "minDy",
          "type": "uint256"
        },
        {
          "internalType": "uint256",
          "name": "deadline",
          "type": "uint256"
        }
      ],
      "name": "swapUnderlying",
      "outputs": [
        {
          "internalType": "uint256",
          "name": "",
          "type": "uint256"
        }
      ],
      "stateMutability": "nonpayable",
      "type": "function"
    },
    {
      "inputs": [
        {
          "internalType": "address",
          "name": "newOwner",
          "type": "address"
        }
      ],
      "name": "transferOwnership",
      "outputs": [],
      "stateMutability": "nonpayable",
      "type": "function"
    },
    {
      "inputs": [],
      "name": "unpause",
      "outputs": [],
      "stateMutability": "nonpayable",
      "type": "function"
    },
    {
      "inputs": [],
      "name": "withdrawAdminFees",
      "outputs": [],
      "stateMutability": "payable",
      "type": "function"
    }
  ],
  "transactionHash": "0xfb999a17d6fe2b93b6421f77e77c344e909b139761b10164b003d8ad496165a7",
  "args": [],
  "numDeployments": 1,
  "solcInputHash": "862da2204d5f2bd667d76155573eb50c",
  "bytecode": "0x608060405234801561001057600080fd5b50614228806100206000396000f3fe6080604052600436106101fe5760003560e01c806378e0fae81161011d578063a95b089f116100b0578063e25aa5fa1161007f578063ef0a712f11610064578063ef0a712f14610cd0578063f2fad2b614610cfa578063f2fde38b14610d24576101fe565b8063e25aa5fa14610c3c578063e6ab280614610c51576101fe565b8063a95b089f14610992578063b28cb6dc146109cf578063c4db7fa014610c1f578063d46300fd14610c27576101fe565b80638beb60b6116100ec5780638beb60b6146108f75780638da5cb5b14610914578063916955861461092957806391ceb3eb14610965576101fe565b806378e0fae8146107da57806382b86600146108235780638456cb591461086c57806384cdd9bc14610881576101fe565b80633f4ba83a116101955780635fd65f0f116101645780635fd65f0f146106e957806366c0bd241461073f578063715018a61461078857806375d8e3e41461079d576101fe565b80633f4ba83a146106125780634d49e87d14610627578063593d132c1461069d5780635c975abb146106c0576101fe565b806331cd52b0116101d157806331cd52b0146104c9578063342a87a11461059057806334e19907146105c35780633e3a1560146105e0576101fe565b80630419b45a146102035780630ba819591461020d578063118e1c77146102345780632d74d4e91461048c575b600080fd5b61020b610d57565b005b34801561021957600080fd5b50610222610e4d565b60408051918252519081900360200190f35b61020b600480360361012081101561024b57600080fd5b81019060208101813564010000000081111561026657600080fd5b82018360208201111561027857600080fd5b8035906020019184602083028401116401000000008311171561029a57600080fd5b91908080602002602001604051908101604052809392919081815260200183836020028082843760009201919091525092959493602081019350359150506401000000008111156102ea57600080fd5b8201836020820111156102fc57600080fd5b8035906020019184602083028401116401000000008311171561031e57600080fd5b919080806020026020016040519081016040528093929190818152602001838360200280828437600092019190915250929594936020810193503591505064010000000081111561036e57600080fd5b82018360208201111561038057600080fd5b803590602001918460018302840111640100000000831117156103a257600080fd5b91908080601f01602080910402602001604051908101604052809392919081815260200183838082843760009201919091525092959493602081019350359150506401000000008111156103f557600080fd5b82018360208201111561040757600080fd5b8035906020019184600183028401116401000000008311171561042957600080fd5b91908080601f016020809104026020016040519081016040528093929190818152602001838380828437600092019190915250929550508235935050506020810135906040810135906001600160a01b0360608201358116916080013516610ed2565b34801561049857600080fd5b506104a16112ab565b604080516001600160a01b039094168452602084019290925282820152519081900360600190f35b610540600480360360608110156104df57600080fd5b8135919081019060408101602082013564010000000081111561050157600080fd5b82018360208201111561051357600080fd5b8035906020019184602083028401116401000000008311171561053557600080fd5b9193509150356112c3565b60408051602080825283518183015283519192839290830191858101910280838360005b8381101561057c578181015183820152602001610564565b505050509050019250505060405180910390f35b34801561059c57600080fd5b50610222600480360360408110156105b357600080fd5b508035906020013560ff16611500565b61020b600480360360208110156105d957600080fd5b50356115bb565b610222600480360360808110156105f657600080fd5b5080359060ff60208201351690604081013590606001356116bc565b34801561061e57600080fd5b5061020b61188f565b6102226004803603606081101561063d57600080fd5b81019060208101813564010000000081111561065857600080fd5b82018360208201111561066a57600080fd5b8035906020019184602083028401116401000000008311171561068c57600080fd5b91935091508035906020013561190d565b61020b600480360360408110156106b357600080fd5b5080359060200135611ab4565b3480156106cc57600080fd5b506106d5611bbd565b604080519115158252519081900360200190f35b3480156106f557600080fd5b506106fe611bc6565b604080519788526020880196909652868601949094526060860192909252608085015260a08401526001600160a01b031660c0830152519081900360e00190f35b34801561074b57600080fd5b506107726004803603602081101561076257600080fd5b50356001600160a01b0316611be7565b6040805160ff9092168252519081900360200190f35b34801561079457600080fd5b5061020b611c74565b3480156107a957600080fd5b50610222600480360360608110156107c057600080fd5b5060ff813581169160208101359091169060400135611d4a565b3480156107e657600080fd5b50610222600480360360a08110156107fd57600080fd5b5060ff813581169160208101359091169060408101359060608101359060800135611e0e565b34801561082f57600080fd5b506108506004803603602081101561084657600080fd5b503560ff16611fe8565b604080516001600160a01b039092168252519081900360200190f35b34801561087857600080fd5b5061020b612070565b6102226004803603606081101561089757600080fd5b8101906020810181356401000000008111156108b257600080fd5b8201836020820111156108c457600080fd5b803590602001918460208302840111640100000000831117156108e657600080fd5b9193509150803590602001356120ec565b61020b6004803603602081101561090d57600080fd5b5035612293565b34801561092057600080fd5b50610850612379565b610222600480360360a081101561093f57600080fd5b5060ff813581169160208101359091169060408101359060608101359060800135612388565b34801561097157600080fd5b506102226004803603602081101561098857600080fd5b503560ff16612528565b34801561099e57600080fd5b50610222600480360360608110156109b557600080fd5b5060ff8135811691602081013590911690604001356125a7565b61020b60048036036101008110156109e657600080fd5b810190602081018135640100000000811115610a0157600080fd5b820183602082011115610a1357600080fd5b80359060200191846020830284011164010000000083111715610a3557600080fd5b9190808060200260200160405190810160405280939291908181526020018383602002808284376000920191909152509295949360208101935035915050640100000000811115610a8557600080fd5b820183602082011115610a9757600080fd5b80359060200191846020830284011164010000000083111715610ab957600080fd5b9190808060200260200160405190810160405280939291908181526020018383602002808284376000920191909152509295949360208101935035915050640100000000811115610b0957600080fd5b820183602082011115610b1b57600080fd5b80359060200191846001830284011164010000000083111715610b3d57600080fd5b91908080601f0160208091040260200160405190810160405280939291908181526020018383808284376000920191909152509295949360208101935035915050640100000000811115610b9057600080fd5b820183602082011115610ba257600080fd5b80359060200191846001830284011164010000000083111715610bc457600080fd5b91908080601f01602080910402602001604051908101604052809392919081815260200183838082843760009201919091525092955050823593505050602081013590604081013590606001356001600160a01b0316612635565b61020b61271a565b348015610c3357600080fd5b506102226127f9565b348015610c4857600080fd5b5061022261284d565b348015610c5d57600080fd5b5061022260048036036040811015610c7457600080fd5b810190602081018135640100000000811115610c8f57600080fd5b820183602082011115610ca157600080fd5b80359060200191846020830284011164010000000083111715610cc357600080fd5b91935091503515156128a8565b348015610cdc57600080fd5b5061022260048036036020811015610cf357600080fd5b5035612944565b348015610d0657600080fd5b5061054060048036036020811015610d1d57600080fd5b50356129d2565b348015610d3057600080fd5b5061020b60048036036020811015610d4757600080fd5b50356001600160a01b0316612b1c565b610d5f612c49565b6001600160a01b0316610d70612379565b6001600160a01b031614610dcb576040805162461bcd60e51b815260206004820181905260248201527f4f776e61626c653a2063616c6c6572206973206e6f7420746865206f776e6572604482015290519081900360640190fd5b73812583A9Bb8d7E25f68fBb901543A015e955131f6324c5c75160c9610def612379565b6040518363ffffffff1660e01b815260040180838152602001826001600160a01b031681526020019250505060006040518083038186803b158015610e3357600080fd5b505af4158015610e47573d6000803e3d6000fd5b50505050565b600060c97323F3a9049705345e68eeFBe9C01480056097049A63c9b64dcb90916040518263ffffffff1660e01b81526004018082815260200191505060206040518083038186803b158015610ea157600080fd5b505af4158015610eb5573d6000803e3d6000fd5b505050506040513d6020811015610ecb57600080fd5b5051905090565b600054610100900460ff1680610eeb5750610eeb612c4d565b80610ef9575060005460ff16155b610f345760405162461bcd60e51b815260040180806020018281038252602e8152602001806140fc602e913960400191505060405180910390fd5b600054610100900460ff16158015610f5f576000805460ff1961ff0019909116610100171660011790555b610f6f8a8a8a8a8a8a8a8a612c5e565b60d480547fffffffffffffffffffffffff0000000000000000000000000000000000000000166001600160a01b038416908117909155604080517fe25aa5fa000000000000000000000000000000000000000000000000000000008152905163e25aa5fa91600480820192602092909190829003018186803b158015610ff457600080fd5b505afa158015611008573d6000803e3d6000fd5b505050506040513d602081101561101e57600080fd5b505160d5554260d65560005b60208160ff16101561114557826001600160a01b03166382b86600826040518263ffffffff1660e01b8152600401808260ff16815260200191505060206040518083038186803b15801561107d57600080fd5b505afa9250505080156110a257506040513d602081101561109d57600080fd5b505160015b6110ab57611145565b60d780546001810182556000919091527f8a012a6de2943a5aa4d77acf5e695d4456760a3f1f30a5d6dc2079599187a0710180547fffffffffffffffffffffffff0000000000000000000000000000000000000000166001600160a01b03831690811790915561113c90857fffffffffffffffffffffffffffffffffffffffffffffffffffffffffffffffff613459565b5060010161102a565b60018160ff16116111875760405162461bcd60e51b815260040180806020018281038252602481526020018061416f6024913960400191505060405180910390fd5b5060008a60018c51038151811061119a57fe5b60200260200101519050826001600160a01b0316816001600160a01b0316638da5cb5b6040518163ffffffff1660e01b815260040160206040518083038186803b1580156111e757600080fd5b505afa1580156111fb573d6000803e3d6000fd5b505050506040513d602081101561121157600080fd5b50516001600160a01b0316146112585760405162461bcd60e51b815260040180806020018281038252602481526020018061412a6024913960400191505060405180910390fd5b61128c6001600160a01b038216847fffffffffffffffffffffffffffffffffffffffffffffffffffffffffffffffff613459565b50801561129f576000805461ff00191690555b50505050505050505050565b60d45460d55460d6546001600160a01b039092169183565b60606002609754141561131d576040805162461bcd60e51b815260206004820152601f60248201527f5265656e7472616e637947756172643a207265656e7472616e742063616c6c00604482015290519081900360640190fd5b60026097558142811015611378576040805162461bcd60e51b815260206004820152601060248201527f446561646c696e65206e6f74206d657400000000000000000000000000000000604482015290519081900360640190fd5b60c973812583A9Bb8d7E25f68fBb901543A015e955131f6373fd6b3e90918888886040518563ffffffff1660e01b815260040180858152602001848152602001806020018281038252848482818152602001925060200280828437600081840152601f19601f8201169050808301925050509550505050505060006040518083038186803b15801561140957600080fd5b505af415801561141d573d6000803e3d6000fd5b505050506040513d6000823e601f3d9081017fffffffffffffffffffffffffffffffffffffffffffffffffffffffffffffffe0168201604052602081101561146457600080fd5b810190808051604051939291908464010000000082111561148457600080fd5b90830190602082018581111561149957600080fd5b82518660208202830111640100000000821117156114b657600080fd5b82525081516020918201928201910280838360005b838110156114e35781810151838201526020016114cb565b505050509050016040525050509150506001609755949350505050565b604080517ff6ada8c200000000000000000000000000000000000000000000000000000000815260c9600482015260d460248201526044810184905260ff831660648201529051600091730916Dd1eF9B14B00F67b15Beac5f8e28948c8f549163f6ada8c291608480820192602092909190829003018186803b15801561158657600080fd5b505af415801561159a573d6000803e3d6000fd5b505050506040513d60208110156115b057600080fd5b505190505b92915050565b6115c3612c49565b6001600160a01b03166115d4612379565b6001600160a01b03161461162f576040805162461bcd60e51b815260206004820181905260248201527f4f776e61626c653a2063616c6c6572206973206e6f7420746865206f776e6572604482015290519081900360640190fd5b604080517f467e186c00000000000000000000000000000000000000000000000000000000815260c9600482015260248101839052905173812583A9Bb8d7E25f68fBb901543A015e955131f9163467e186c916044808301926000929190829003018186803b1580156116a157600080fd5b505af41580156116b5573d6000803e3d6000fd5b5050505050565b600060026097541415611716576040805162461bcd60e51b815260206004820152601f60248201527f5265656e7472616e637947756172643a207265656e7472616e742063616c6c00604482015290519081900360640190fd5b6002609755611723611bbd565b15611775576040805162461bcd60e51b815260206004820152601060248201527f5061757361626c653a2070617573656400000000000000000000000000000000604482015290519081900360640190fd5b81804211156117cb576040805162461bcd60e51b815260206004820152601060248201527f446561646c696e65206e6f74206d657400000000000000000000000000000000604482015290519081900360640190fd5b604080517fc1a6627300000000000000000000000000000000000000000000000000000000815260c9600482015260d460248201526044810188905260ff87166064820152608481018690529051730916Dd1eF9B14B00F67b15Beac5f8e28948c8f549163c1a662739160a4808301926020929190829003018186803b15801561185457600080fd5b505af4158015611868573d6000803e3d6000fd5b505050506040513d602081101561187e57600080fd5b505160016097559695505050505050565b611897612c49565b6001600160a01b03166118a8612379565b6001600160a01b031614611903576040805162461bcd60e51b815260206004820181905260248201527f4f776e61626c653a2063616c6c6572206973206e6f7420746865206f776e6572604482015290519081900360640190fd5b61190b6135b8565b565b600060026097541415611967576040805162461bcd60e51b815260206004820152601f60248201527f5265656e7472616e637947756172643a207265656e7472616e742063616c6c00604482015290519081900360640190fd5b6002609755611974611bbd565b156119c6576040805162461bcd60e51b815260206004820152601060248201527f5061757361626c653a2070617573656400000000000000000000000000000000604482015290519081900360640190fd5b8180421115611a1c576040805162461bcd60e51b815260206004820152601060248201527f446561646c696e65206e6f74206d657400000000000000000000000000000000604482015290519081900360640190fd5b730916Dd1eF9B14B00F67b15Beac5f8e28948c8f5463d1ab4b4a60c960d48989896040518663ffffffff1660e01b815260040180868152602001858152602001806020018381526020018281038252858582818152602001925060200280828437600081840152601f19601f820116905080830192505050965050505050505060206040518083038186803b15801561185457600080fd5b611abc612c49565b6001600160a01b0316611acd612379565b6001600160a01b031614611b28576040805162461bcd60e51b815260206004820181905260248201527f4f776e61626c653a2063616c6c6572206973206e6f7420746865206f776e6572604482015290519081900360640190fd5b604080517f58fdd79b00000000000000000000000000000000000000000000000000000000815260c96004820152602481018490526044810183905290517323F3a9049705345e68eeFBe9C01480056097049A916358fdd79b916064808301926000929190829003018186803b158015611ba157600080fd5b505af4158015611bb5573d6000803e3d6000fd5b505050505050565b60655460ff1690565b60c95460ca5460cb5460cc5460cd5460ce5460cf546001600160a01b031687565b6001600160a01b038116600081815260d36020526040812054909160ff90911690611c1182611fe8565b6001600160a01b031614611c6c576040805162461bcd60e51b815260206004820152601460248201527f546f6b656e20646f6573206e6f74206578697374000000000000000000000000604482015290519081900360640190fd5b90505b919050565b611c7c612c49565b6001600160a01b0316611c8d612379565b6001600160a01b031614611ce8576040805162461bcd60e51b815260206004820181905260248201527f4f776e61626c653a2063616c6c6572206973206e6f7420746865206f776e6572604482015290519081900360640190fd5b6033546040516000916001600160a01b0316907f8be0079c531659141344cd1fd0a4f28419497f9722a3daafe3b4186f6b6457e0908390a3603380547fffffffffffffffffffffffff0000000000000000000000000000000000000000169055565b604080517fd45757ba00000000000000000000000000000000000000000000000000000000815260c9600482015260d4602482015260ff808616604483015284166064820152608481018390529051600091730916Dd1eF9B14B00F67b15Beac5f8e28948c8f549163d45757ba9160a480820192602092909190829003018186803b158015611dd857600080fd5b505af4158015611dec573d6000803e3d6000fd5b505050506040513d6020811015611e0257600080fd5b505190505b9392505050565b600060026097541415611e68576040805162461bcd60e51b815260206004820152601f60248201527f5265656e7472616e637947756172643a207265656e7472616e742063616c6c00604482015290519081900360640190fd5b6002609755611e75611bbd565b15611ec7576040805162461bcd60e51b815260206004820152601060248201527f5061757361626c653a2070617573656400000000000000000000000000000000604482015290519081900360640190fd5b8180421115611f1d576040805162461bcd60e51b815260206004820152601060248201527f446561646c696e65206e6f74206d657400000000000000000000000000000000604482015290519081900360640190fd5b604080517e80247a00000000000000000000000000000000000000000000000000000000815260c9600482015260d4602482015260ff808a166044830152881660648201526084810187905260a481018690529051730916Dd1eF9B14B00F67b15Beac5f8e28948c8f54916280247a9160c4808301926020929190829003018186803b158015611fac57600080fd5b505af4158015611fc0573d6000803e3d6000fd5b505050506040513d6020811015611fd657600080fd5b50516001609755979650505050505050565b60d05460009060ff831610612044576040805162461bcd60e51b815260206004820152600c60248201527f4f7574206f662072616e67650000000000000000000000000000000000000000604482015290519081900360640190fd5b60d0805460ff841690811061205557fe5b6000918252602090912001546001600160a01b031692915050565b612078612c49565b6001600160a01b0316612089612379565b6001600160a01b0316146120e4576040805162461bcd60e51b815260206004820181905260248201527f4f776e61626c653a2063616c6c6572206973206e6f7420746865206f776e6572604482015290519081900360640190fd5b61190b613661565b600060026097541415612146576040805162461bcd60e51b815260206004820152601f60248201527f5265656e7472616e637947756172643a207265656e7472616e742063616c6c00604482015290519081900360640190fd5b6002609755612153611bbd565b156121a5576040805162461bcd60e51b815260206004820152601060248201527f5061757361626c653a2070617573656400000000000000000000000000000000604482015290519081900360640190fd5b81804211156121fb576040805162461bcd60e51b815260206004820152601060248201527f446561646c696e65206e6f74206d657400000000000000000000000000000000604482015290519081900360640190fd5b730916Dd1eF9B14B00F67b15Beac5f8e28948c8f54637e97165660c960d48989896040518663ffffffff1660e01b815260040180868152602001858152602001806020018381526020018281038252858582818152602001925060200280828437600081840152601f19601f820116905080830192505050965050505050505060206040518083038186803b15801561185457600080fd5b61229b612c49565b6001600160a01b03166122ac612379565b6001600160a01b031614612307576040805162461bcd60e51b815260206004820181905260248201527f4f776e61626c653a2063616c6c6572206973206e6f7420746865206f776e6572604482015290519081900360640190fd5b604080517f7046727600000000000000000000000000000000000000000000000000000000815260c9600482015260248101839052905173812583A9Bb8d7E25f68fBb901543A015e955131f916370467276916044808301926000929190829003018186803b1580156116a157600080fd5b6033546001600160a01b031690565b6000600260975414156123e2576040805162461bcd60e51b815260206004820152601f60248201527f5265656e7472616e637947756172643a207265656e7472616e742063616c6c00604482015290519081900360640190fd5b60026097556123ef611bbd565b15612441576040805162461bcd60e51b815260206004820152601060248201527f5061757361626c653a2070617573656400000000000000000000000000000000604482015290519081900360640190fd5b8180421115612497576040805162461bcd60e51b815260206004820152601060248201527f446561646c696e65206e6f74206d657400000000000000000000000000000000604482015290519081900360640190fd5b604080517f98414eed00000000000000000000000000000000000000000000000000000000815260c9600482015260d4602482015260ff808a166044830152881660648201526084810187905260a481018690529051730916Dd1eF9B14B00F67b15Beac5f8e28948c8f54916398414eed9160c4808301926020929190829003018186803b158015611fac57600080fd5b60d05460009060ff831610612584576040805162461bcd60e51b815260206004820152601260248201527f496e646578206f7574206f662072616e67650000000000000000000000000000604482015290519081900360640190fd5b60d2805460ff841690811061259557fe5b90600052602060002001549050919050565b604080517f5afb90ff00000000000000000000000000000000000000000000000000000000815260c9600482015260d4602482015260ff808616604483015284166064820152608481018390529051600091730916Dd1eF9B14B00F67b15Beac5f8e28948c8f5491635afb90ff9160a480820192602092909190829003018186803b158015611dd857600080fd5b600054610100900460ff168061264e575061264e612c4d565b8061265c575060005460ff16155b6126975760405162461bcd60e51b815260040180806020018281038252602e8152602001806140fc602e913960400191505060405180910390fd5b600054610100900460ff161580156126c2576000805460ff1961ff0019909116610100171660011790555b6040805162461bcd60e51b815260206004820181905260248201527f75736520696e697469616c697a654d65746153776170282920696e7374656164604482015290519081900360640190fd5b505050505050505050565b612722612c49565b6001600160a01b0316612733612379565b6001600160a01b03161461278e576040805162461bcd60e51b815260206004820181905260248201527f4f776e61626c653a2063616c6c6572206973206e6f7420746865206f776e6572604482015290519081900360640190fd5b604080517ff14e211e00000000000000000000000000000000000000000000000000000000815260c9600482015290517323F3a9049705345e68eeFBe9C01480056097049A9163f14e211e916024808301926000929190829003018186803b158015610e3357600080fd5b600060c97323F3a9049705345e68eeFBe9C01480056097049A63b0a14cfc90916040518263ffffffff1660e01b81526004018082815260200191505060206040518083038186803b158015610ea157600080fd5b6000730916Dd1eF9B14B00F67b15Beac5f8e28948c8f5463e9d4d07760c960d46040518363ffffffff1660e01b8152600401808381526020018281526020019250505060206040518083038186803b158015610ea157600080fd5b6000730916Dd1eF9B14B00F67b15Beac5f8e28948c8f546378b0bcbe60c960d48787876040518663ffffffff1660e01b8152600401808681526020018581526020018060200183151581526020018281038252858582818152602001925060200280828437600081840152601f19601f820116905080830192505050965050505050505060206040518083038186803b158015611dd857600080fd5b600060c973812583A9Bb8d7E25f68fBb901543A015e955131f637d0481609091846040518363ffffffff1660e01b8152600401808381526020018281526020019250505060206040518083038186803b1580156129a057600080fd5b505af41580156129b4573d6000803e3d6000fd5b505050506040513d60208110156129ca57600080fd5b505192915050565b606060c973812583A9Bb8d7E25f68fBb901543A015e955131f6370703e4a9091846040518363ffffffff1660e01b8152600401808381526020018281526020019250505060006040518083038186803b158015612a2e57600080fd5b505af4158015612a42573d6000803e3d6000fd5b505050506040513d6000823e601f3d9081017fffffffffffffffffffffffffffffffffffffffffffffffffffffffffffffffe01682016040526020811015612a8957600080fd5b8101908080516040519392919084640100000000821115612aa957600080fd5b908301906020820185811115612abe57600080fd5b8251866020820283011164010000000082111715612adb57600080fd5b82525081516020918201928201910280838360005b83811015612b08578181015183820152602001612af0565b505050509050016040525050509050919050565b612b24612c49565b6001600160a01b0316612b35612379565b6001600160a01b031614612b90576040805162461bcd60e51b815260206004820181905260248201527f4f776e61626c653a2063616c6c6572206973206e6f7420746865206f776e6572604482015290519081900360640190fd5b6001600160a01b038116612bd55760405162461bcd60e51b81526004018080602001828103825260268152602001806140b06026913960400191505060405180910390fd5b6033546040516001600160a01b038084169216907f8be0079c531659141344cd1fd0a4f28419497f9722a3daafe3b4186f6b6457e090600090a3603380547fffffffffffffffffffffffff0000000000000000000000000000000000000000166001600160a01b0392909216919091179055565b3390565b6000612c58306136f1565b15905090565b600054610100900460ff1680612c775750612c77612c4d565b80612c85575060005460ff16155b612cc05760405162461bcd60e51b815260040180806020018281038252602e8152602001806140fc602e913960400191505060405180910390fd5b600054610100900460ff16158015612ceb576000805460ff1961ff0019909116610100171660011790555b612cf36136f7565b612cfb6137b1565b6001895111612d51576040805162461bcd60e51b815260206004820152601960248201527f5f706f6f6c6564546f6b656e732e6c656e677468203c3d203100000000000000604482015290519081900360640190fd5b602089511115612da8576040805162461bcd60e51b815260206004820152601960248201527f5f706f6f6c6564546f6b656e732e6c656e677468203e20333200000000000000604482015290519081900360640190fd5b8751895114612dfe576040805162461bcd60e51b815260206004820152601f60248201527f5f706f6f6c6564546f6b656e7320646563696d616c73206d69736d6174636800604482015290519081900360640190fd5b6060885167ffffffffffffffff81118015612e1857600080fd5b50604051908082528060200260200182016040528015612e42578160200160208202803683370190505b50905060005b8a518160ff1610156130c05760ff811615612f315760d360008c8360ff1681518110612e7057fe5b6020908102919091018101516001600160a01b031682528101919091526040016000205460ff16158015612ee057508a8160ff1681518110612eae57fe5b60200260200101516001600160a01b03168b600081518110612ecc57fe5b60200260200101516001600160a01b031614155b612f31576040805162461bcd60e51b815260206004820152601060248201527f4475706c696361746520746f6b656e7300000000000000000000000000000000604482015290519081900360640190fd5b60006001600160a01b03168b8260ff1681518110612f4b57fe5b60200260200101516001600160a01b03161415612faf576040805162461bcd60e51b815260206004820152601d60248201527f546865203020616464726573732069736e277420616e204552432d3230000000604482015290519081900360640190fd5b601260ff168a8260ff1681518110612fc357fe5b602002602001015160ff161115613021576040805162461bcd60e51b815260206004820152601a60248201527f546f6b656e20646563696d616c732065786365656473206d6178000000000000604482015290519081900360640190fd5b6130518a8260ff168151811061303357fe5b602002602001015160ff16601260ff1661384690919063ffffffff16565b600a0a828260ff168151811061306357fe5b6020026020010181815250508060d360008d8460ff168151811061308357fe5b6020908102919091018101516001600160a01b03168252810191909152604001600020805460ff191660ff92909216919091179055600101612e48565b50620f42408610613118576040805162461bcd60e51b815260206004820152601260248201527f5f612065786365656473206d6178696d756d0000000000000000000000000000604482015290519081900360640190fd5b6305f5e1008510613170576040805162461bcd60e51b815260206004820152601460248201527f5f6665652065786365656473206d6178696d756d000000000000000000000000604482015290519081900360640190fd5b6402540be40084106131c9576040805162461bcd60e51b815260206004820152601960248201527f5f61646d696e4665652065786365656473206d6178696d756d00000000000000604482015290519081900360640190fd5b60006131d4846138a3565b9050806001600160a01b0316634cd88b768a8a6040518363ffffffff1660e01b8152600401808060200180602001838103835285818151815260200191508051906020019080838360005b8381101561323757818101518382015260200161321f565b50505050905090810190601f1680156132645780820380516001836020036101000a031916815260200191505b50838103825284518152845160209182019186019080838360005b8381101561329757818101518382015260200161327f565b50505050905090810190601f1680156132c45780820380516001836020036101000a031916815260200191505b50945050505050602060405180830381600087803b1580156132e557600080fd5b505af11580156132f9573d6000803e3d6000fd5b505050506040513d602081101561330f57600080fd5b5051613362576040805162461bcd60e51b815260206004820152601c60248201527f636f756c64206e6f7420696e6974206c70546f6b656e20636c6f6e6500000000604482015290519081900360640190fd5b60cf80547fffffffffffffffffffffffff0000000000000000000000000000000000000000166001600160a01b0383161790558a516133a89060d09060208e0190613f9f565b5081516133bc9060d190602085019061401c565b508a5167ffffffffffffffff811180156133d557600080fd5b506040519080825280602002602001820160405280156133ff578160200160208202803683370190505b5080516134149160d29160209091019061401c565b5061342087606461395e565b60c95561342e87606461395e565b60ca55505060cd84905560ce839055801561270f576000805461ff0019169055505050505050505050565b8015806134f85750604080517fdd62ed3e0000000000000000000000000000000000000000000000000000000081523060048201526001600160a01b03848116602483015291519185169163dd62ed3e91604480820192602092909190829003018186803b1580156134ca57600080fd5b505afa1580156134de573d6000803e3d6000fd5b505050506040513d60208110156134f457600080fd5b5051155b6135335760405162461bcd60e51b81526004018080602001828103825260368152602001806141bd6036913960400191505060405180910390fd5b604080516001600160a01b038416602482015260448082018490528251808303909101815260649091019091526020810180517bffffffffffffffffffffffffffffffffffffffffffffffffffffffff167f095ea7b3000000000000000000000000000000000000000000000000000000001790526135b39084906139b7565b505050565b6135c0611bbd565b613611576040805162461bcd60e51b815260206004820152601460248201527f5061757361626c653a206e6f7420706175736564000000000000000000000000604482015290519081900360640190fd5b6065805460ff191690557f5db9ee0a495bf2e6ff9c91a7834c1ba4fdd244a5e8aa4e537bd38aeae4b073aa613644612c49565b604080516001600160a01b039092168252519081900360200190a1565b613669611bbd565b156136bb576040805162461bcd60e51b815260206004820152601060248201527f5061757361626c653a2070617573656400000000000000000000000000000000604482015290519081900360640190fd5b6065805460ff191660011790557f62e78cea01bee320cd4e420270b5ea74000d11b0c9f74754ebdbfc544b05a258613644612c49565b3b151590565b600054610100900460ff16806137105750613710612c4d565b8061371e575060005460ff16155b6137595760405162461bcd60e51b815260040180806020018281038252602e8152602001806140fc602e913960400191505060405180910390fd5b600054610100900460ff16158015613784576000805460ff1961ff0019909116610100171660011790555b61378c613a68565b613794613b08565b61379c613c19565b80156137ae576000805461ff00191690555b50565b600054610100900460ff16806137ca57506137ca612c4d565b806137d8575060005460ff16155b6138135760405162461bcd60e51b815260040180806020018281038252602e8152602001806140fc602e913960400191505060405180910390fd5b600054610100900460ff1615801561383e576000805460ff1961ff0019909116610100171660011790555b61379c613cc4565b60008282111561389d576040805162461bcd60e51b815260206004820152601e60248201527f536166654d6174683a207375627472616374696f6e206f766572666c6f770000604482015290519081900360640190fd5b50900390565b60006040517f3d602d80600a3d3981f3363d3d373d3d3d363d7300000000000000000000000081528260601b60148201527f5af43d82803e903d91602b57fd5bf3000000000000000000000000000000000060288201526037816000f09150506001600160a01b038116611c6f576040805162461bcd60e51b815260206004820152601660248201527f455243313136373a20637265617465206661696c656400000000000000000000604482015290519081900360640190fd5b60008261396d575060006115b5565b8282028284828161397a57fe5b0414611e075760405162461bcd60e51b815260040180806020018281038252602181526020018061414e6021913960400191505060405180910390fd5b6060613a0c826040518060400160405280602081526020017f5361666545524332303a206c6f772d6c6576656c2063616c6c206661696c6564815250856001600160a01b0316613d6a9092919063ffffffff16565b8051909150156135b357808060200190516020811015613a2b57600080fd5b50516135b35760405162461bcd60e51b815260040180806020018281038252602a815260200180614193602a913960400191505060405180910390fd5b600054610100900460ff1680613a815750613a81612c4d565b80613a8f575060005460ff16155b613aca5760405162461bcd60e51b815260040180806020018281038252602e8152602001806140fc602e913960400191505060405180910390fd5b600054610100900460ff1615801561379c576000805460ff1961ff00199091166101001716600117905580156137ae576000805461ff001916905550565b600054610100900460ff1680613b215750613b21612c4d565b80613b2f575060005460ff16155b613b6a5760405162461bcd60e51b815260040180806020018281038252602e8152602001806140fc602e913960400191505060405180910390fd5b600054610100900460ff16158015613b95576000805460ff1961ff0019909116610100171660011790555b6000613b9f612c49565b603380547fffffffffffffffffffffffff0000000000000000000000000000000000000000166001600160a01b038316908117909155604051919250906000907f8be0079c531659141344cd1fd0a4f28419497f9722a3daafe3b4186f6b6457e0908290a35080156137ae576000805461ff001916905550565b600054610100900460ff1680613c325750613c32612c4d565b80613c40575060005460ff16155b613c7b5760405162461bcd60e51b815260040180806020018281038252602e8152602001806140fc602e913960400191505060405180910390fd5b600054610100900460ff16158015613ca6576000805460ff1961ff0019909116610100171660011790555b6065805460ff1916905580156137ae576000805461ff001916905550565b600054610100900460ff1680613cdd5750613cdd612c4d565b80613ceb575060005460ff16155b613d265760405162461bcd60e51b815260040180806020018281038252602e8152602001806140fc602e913960400191505060405180910390fd5b600054610100900460ff16158015613d51576000805460ff1961ff0019909116610100171660011790555b600160975580156137ae576000805461ff001916905550565b6060613d798484600085613d81565b949350505050565b606082471015613dc25760405162461bcd60e51b81526004018080602001828103825260268152602001806140d66026913960400191505060405180910390fd5b613dcb856136f1565b613e1c576040805162461bcd60e51b815260206004820152601d60248201527f416464726573733a2063616c6c20746f206e6f6e2d636f6e7472616374000000604482015290519081900360640190fd5b60006060866001600160a01b031685876040518082805190602001908083835b60208310613e7957805182527fffffffffffffffffffffffffffffffffffffffffffffffffffffffffffffffe09092019160209182019101613e3c565b6001836020036101000a03801982511681845116808217855250505050505090500191505060006040518083038185875af1925050503d8060008114613edb576040519150601f19603f3d011682016040523d82523d6000602084013e613ee0565b606091505b5091509150613ef0828286613efb565b979650505050505050565b60608315613f0a575081611e07565b825115613f1a5782518084602001fd5b8160405162461bcd60e51b81526004018080602001828103825283818151815260200191508051906020019080838360005b83811015613f64578181015183820152602001613f4c565b50505050905090810190601f168015613f915780820380516001836020036101000a031916815260200191505b509250505060405180910390fd5b82805482825590600052602060002090810192821561400c579160200282015b8281111561400c57825182547fffffffffffffffffffffffff0000000000000000000000000000000000000000166001600160a01b03909116178255602090920191600190910190613fbf565b50614018929150614063565b5090565b828054828255906000526020600020908101928215614057579160200282015b8281111561405757825182559160200191906001019061403c565b5061401892915061409a565b5b808211156140185780547fffffffffffffffffffffffff0000000000000000000000000000000000000000168155600101614064565b5b80821115614018576000815560010161409b56fe4f776e61626c653a206e6577206f776e657220697320746865207a65726f2061646472657373416464726573733a20696e73756666696369656e742062616c616e636520666f722063616c6c496e697469616c697a61626c653a20636f6e747261637420697320616c726561647920696e697469616c697a6564626173654c50546f6b656e206973206e6f74206f776e6564206279206261736553776170536166654d6174683a206d756c7469706c69636174696f6e206f766572666c6f776261736553776170206d75737420706f6f6c206174206c65617374203220746f6b656e735361666545524332303a204552433230206f7065726174696f6e20646964206e6f7420737563636565645361666545524332303a20617070726f76652066726f6d206e6f6e2d7a65726f20746f206e6f6e2d7a65726f20616c6c6f77616e6365a264697066735822122052a02a8cd30210aa4f41470c3988b4b48d5ddc1f6853a03c369bb29de3cc283764736f6c634300060c0033",
  "deployedBytecode": "0x6080604052600436106101fe5760003560e01c806378e0fae81161011d578063a95b089f116100b0578063e25aa5fa1161007f578063ef0a712f11610064578063ef0a712f14610cd0578063f2fad2b614610cfa578063f2fde38b14610d24576101fe565b8063e25aa5fa14610c3c578063e6ab280614610c51576101fe565b8063a95b089f14610992578063b28cb6dc146109cf578063c4db7fa014610c1f578063d46300fd14610c27576101fe565b80638beb60b6116100ec5780638beb60b6146108f75780638da5cb5b14610914578063916955861461092957806391ceb3eb14610965576101fe565b806378e0fae8146107da57806382b86600146108235780638456cb591461086c57806384cdd9bc14610881576101fe565b80633f4ba83a116101955780635fd65f0f116101645780635fd65f0f146106e957806366c0bd241461073f578063715018a61461078857806375d8e3e41461079d576101fe565b80633f4ba83a146106125780634d49e87d14610627578063593d132c1461069d5780635c975abb146106c0576101fe565b806331cd52b0116101d157806331cd52b0146104c9578063342a87a11461059057806334e19907146105c35780633e3a1560146105e0576101fe565b80630419b45a146102035780630ba819591461020d578063118e1c77146102345780632d74d4e91461048c575b600080fd5b61020b610d57565b005b34801561021957600080fd5b50610222610e4d565b60408051918252519081900360200190f35b61020b600480360361012081101561024b57600080fd5b81019060208101813564010000000081111561026657600080fd5b82018360208201111561027857600080fd5b8035906020019184602083028401116401000000008311171561029a57600080fd5b91908080602002602001604051908101604052809392919081815260200183836020028082843760009201919091525092959493602081019350359150506401000000008111156102ea57600080fd5b8201836020820111156102fc57600080fd5b8035906020019184602083028401116401000000008311171561031e57600080fd5b919080806020026020016040519081016040528093929190818152602001838360200280828437600092019190915250929594936020810193503591505064010000000081111561036e57600080fd5b82018360208201111561038057600080fd5b803590602001918460018302840111640100000000831117156103a257600080fd5b91908080601f01602080910402602001604051908101604052809392919081815260200183838082843760009201919091525092959493602081019350359150506401000000008111156103f557600080fd5b82018360208201111561040757600080fd5b8035906020019184600183028401116401000000008311171561042957600080fd5b91908080601f016020809104026020016040519081016040528093929190818152602001838380828437600092019190915250929550508235935050506020810135906040810135906001600160a01b0360608201358116916080013516610ed2565b34801561049857600080fd5b506104a16112ab565b604080516001600160a01b039094168452602084019290925282820152519081900360600190f35b610540600480360360608110156104df57600080fd5b8135919081019060408101602082013564010000000081111561050157600080fd5b82018360208201111561051357600080fd5b8035906020019184602083028401116401000000008311171561053557600080fd5b9193509150356112c3565b60408051602080825283518183015283519192839290830191858101910280838360005b8381101561057c578181015183820152602001610564565b505050509050019250505060405180910390f35b34801561059c57600080fd5b50610222600480360360408110156105b357600080fd5b508035906020013560ff16611500565b61020b600480360360208110156105d957600080fd5b50356115bb565b610222600480360360808110156105f657600080fd5b5080359060ff60208201351690604081013590606001356116bc565b34801561061e57600080fd5b5061020b61188f565b6102226004803603606081101561063d57600080fd5b81019060208101813564010000000081111561065857600080fd5b82018360208201111561066a57600080fd5b8035906020019184602083028401116401000000008311171561068c57600080fd5b91935091508035906020013561190d565b61020b600480360360408110156106b357600080fd5b5080359060200135611ab4565b3480156106cc57600080fd5b506106d5611bbd565b604080519115158252519081900360200190f35b3480156106f557600080fd5b506106fe611bc6565b604080519788526020880196909652868601949094526060860192909252608085015260a08401526001600160a01b031660c0830152519081900360e00190f35b34801561074b57600080fd5b506107726004803603602081101561076257600080fd5b50356001600160a01b0316611be7565b6040805160ff9092168252519081900360200190f35b34801561079457600080fd5b5061020b611c74565b3480156107a957600080fd5b50610222600480360360608110156107c057600080fd5b5060ff813581169160208101359091169060400135611d4a565b3480156107e657600080fd5b50610222600480360360a08110156107fd57600080fd5b5060ff813581169160208101359091169060408101359060608101359060800135611e0e565b34801561082f57600080fd5b506108506004803603602081101561084657600080fd5b503560ff16611fe8565b604080516001600160a01b039092168252519081900360200190f35b34801561087857600080fd5b5061020b612070565b6102226004803603606081101561089757600080fd5b8101906020810181356401000000008111156108b257600080fd5b8201836020820111156108c457600080fd5b803590602001918460208302840111640100000000831117156108e657600080fd5b9193509150803590602001356120ec565b61020b6004803603602081101561090d57600080fd5b5035612293565b34801561092057600080fd5b50610850612379565b610222600480360360a081101561093f57600080fd5b5060ff813581169160208101359091169060408101359060608101359060800135612388565b34801561097157600080fd5b506102226004803603602081101561098857600080fd5b503560ff16612528565b34801561099e57600080fd5b50610222600480360360608110156109b557600080fd5b5060ff8135811691602081013590911690604001356125a7565b61020b60048036036101008110156109e657600080fd5b810190602081018135640100000000811115610a0157600080fd5b820183602082011115610a1357600080fd5b80359060200191846020830284011164010000000083111715610a3557600080fd5b9190808060200260200160405190810160405280939291908181526020018383602002808284376000920191909152509295949360208101935035915050640100000000811115610a8557600080fd5b820183602082011115610a9757600080fd5b80359060200191846020830284011164010000000083111715610ab957600080fd5b9190808060200260200160405190810160405280939291908181526020018383602002808284376000920191909152509295949360208101935035915050640100000000811115610b0957600080fd5b820183602082011115610b1b57600080fd5b80359060200191846001830284011164010000000083111715610b3d57600080fd5b91908080601f0160208091040260200160405190810160405280939291908181526020018383808284376000920191909152509295949360208101935035915050640100000000811115610b9057600080fd5b820183602082011115610ba257600080fd5b80359060200191846001830284011164010000000083111715610bc457600080fd5b91908080601f01602080910402602001604051908101604052809392919081815260200183838082843760009201919091525092955050823593505050602081013590604081013590606001356001600160a01b0316612635565b61020b61271a565b348015610c3357600080fd5b506102226127f9565b348015610c4857600080fd5b5061022261284d565b348015610c5d57600080fd5b5061022260048036036040811015610c7457600080fd5b810190602081018135640100000000811115610c8f57600080fd5b820183602082011115610ca157600080fd5b80359060200191846020830284011164010000000083111715610cc357600080fd5b91935091503515156128a8565b348015610cdc57600080fd5b5061022260048036036020811015610cf357600080fd5b5035612944565b348015610d0657600080fd5b5061054060048036036020811015610d1d57600080fd5b50356129d2565b348015610d3057600080fd5b5061020b60048036036020811015610d4757600080fd5b50356001600160a01b0316612b1c565b610d5f612c49565b6001600160a01b0316610d70612379565b6001600160a01b031614610dcb576040805162461bcd60e51b815260206004820181905260248201527f4f776e61626c653a2063616c6c6572206973206e6f7420746865206f776e6572604482015290519081900360640190fd5b73__$a4e4384d4f8ec13c7a898ae597a4175ef6$__6324c5c75160c9610def612379565b6040518363ffffffff1660e01b815260040180838152602001826001600160a01b031681526020019250505060006040518083038186803b158015610e3357600080fd5b505af4158015610e47573d6000803e3d6000fd5b50505050565b600060c973__$a50a14a4f4d416df093fe8223c9bbe01e7$__63c9b64dcb90916040518263ffffffff1660e01b81526004018082815260200191505060206040518083038186803b158015610ea157600080fd5b505af4158015610eb5573d6000803e3d6000fd5b505050506040513d6020811015610ecb57600080fd5b5051905090565b600054610100900460ff1680610eeb5750610eeb612c4d565b80610ef9575060005460ff16155b610f345760405162461bcd60e51b815260040180806020018281038252602e8152602001806140fc602e913960400191505060405180910390fd5b600054610100900460ff16158015610f5f576000805460ff1961ff0019909116610100171660011790555b610f6f8a8a8a8a8a8a8a8a612c5e565b60d480547fffffffffffffffffffffffff0000000000000000000000000000000000000000166001600160a01b038416908117909155604080517fe25aa5fa000000000000000000000000000000000000000000000000000000008152905163e25aa5fa91600480820192602092909190829003018186803b158015610ff457600080fd5b505afa158015611008573d6000803e3d6000fd5b505050506040513d602081101561101e57600080fd5b505160d5554260d65560005b60208160ff16101561114557826001600160a01b03166382b86600826040518263ffffffff1660e01b8152600401808260ff16815260200191505060206040518083038186803b15801561107d57600080fd5b505afa9250505080156110a257506040513d602081101561109d57600080fd5b505160015b6110ab57611145565b60d780546001810182556000919091527f8a012a6de2943a5aa4d77acf5e695d4456760a3f1f30a5d6dc2079599187a0710180547fffffffffffffffffffffffff0000000000000000000000000000000000000000166001600160a01b03831690811790915561113c90857fffffffffffffffffffffffffffffffffffffffffffffffffffffffffffffffff613459565b5060010161102a565b60018160ff16116111875760405162461bcd60e51b815260040180806020018281038252602481526020018061416f6024913960400191505060405180910390fd5b5060008a60018c51038151811061119a57fe5b60200260200101519050826001600160a01b0316816001600160a01b0316638da5cb5b6040518163ffffffff1660e01b815260040160206040518083038186803b1580156111e757600080fd5b505afa1580156111fb573d6000803e3d6000fd5b505050506040513d602081101561121157600080fd5b50516001600160a01b0316146112585760405162461bcd60e51b815260040180806020018281038252602481526020018061412a6024913960400191505060405180910390fd5b61128c6001600160a01b038216847fffffffffffffffffffffffffffffffffffffffffffffffffffffffffffffffff613459565b50801561129f576000805461ff00191690555b50505050505050505050565b60d45460d55460d6546001600160a01b039092169183565b60606002609754141561131d576040805162461bcd60e51b815260206004820152601f60248201527f5265656e7472616e637947756172643a207265656e7472616e742063616c6c00604482015290519081900360640190fd5b60026097558142811015611378576040805162461bcd60e51b815260206004820152601060248201527f446561646c696e65206e6f74206d657400000000000000000000000000000000604482015290519081900360640190fd5b60c973__$a4e4384d4f8ec13c7a898ae597a4175ef6$__6373fd6b3e90918888886040518563ffffffff1660e01b815260040180858152602001848152602001806020018281038252848482818152602001925060200280828437600081840152601f19601f8201169050808301925050509550505050505060006040518083038186803b15801561140957600080fd5b505af415801561141d573d6000803e3d6000fd5b505050506040513d6000823e601f3d9081017fffffffffffffffffffffffffffffffffffffffffffffffffffffffffffffffe0168201604052602081101561146457600080fd5b810190808051604051939291908464010000000082111561148457600080fd5b90830190602082018581111561149957600080fd5b82518660208202830111640100000000821117156114b657600080fd5b82525081516020918201928201910280838360005b838110156114e35781810151838201526020016114cb565b505050509050016040525050509150506001609755949350505050565b604080517ff6ada8c200000000000000000000000000000000000000000000000000000000815260c9600482015260d460248201526044810184905260ff83166064820152905160009173__$aab211470864825841e17a6cd6f7ce977f$__9163f6ada8c291608480820192602092909190829003018186803b15801561158657600080fd5b505af415801561159a573d6000803e3d6000fd5b505050506040513d60208110156115b057600080fd5b505190505b92915050565b6115c3612c49565b6001600160a01b03166115d4612379565b6001600160a01b03161461162f576040805162461bcd60e51b815260206004820181905260248201527f4f776e61626c653a2063616c6c6572206973206e6f7420746865206f776e6572604482015290519081900360640190fd5b604080517f467e186c00000000000000000000000000000000000000000000000000000000815260c9600482015260248101839052905173__$a4e4384d4f8ec13c7a898ae597a4175ef6$__9163467e186c916044808301926000929190829003018186803b1580156116a157600080fd5b505af41580156116b5573d6000803e3d6000fd5b5050505050565b600060026097541415611716576040805162461bcd60e51b815260206004820152601f60248201527f5265656e7472616e637947756172643a207265656e7472616e742063616c6c00604482015290519081900360640190fd5b6002609755611723611bbd565b15611775576040805162461bcd60e51b815260206004820152601060248201527f5061757361626c653a2070617573656400000000000000000000000000000000604482015290519081900360640190fd5b81804211156117cb576040805162461bcd60e51b815260206004820152601060248201527f446561646c696e65206e6f74206d657400000000000000000000000000000000604482015290519081900360640190fd5b604080517fc1a6627300000000000000000000000000000000000000000000000000000000815260c9600482015260d460248201526044810188905260ff8716606482015260848101869052905173__$aab211470864825841e17a6cd6f7ce977f$__9163c1a662739160a4808301926020929190829003018186803b15801561185457600080fd5b505af4158015611868573d6000803e3d6000fd5b505050506040513d602081101561187e57600080fd5b505160016097559695505050505050565b611897612c49565b6001600160a01b03166118a8612379565b6001600160a01b031614611903576040805162461bcd60e51b815260206004820181905260248201527f4f776e61626c653a2063616c6c6572206973206e6f7420746865206f776e6572604482015290519081900360640190fd5b61190b6135b8565b565b600060026097541415611967576040805162461bcd60e51b815260206004820152601f60248201527f5265656e7472616e637947756172643a207265656e7472616e742063616c6c00604482015290519081900360640190fd5b6002609755611974611bbd565b156119c6576040805162461bcd60e51b815260206004820152601060248201527f5061757361626c653a2070617573656400000000000000000000000000000000604482015290519081900360640190fd5b8180421115611a1c576040805162461bcd60e51b815260206004820152601060248201527f446561646c696e65206e6f74206d657400000000000000000000000000000000604482015290519081900360640190fd5b73__$aab211470864825841e17a6cd6f7ce977f$__63d1ab4b4a60c960d48989896040518663ffffffff1660e01b815260040180868152602001858152602001806020018381526020018281038252858582818152602001925060200280828437600081840152601f19601f820116905080830192505050965050505050505060206040518083038186803b15801561185457600080fd5b611abc612c49565b6001600160a01b0316611acd612379565b6001600160a01b031614611b28576040805162461bcd60e51b815260206004820181905260248201527f4f776e61626c653a2063616c6c6572206973206e6f7420746865206f776e6572604482015290519081900360640190fd5b604080517f58fdd79b00000000000000000000000000000000000000000000000000000000815260c960048201526024810184905260448101839052905173__$a50a14a4f4d416df093fe8223c9bbe01e7$__916358fdd79b916064808301926000929190829003018186803b158015611ba157600080fd5b505af4158015611bb5573d6000803e3d6000fd5b505050505050565b60655460ff1690565b60c95460ca5460cb5460cc5460cd5460ce5460cf546001600160a01b031687565b6001600160a01b038116600081815260d36020526040812054909160ff90911690611c1182611fe8565b6001600160a01b031614611c6c576040805162461bcd60e51b815260206004820152601460248201527f546f6b656e20646f6573206e6f74206578697374000000000000000000000000604482015290519081900360640190fd5b90505b919050565b611c7c612c49565b6001600160a01b0316611c8d612379565b6001600160a01b031614611ce8576040805162461bcd60e51b815260206004820181905260248201527f4f776e61626c653a2063616c6c6572206973206e6f7420746865206f776e6572604482015290519081900360640190fd5b6033546040516000916001600160a01b0316907f8be0079c531659141344cd1fd0a4f28419497f9722a3daafe3b4186f6b6457e0908390a3603380547fffffffffffffffffffffffff0000000000000000000000000000000000000000169055565b604080517fd45757ba00000000000000000000000000000000000000000000000000000000815260c9600482015260d4602482015260ff80861660448301528416606482015260848101839052905160009173__$aab211470864825841e17a6cd6f7ce977f$__9163d45757ba9160a480820192602092909190829003018186803b158015611dd857600080fd5b505af4158015611dec573d6000803e3d6000fd5b505050506040513d6020811015611e0257600080fd5b505190505b9392505050565b600060026097541415611e68576040805162461bcd60e51b815260206004820152601f60248201527f5265656e7472616e637947756172643a207265656e7472616e742063616c6c00604482015290519081900360640190fd5b6002609755611e75611bbd565b15611ec7576040805162461bcd60e51b815260206004820152601060248201527f5061757361626c653a2070617573656400000000000000000000000000000000604482015290519081900360640190fd5b8180421115611f1d576040805162461bcd60e51b815260206004820152601060248201527f446561646c696e65206e6f74206d657400000000000000000000000000000000604482015290519081900360640190fd5b604080517e80247a00000000000000000000000000000000000000000000000000000000815260c9600482015260d4602482015260ff808a166044830152881660648201526084810187905260a48101869052905173__$aab211470864825841e17a6cd6f7ce977f$__916280247a9160c4808301926020929190829003018186803b158015611fac57600080fd5b505af4158015611fc0573d6000803e3d6000fd5b505050506040513d6020811015611fd657600080fd5b50516001609755979650505050505050565b60d05460009060ff831610612044576040805162461bcd60e51b815260206004820152600c60248201527f4f7574206f662072616e67650000000000000000000000000000000000000000604482015290519081900360640190fd5b60d0805460ff841690811061205557fe5b6000918252602090912001546001600160a01b031692915050565b612078612c49565b6001600160a01b0316612089612379565b6001600160a01b0316146120e4576040805162461bcd60e51b815260206004820181905260248201527f4f776e61626c653a2063616c6c6572206973206e6f7420746865206f776e6572604482015290519081900360640190fd5b61190b613661565b600060026097541415612146576040805162461bcd60e51b815260206004820152601f60248201527f5265656e7472616e637947756172643a207265656e7472616e742063616c6c00604482015290519081900360640190fd5b6002609755612153611bbd565b156121a5576040805162461bcd60e51b815260206004820152601060248201527f5061757361626c653a2070617573656400000000000000000000000000000000604482015290519081900360640190fd5b81804211156121fb576040805162461bcd60e51b815260206004820152601060248201527f446561646c696e65206e6f74206d657400000000000000000000000000000000604482015290519081900360640190fd5b73__$aab211470864825841e17a6cd6f7ce977f$__637e97165660c960d48989896040518663ffffffff1660e01b815260040180868152602001858152602001806020018381526020018281038252858582818152602001925060200280828437600081840152601f19601f820116905080830192505050965050505050505060206040518083038186803b15801561185457600080fd5b61229b612c49565b6001600160a01b03166122ac612379565b6001600160a01b031614612307576040805162461bcd60e51b815260206004820181905260248201527f4f776e61626c653a2063616c6c6572206973206e6f7420746865206f776e6572604482015290519081900360640190fd5b604080517f7046727600000000000000000000000000000000000000000000000000000000815260c9600482015260248101839052905173__$a4e4384d4f8ec13c7a898ae597a4175ef6$__916370467276916044808301926000929190829003018186803b1580156116a157600080fd5b6033546001600160a01b031690565b6000600260975414156123e2576040805162461bcd60e51b815260206004820152601f60248201527f5265656e7472616e637947756172643a207265656e7472616e742063616c6c00604482015290519081900360640190fd5b60026097556123ef611bbd565b15612441576040805162461bcd60e51b815260206004820152601060248201527f5061757361626c653a2070617573656400000000000000000000000000000000604482015290519081900360640190fd5b8180421115612497576040805162461bcd60e51b815260206004820152601060248201527f446561646c696e65206e6f74206d657400000000000000000000000000000000604482015290519081900360640190fd5b604080517f98414eed00000000000000000000000000000000000000000000000000000000815260c9600482015260d4602482015260ff808a166044830152881660648201526084810187905260a48101869052905173__$aab211470864825841e17a6cd6f7ce977f$__916398414eed9160c4808301926020929190829003018186803b158015611fac57600080fd5b60d05460009060ff831610612584576040805162461bcd60e51b815260206004820152601260248201527f496e646578206f7574206f662072616e67650000000000000000000000000000604482015290519081900360640190fd5b60d2805460ff841690811061259557fe5b90600052602060002001549050919050565b604080517f5afb90ff00000000000000000000000000000000000000000000000000000000815260c9600482015260d4602482015260ff80861660448301528416606482015260848101839052905160009173__$aab211470864825841e17a6cd6f7ce977f$__91635afb90ff9160a480820192602092909190829003018186803b158015611dd857600080fd5b600054610100900460ff168061264e575061264e612c4d565b8061265c575060005460ff16155b6126975760405162461bcd60e51b815260040180806020018281038252602e8152602001806140fc602e913960400191505060405180910390fd5b600054610100900460ff161580156126c2576000805460ff1961ff0019909116610100171660011790555b6040805162461bcd60e51b815260206004820181905260248201527f75736520696e697469616c697a654d65746153776170282920696e7374656164604482015290519081900360640190fd5b505050505050505050565b612722612c49565b6001600160a01b0316612733612379565b6001600160a01b03161461278e576040805162461bcd60e51b815260206004820181905260248201527f4f776e61626c653a2063616c6c6572206973206e6f7420746865206f776e6572604482015290519081900360640190fd5b604080517ff14e211e00000000000000000000000000000000000000000000000000000000815260c96004820152905173__$a50a14a4f4d416df093fe8223c9bbe01e7$__9163f14e211e916024808301926000929190829003018186803b158015610e3357600080fd5b600060c973__$a50a14a4f4d416df093fe8223c9bbe01e7$__63b0a14cfc90916040518263ffffffff1660e01b81526004018082815260200191505060206040518083038186803b158015610ea157600080fd5b600073__$aab211470864825841e17a6cd6f7ce977f$__63e9d4d07760c960d46040518363ffffffff1660e01b8152600401808381526020018281526020019250505060206040518083038186803b158015610ea157600080fd5b600073__$aab211470864825841e17a6cd6f7ce977f$__6378b0bcbe60c960d48787876040518663ffffffff1660e01b8152600401808681526020018581526020018060200183151581526020018281038252858582818152602001925060200280828437600081840152601f19601f820116905080830192505050965050505050505060206040518083038186803b158015611dd857600080fd5b600060c973__$a4e4384d4f8ec13c7a898ae597a4175ef6$__637d0481609091846040518363ffffffff1660e01b8152600401808381526020018281526020019250505060206040518083038186803b1580156129a057600080fd5b505af41580156129b4573d6000803e3d6000fd5b505050506040513d60208110156129ca57600080fd5b505192915050565b606060c973__$a4e4384d4f8ec13c7a898ae597a4175ef6$__6370703e4a9091846040518363ffffffff1660e01b8152600401808381526020018281526020019250505060006040518083038186803b158015612a2e57600080fd5b505af4158015612a42573d6000803e3d6000fd5b505050506040513d6000823e601f3d9081017fffffffffffffffffffffffffffffffffffffffffffffffffffffffffffffffe01682016040526020811015612a8957600080fd5b8101908080516040519392919084640100000000821115612aa957600080fd5b908301906020820185811115612abe57600080fd5b8251866020820283011164010000000082111715612adb57600080fd5b82525081516020918201928201910280838360005b83811015612b08578181015183820152602001612af0565b505050509050016040525050509050919050565b612b24612c49565b6001600160a01b0316612b35612379565b6001600160a01b031614612b90576040805162461bcd60e51b815260206004820181905260248201527f4f776e61626c653a2063616c6c6572206973206e6f7420746865206f776e6572604482015290519081900360640190fd5b6001600160a01b038116612bd55760405162461bcd60e51b81526004018080602001828103825260268152602001806140b06026913960400191505060405180910390fd5b6033546040516001600160a01b038084169216907f8be0079c531659141344cd1fd0a4f28419497f9722a3daafe3b4186f6b6457e090600090a3603380547fffffffffffffffffffffffff0000000000000000000000000000000000000000166001600160a01b0392909216919091179055565b3390565b6000612c58306136f1565b15905090565b600054610100900460ff1680612c775750612c77612c4d565b80612c85575060005460ff16155b612cc05760405162461bcd60e51b815260040180806020018281038252602e8152602001806140fc602e913960400191505060405180910390fd5b600054610100900460ff16158015612ceb576000805460ff1961ff0019909116610100171660011790555b612cf36136f7565b612cfb6137b1565b6001895111612d51576040805162461bcd60e51b815260206004820152601960248201527f5f706f6f6c6564546f6b656e732e6c656e677468203c3d203100000000000000604482015290519081900360640190fd5b602089511115612da8576040805162461bcd60e51b815260206004820152601960248201527f5f706f6f6c6564546f6b656e732e6c656e677468203e20333200000000000000604482015290519081900360640190fd5b8751895114612dfe576040805162461bcd60e51b815260206004820152601f60248201527f5f706f6f6c6564546f6b656e7320646563696d616c73206d69736d6174636800604482015290519081900360640190fd5b6060885167ffffffffffffffff81118015612e1857600080fd5b50604051908082528060200260200182016040528015612e42578160200160208202803683370190505b50905060005b8a518160ff1610156130c05760ff811615612f315760d360008c8360ff1681518110612e7057fe5b6020908102919091018101516001600160a01b031682528101919091526040016000205460ff16158015612ee057508a8160ff1681518110612eae57fe5b60200260200101516001600160a01b03168b600081518110612ecc57fe5b60200260200101516001600160a01b031614155b612f31576040805162461bcd60e51b815260206004820152601060248201527f4475706c696361746520746f6b656e7300000000000000000000000000000000604482015290519081900360640190fd5b60006001600160a01b03168b8260ff1681518110612f4b57fe5b60200260200101516001600160a01b03161415612faf576040805162461bcd60e51b815260206004820152601d60248201527f546865203020616464726573732069736e277420616e204552432d3230000000604482015290519081900360640190fd5b601260ff168a8260ff1681518110612fc357fe5b602002602001015160ff161115613021576040805162461bcd60e51b815260206004820152601a60248201527f546f6b656e20646563696d616c732065786365656473206d6178000000000000604482015290519081900360640190fd5b6130518a8260ff168151811061303357fe5b602002602001015160ff16601260ff1661384690919063ffffffff16565b600a0a828260ff168151811061306357fe5b6020026020010181815250508060d360008d8460ff168151811061308357fe5b6020908102919091018101516001600160a01b03168252810191909152604001600020805460ff191660ff92909216919091179055600101612e48565b50620f42408610613118576040805162461bcd60e51b815260206004820152601260248201527f5f612065786365656473206d6178696d756d0000000000000000000000000000604482015290519081900360640190fd5b6305f5e1008510613170576040805162461bcd60e51b815260206004820152601460248201527f5f6665652065786365656473206d6178696d756d000000000000000000000000604482015290519081900360640190fd5b6402540be40084106131c9576040805162461bcd60e51b815260206004820152601960248201527f5f61646d696e4665652065786365656473206d6178696d756d00000000000000604482015290519081900360640190fd5b60006131d4846138a3565b9050806001600160a01b0316634cd88b768a8a6040518363ffffffff1660e01b8152600401808060200180602001838103835285818151815260200191508051906020019080838360005b8381101561323757818101518382015260200161321f565b50505050905090810190601f1680156132645780820380516001836020036101000a031916815260200191505b50838103825284518152845160209182019186019080838360005b8381101561329757818101518382015260200161327f565b50505050905090810190601f1680156132c45780820380516001836020036101000a031916815260200191505b50945050505050602060405180830381600087803b1580156132e557600080fd5b505af11580156132f9573d6000803e3d6000fd5b505050506040513d602081101561330f57600080fd5b5051613362576040805162461bcd60e51b815260206004820152601c60248201527f636f756c64206e6f7420696e6974206c70546f6b656e20636c6f6e6500000000604482015290519081900360640190fd5b60cf80547fffffffffffffffffffffffff0000000000000000000000000000000000000000166001600160a01b0383161790558a516133a89060d09060208e0190613f9f565b5081516133bc9060d190602085019061401c565b508a5167ffffffffffffffff811180156133d557600080fd5b506040519080825280602002602001820160405280156133ff578160200160208202803683370190505b5080516134149160d29160209091019061401c565b5061342087606461395e565b60c95561342e87606461395e565b60ca55505060cd84905560ce839055801561270f576000805461ff0019169055505050505050505050565b8015806134f85750604080517fdd62ed3e0000000000000000000000000000000000000000000000000000000081523060048201526001600160a01b03848116602483015291519185169163dd62ed3e91604480820192602092909190829003018186803b1580156134ca57600080fd5b505afa1580156134de573d6000803e3d6000fd5b505050506040513d60208110156134f457600080fd5b5051155b6135335760405162461bcd60e51b81526004018080602001828103825260368152602001806141bd6036913960400191505060405180910390fd5b604080516001600160a01b038416602482015260448082018490528251808303909101815260649091019091526020810180517bffffffffffffffffffffffffffffffffffffffffffffffffffffffff167f095ea7b3000000000000000000000000000000000000000000000000000000001790526135b39084906139b7565b505050565b6135c0611bbd565b613611576040805162461bcd60e51b815260206004820152601460248201527f5061757361626c653a206e6f7420706175736564000000000000000000000000604482015290519081900360640190fd5b6065805460ff191690557f5db9ee0a495bf2e6ff9c91a7834c1ba4fdd244a5e8aa4e537bd38aeae4b073aa613644612c49565b604080516001600160a01b039092168252519081900360200190a1565b613669611bbd565b156136bb576040805162461bcd60e51b815260206004820152601060248201527f5061757361626c653a2070617573656400000000000000000000000000000000604482015290519081900360640190fd5b6065805460ff191660011790557f62e78cea01bee320cd4e420270b5ea74000d11b0c9f74754ebdbfc544b05a258613644612c49565b3b151590565b600054610100900460ff16806137105750613710612c4d565b8061371e575060005460ff16155b6137595760405162461bcd60e51b815260040180806020018281038252602e8152602001806140fc602e913960400191505060405180910390fd5b600054610100900460ff16158015613784576000805460ff1961ff0019909116610100171660011790555b61378c613a68565b613794613b08565b61379c613c19565b80156137ae576000805461ff00191690555b50565b600054610100900460ff16806137ca57506137ca612c4d565b806137d8575060005460ff16155b6138135760405162461bcd60e51b815260040180806020018281038252602e8152602001806140fc602e913960400191505060405180910390fd5b600054610100900460ff1615801561383e576000805460ff1961ff0019909116610100171660011790555b61379c613cc4565b60008282111561389d576040805162461bcd60e51b815260206004820152601e60248201527f536166654d6174683a207375627472616374696f6e206f766572666c6f770000604482015290519081900360640190fd5b50900390565b60006040517f3d602d80600a3d3981f3363d3d373d3d3d363d7300000000000000000000000081528260601b60148201527f5af43d82803e903d91602b57fd5bf3000000000000000000000000000000000060288201526037816000f09150506001600160a01b038116611c6f576040805162461bcd60e51b815260206004820152601660248201527f455243313136373a20637265617465206661696c656400000000000000000000604482015290519081900360640190fd5b60008261396d575060006115b5565b8282028284828161397a57fe5b0414611e075760405162461bcd60e51b815260040180806020018281038252602181526020018061414e6021913960400191505060405180910390fd5b6060613a0c826040518060400160405280602081526020017f5361666545524332303a206c6f772d6c6576656c2063616c6c206661696c6564815250856001600160a01b0316613d6a9092919063ffffffff16565b8051909150156135b357808060200190516020811015613a2b57600080fd5b50516135b35760405162461bcd60e51b815260040180806020018281038252602a815260200180614193602a913960400191505060405180910390fd5b600054610100900460ff1680613a815750613a81612c4d565b80613a8f575060005460ff16155b613aca5760405162461bcd60e51b815260040180806020018281038252602e8152602001806140fc602e913960400191505060405180910390fd5b600054610100900460ff1615801561379c576000805460ff1961ff00199091166101001716600117905580156137ae576000805461ff001916905550565b600054610100900460ff1680613b215750613b21612c4d565b80613b2f575060005460ff16155b613b6a5760405162461bcd60e51b815260040180806020018281038252602e8152602001806140fc602e913960400191505060405180910390fd5b600054610100900460ff16158015613b95576000805460ff1961ff0019909116610100171660011790555b6000613b9f612c49565b603380547fffffffffffffffffffffffff0000000000000000000000000000000000000000166001600160a01b038316908117909155604051919250906000907f8be0079c531659141344cd1fd0a4f28419497f9722a3daafe3b4186f6b6457e0908290a35080156137ae576000805461ff001916905550565b600054610100900460ff1680613c325750613c32612c4d565b80613c40575060005460ff16155b613c7b5760405162461bcd60e51b815260040180806020018281038252602e8152602001806140fc602e913960400191505060405180910390fd5b600054610100900460ff16158015613ca6576000805460ff1961ff0019909116610100171660011790555b6065805460ff1916905580156137ae576000805461ff001916905550565b600054610100900460ff1680613cdd5750613cdd612c4d565b80613ceb575060005460ff16155b613d265760405162461bcd60e51b815260040180806020018281038252602e8152602001806140fc602e913960400191505060405180910390fd5b600054610100900460ff16158015613d51576000805460ff1961ff0019909116610100171660011790555b600160975580156137ae576000805461ff001916905550565b6060613d798484600085613d81565b949350505050565b606082471015613dc25760405162461bcd60e51b81526004018080602001828103825260268152602001806140d66026913960400191505060405180910390fd5b613dcb856136f1565b613e1c576040805162461bcd60e51b815260206004820152601d60248201527f416464726573733a2063616c6c20746f206e6f6e2d636f6e7472616374000000604482015290519081900360640190fd5b60006060866001600160a01b031685876040518082805190602001908083835b60208310613e7957805182527fffffffffffffffffffffffffffffffffffffffffffffffffffffffffffffffe09092019160209182019101613e3c565b6001836020036101000a03801982511681845116808217855250505050505090500191505060006040518083038185875af1925050503d8060008114613edb576040519150601f19603f3d011682016040523d82523d6000602084013e613ee0565b606091505b5091509150613ef0828286613efb565b979650505050505050565b60608315613f0a575081611e07565b825115613f1a5782518084602001fd5b8160405162461bcd60e51b81526004018080602001828103825283818151815260200191508051906020019080838360005b83811015613f64578181015183820152602001613f4c565b50505050905090810190601f168015613f915780820380516001836020036101000a031916815260200191505b509250505060405180910390fd5b82805482825590600052602060002090810192821561400c579160200282015b8281111561400c57825182547fffffffffffffffffffffffff0000000000000000000000000000000000000000166001600160a01b03909116178255602090920191600190910190613fbf565b50614018929150614063565b5090565b828054828255906000526020600020908101928215614057579160200282015b8281111561405757825182559160200191906001019061403c565b5061401892915061409a565b5b808211156140185780547fffffffffffffffffffffffff0000000000000000000000000000000000000000168155600101614064565b5b80821115614018576000815560010161409b56fe4f776e61626c653a206e6577206f776e657220697320746865207a65726f2061646472657373416464726573733a20696e73756666696369656e742062616c616e636520666f722063616c6c496e697469616c697a61626c653a20636f6e747261637420697320616c726561647920696e697469616c697a6564626173654c50546f6b656e206973206e6f74206f776e6564206279206261736553776170536166654d6174683a206d756c7469706c69636174696f6e206f766572666c6f776261736553776170206d75737420706f6f6c206174206c65617374203220746f6b656e735361666545524332303a204552433230206f7065726174696f6e20646964206e6f7420737563636565645361666545524332303a20617070726f76652066726f6d206e6f6e2d7a65726f20746f206e6f6e2d7a65726f20616c6c6f77616e6365a264697066735822122052a02a8cd30210aa4f41470c3988b4b48d5ddc1f6853a03c369bb29de3cc283764736f6c634300060c0033",
  "libraries": {
    "SwapUtils": "0x812583A9Bb8d7E25f68fBb901543A015e955131f",
    "AmplificationUtils": "0x23F3a9049705345e68eeFBe9C01480056097049A",
    "MetaSwapUtils": "0x0916Dd1eF9B14B00F67b15Beac5f8e28948c8f54"
  },
  "devdoc": {
    "details": "Most of the logic is stored as a library `MetaSwapUtils` for the sake of reducing contract's deployment size.",
    "kind": "dev",
    "methods": {
      "addLiquidity(uint256[],uint256,uint256)": {
        "params": {
          "amounts": "the amounts of each token to add, in their native precision",
          "deadline": "latest timestamp to accept this transaction",
          "minToMint": "the minimum LP tokens adding this amount of liquidity should mint, otherwise revert. Handy for front-running mitigation"
        },
        "returns": {
          "_0": "amount of LP token user minted and received"
        }
      },
      "calculateRemoveLiquidity(uint256)": {
        "params": {
          "amount": "the amount of LP tokens that would be burned on withdrawal"
        },
        "returns": {
          "_0": "array of token balances that the user will receive"
        }
      },
      "calculateRemoveLiquidityOneToken(uint256,uint8)": {
        "params": {
          "tokenAmount": "the amount of LP token to burn",
          "tokenIndex": "index of which token will be withdrawn"
        },
        "returns": {
          "_0": "availableTokenAmount calculated amount of underlying token available to withdraw"
        }
      },
      "calculateSwap(uint8,uint8,uint256)": {
        "params": {
          "dx": "the amount of tokens the user wants to sell. If the token charges a fee on transfers, use the amount that gets transferred after the fee.",
          "tokenIndexFrom": "the token the user wants to sell",
          "tokenIndexTo": "the token the user wants to buy"
        },
        "returns": {
          "_0": "amount of tokens the user will receive"
        }
      },
      "calculateSwapUnderlying(uint8,uint8,uint256)": {
        "params": {
          "dx": "the amount of tokens the user wants to sell. If the token charges a fee on transfers, use the amount that gets transferred after the fee.",
          "tokenIndexFrom": "the token the user wants to sell",
          "tokenIndexTo": "the token the user wants to buy"
        },
        "returns": {
          "_0": "amount of tokens the user will receive"
        }
      },
      "calculateTokenAmount(uint256[],bool)": {
        "details": "This shouldn't be used outside frontends for user estimates.",
        "params": {
          "amounts": "an array of token amounts to deposit or withdrawal, corresponding to pooledTokens. The amount should be in each pooled token's native precision. If a token charges a fee on transfers, use the amount that gets transferred after the fee.",
          "deposit": "whether this is a deposit or a withdrawal"
        },
        "returns": {
          "_0": "token amount the user will receive"
        }
      },
      "getA()": {
        "details": "See the StableSwap paper for details",
        "returns": {
          "_0": "A parameter"
        }
      },
      "getAPrecise()": {
        "details": "See the StableSwap paper for details",
        "returns": {
          "_0": "A parameter in its raw precision form"
        }
      },
      "getAdminBalance(uint256)": {
        "params": {
          "index": "Index of the pooled token"
        },
        "returns": {
          "_0": "admin's token balance in the token's precision"
        }
      },
      "getToken(uint8)": {
        "params": {
          "index": "the index of the token"
        },
        "returns": {
          "_0": "address of the token at given index"
        }
      },
      "getTokenBalance(uint8)": {
        "params": {
          "index": "the index of the token"
        },
        "returns": {
          "_0": "current balance of the pooled token at given index with token's native precision"
        }
      },
      "getTokenIndex(address)": {
        "params": {
          "tokenAddress": "address of the token"
        },
        "returns": {
          "_0": "the index of the given token address"
        }
      },
      "getVirtualPrice()": {
        "returns": {
          "_0": "the virtual price, scaled to the POOL_PRECISION_DECIMALS"
        }
      },
      "initialize(address[],uint8[],string,string,uint256,uint256,uint256,address)": {
        "params": {
          "_a": "the amplification coefficient * n * (n - 1). See the StableSwap paper for details",
          "_adminFee": "default adminFee to be initialized with",
          "_fee": "default swap fee to be initialized with",
          "_pooledTokens": "an array of ERC20s this pool will accept",
          "decimals": "the decimals to use for each pooled token, eg 8 for WBTC. Cannot be larger than POOL_PRECISION_DECIMALS",
          "lpTokenName": "the long-form name of the token to be deployed",
          "lpTokenSymbol": "the short symbol for the token to be deployed"
        }
      },
      "initializeMetaSwap(address[],uint8[],string,string,uint256,uint256,uint256,address,address)": {
        "params": {
          "_a": "the amplification coefficient * n * (n - 1). See the StableSwap paper for details",
          "_adminFee": "default adminFee to be initialized with",
          "_fee": "default swap fee to be initialized with",
          "_pooledTokens": "an array of ERC20s this pool will accept. The last element must be an existing Swap pool's LP token's address.",
          "decimals": "the decimals to use for each pooled token, eg 8 for WBTC. Cannot be larger than POOL_PRECISION_DECIMALS",
          "lpTokenName": "the long-form name of the token to be deployed",
          "lpTokenSymbol": "the short symbol for the token to be deployed"
        }
      },
      "owner()": {
        "details": "Returns the address of the current owner."
      },
      "paused()": {
        "details": "Returns true if the contract is paused, and false otherwise."
      },
      "rampA(uint256,uint256)": {
        "params": {
          "futureA": "the new A to ramp towards",
          "futureTime": "timestamp when the new A should be reached"
        }
      },
      "removeLiquidity(uint256,uint256[],uint256)": {
        "details": "Liquidity can always be removed, even when the pool is paused.",
        "params": {
          "amount": "the amount of LP tokens to burn",
          "deadline": "latest timestamp to accept this transaction",
          "minAmounts": "the minimum amounts of each token in the pool        acceptable for this burn. Useful as a front-running mitigation"
        },
        "returns": {
          "_0": "amounts of tokens user received"
        }
      },
      "removeLiquidityImbalance(uint256[],uint256,uint256)": {
        "params": {
          "amounts": "how much of each token to withdraw",
          "deadline": "latest timestamp to accept this transaction",
          "maxBurnAmount": "the max LP token provider is willing to pay to remove liquidity. Useful as a front-running mitigation."
        },
        "returns": {
          "_0": "amount of LP tokens burned"
        }
      },
      "removeLiquidityOneToken(uint256,uint8,uint256,uint256)": {
        "params": {
          "deadline": "latest timestamp to accept this transaction",
          "minAmount": "the minimum amount to withdraw, otherwise revert",
          "tokenAmount": "the amount of the token you want to receive",
          "tokenIndex": "the index of the token you want to receive"
        },
        "returns": {
          "_0": "amount of chosen token user received"
        }
      },
      "renounceOwnership()": {
        "details": "Leaves the contract without owner. It will not be possible to call `onlyOwner` functions anymore. Can only be called by the current owner. NOTE: Renouncing ownership will leave the contract without an owner, thereby removing any functionality that is only available to the owner."
      },
      "setAdminFee(uint256)": {
        "params": {
          "newAdminFee": "new admin fee to be applied on future transactions"
        }
      },
      "setSwapFee(uint256)": {
        "params": {
          "newSwapFee": "new swap fee to be applied on future transactions"
        }
      },
      "swap(uint8,uint8,uint256,uint256,uint256)": {
        "params": {
          "deadline": "latest timestamp to accept this transaction",
          "dx": "the amount of tokens the user wants to swap from",
          "minDy": "the min amount the user would like to receive, or revert.",
          "tokenIndexFrom": "the token the user wants to swap from",
          "tokenIndexTo": "the token the user wants to swap to"
        }
      },
      "swapUnderlying(uint8,uint8,uint256,uint256,uint256)": {
        "params": {
          "deadline": "latest timestamp to accept this transaction",
          "dx": "the amount of tokens the user wants to swap from",
          "minDy": "the min amount the user would like to receive, or revert.",
          "tokenIndexFrom": "the token the user wants to swap from",
          "tokenIndexTo": "the token the user wants to swap to"
        }
      },
      "transferOwnership(address)": {
        "details": "Transfers ownership of the contract to a new account (`newOwner`). Can only be called by the current owner."
      }
    },
    "title": "MetaSwap - A StableSwap implementation in solidity.",
    "version": 1
  },
  "userdoc": {
    "kind": "user",
    "methods": {
      "addLiquidity(uint256[],uint256,uint256)": {
        "notice": "Add liquidity to the pool with the given amounts of tokens"
      },
      "calculateRemoveLiquidity(uint256)": {
        "notice": "A simple method to calculate amount of each underlying tokens that is returned upon burning given amount of LP tokens"
      },
      "calculateRemoveLiquidityOneToken(uint256,uint8)": {
        "notice": "Calculate the amount of underlying token available to withdraw when withdrawing via only single token"
      },
      "calculateSwap(uint8,uint8,uint256)": {
        "notice": "Calculate amount of tokens you receive on swap"
      },
      "calculateSwapUnderlying(uint8,uint8,uint256)": {
        "notice": "Calculate amount of tokens you receive on swap. For this function, the token indices are flattened out so that underlying tokens are represented."
      },
      "calculateTokenAmount(uint256[],bool)": {
        "notice": "A simple method to calculate prices from deposits or withdrawals, excluding fees but including slippage. This is helpful as an input into the various \"min\" parameters on calls to fight front-running"
      },
      "getA()": {
        "notice": "Return A, the amplification coefficient * n * (n - 1)"
      },
      "getAPrecise()": {
        "notice": "Return A in its raw precision form"
      },
      "getAdminBalance(uint256)": {
        "notice": "This function reads the accumulated amount of admin fees of the token with given index"
      },
      "getToken(uint8)": {
        "notice": "Return address of the pooled token at given index. Reverts if tokenIndex is out of range."
      },
      "getTokenBalance(uint8)": {
        "notice": "Return current balance of the pooled token at given index"
      },
      "getTokenIndex(address)": {
        "notice": "Return the index of the given token address. Reverts if no matching token is found."
      },
      "getVirtualPrice()": {
        "notice": "Get the virtual price, to help calculate profit"
      },
      "initialize(address[],uint8[],string,string,uint256,uint256,uint256,address)": {
        "notice": "This overrides Swap's initialize function to prevent initializing without the address of the base Swap contract."
      },
      "initializeMetaSwap(address[],uint8[],string,string,uint256,uint256,uint256,address,address)": {
        "notice": "Initializes this MetaSwap contract with the given parameters. MetaSwap uses an existing Swap pool to expand the available liquidity. _pooledTokens array should contain the base Swap pool's LP token as the last element. For example, if there is a Swap pool consisting of [DAI, USDC, USDT]. Then a MetaSwap pool can be created with [sUSD, BaseSwapLPToken] as _pooledTokens. This will also deploy the LPToken that represents users' LP position. The owner of LPToken will be this contract - which means only this contract is allowed to mint new tokens."
      },
      "pause()": {
        "notice": "Pause the contract. Revert if already paused."
      },
      "rampA(uint256,uint256)": {
        "notice": "Start ramping up or down A parameter towards given futureA and futureTime Checks if the change is too rapid, and commits the new A value only when it falls under the limit range."
      },
      "removeLiquidity(uint256,uint256[],uint256)": {
        "notice": "Burn LP tokens to remove liquidity from the pool. Withdraw fee that decays linearly over period of 4 weeks since last deposit will apply."
      },
      "removeLiquidityImbalance(uint256[],uint256,uint256)": {
        "notice": "Remove liquidity from the pool, weighted differently than the pool's current balances. Withdraw fee that decays linearly over period of 4 weeks since last deposit will apply."
      },
      "removeLiquidityOneToken(uint256,uint8,uint256,uint256)": {
        "notice": "Remove liquidity from the pool all in one token. Withdraw fee that decays linearly over period of 4 weeks since last deposit will apply."
      },
      "setAdminFee(uint256)": {
        "notice": "Update the admin fee. Admin fee takes portion of the swap fee."
      },
      "setSwapFee(uint256)": {
        "notice": "Update the swap fee to be applied on swaps"
      },
      "stopRampA()": {
        "notice": "Stop ramping A immediately. Reverts if ramp A is already stopped."
      },
      "swap(uint8,uint8,uint256,uint256,uint256)": {
        "notice": "Swap two tokens using this pool"
      },
      "swapUnderlying(uint8,uint8,uint256,uint256,uint256)": {
        "notice": "Swap two tokens using this pool and the base pool."
      },
      "unpause()": {
        "notice": "Unpause the contract. Revert if already unpaused."
      },
      "withdrawAdminFees()": {
        "notice": "Withdraw all admin fees to the contract owner"
      }
    },
    "notice": "This contract is responsible for custody of closely pegged assets (eg. group of stablecoins) and automatic market making system. Users become an LP (Liquidity Provider) by depositing their tokens in desired ratios for an exchange of the pool token that represents their share of the pool. Users can burn pool tokens and withdraw their share of token(s). Each time a swap between the pooled tokens happens, a set fee incurs which effectively gets distributed to the LPs. In case of emergencies, admin can pause additional deposits, swaps, or single-asset withdraws - which stops the ratio of the tokens in the pool from changing. Users can always withdraw their tokens via multi-asset withdraws. MetaSwap is a modified version of Swap that allows Swap's LP token to be utilized in pooling with other tokens. As an example, if there is a Swap pool consisting of [DAI, USDC, USDT], then a MetaSwap pool can be created with [sUSD, BaseSwapLPToken] to allow trades between either the LP token or the underlying tokens and sUSD. Note that when interacting with MetaSwap, users cannot deposit or withdraw via underlying tokens. In that case, `MetaSwapDeposit.sol` can be additionally deployed to allow interacting with unwrapped representations of the tokens.",
    "version": 1
  },
  "storageLayout": {
    "storage": [
      {
        "astId": 492,
        "contract": "contracts/meta/MetaSwap.sol:MetaSwap",
        "label": "_initialized",
        "offset": 0,
        "slot": "0",
        "type": "t_bool"
      },
      {
        "astId": 495,
        "contract": "contracts/meta/MetaSwap.sol:MetaSwap",
        "label": "_initializing",
        "offset": 1,
        "slot": "0",
        "type": "t_bool"
      },
      {
        "astId": 1531,
        "contract": "contracts/meta/MetaSwap.sol:MetaSwap",
        "label": "__gap",
        "offset": 0,
        "slot": "1",
        "type": "t_array(t_uint256)50_storage"
      },
      {
        "astId": 10,
        "contract": "contracts/meta/MetaSwap.sol:MetaSwap",
        "label": "_owner",
        "offset": 0,
        "slot": "51",
        "type": "t_address"
      },
      {
        "astId": 129,
        "contract": "contracts/meta/MetaSwap.sol:MetaSwap",
        "label": "__gap",
        "offset": 0,
        "slot": "52",
        "type": "t_array(t_uint256)49_storage"
      },
      {
        "astId": 1553,
        "contract": "contracts/meta/MetaSwap.sol:MetaSwap",
        "label": "_paused",
        "offset": 0,
        "slot": "101",
        "type": "t_bool"
      },
      {
        "astId": 1644,
        "contract": "contracts/meta/MetaSwap.sol:MetaSwap",
        "label": "__gap",
        "offset": 0,
        "slot": "102",
        "type": "t_array(t_uint256)49_storage"
      },
      {
        "astId": 1659,
        "contract": "contracts/meta/MetaSwap.sol:MetaSwap",
        "label": "_status",
        "offset": 0,
        "slot": "151",
        "type": "t_uint256"
      },
      {
        "astId": 1702,
        "contract": "contracts/meta/MetaSwap.sol:MetaSwap",
        "label": "__gap",
        "offset": 0,
        "slot": "152",
        "type": "t_array(t_uint256)49_storage"
      },
      {
        "astId": 7779,
        "contract": "contracts/meta/MetaSwap.sol:MetaSwap",
        "label": "swapStorage",
        "offset": 0,
        "slot": "201",
        "type": "t_struct(Swap)9655_storage"
      },
      {
        "astId": 7783,
        "contract": "contracts/meta/MetaSwap.sol:MetaSwap",
        "label": "tokenIndexes",
        "offset": 0,
        "slot": "211",
        "type": "t_mapping(t_address,t_uint8)"
      },
      {
        "astId": 26238,
        "contract": "contracts/meta/MetaSwap.sol:MetaSwap",
        "label": "metaSwapStorage",
        "offset": 0,
        "slot": "212",
        "type": "t_struct(MetaSwap)28367_storage"
      }
    ],
    "types": {
      "t_address": {
        "encoding": "inplace",
        "label": "address",
        "numberOfBytes": "20"
      },
      "t_array(t_contract(IERC20)3311)dyn_storage": {
        "base": "t_contract(IERC20)3311",
        "encoding": "dynamic_array",
        "label": "contract IERC20[]",
        "numberOfBytes": "32"
      },
      "t_array(t_uint256)49_storage": {
        "base": "t_uint256",
        "encoding": "inplace",
        "label": "uint256[49]",
        "numberOfBytes": "1568"
      },
      "t_array(t_uint256)50_storage": {
        "base": "t_uint256",
        "encoding": "inplace",
        "label": "uint256[50]",
        "numberOfBytes": "1600"
      },
      "t_array(t_uint256)dyn_storage": {
        "base": "t_uint256",
        "encoding": "dynamic_array",
        "label": "uint256[]",
        "numberOfBytes": "32"
      },
      "t_bool": {
        "encoding": "inplace",
        "label": "bool",
        "numberOfBytes": "1"
      },
      "t_contract(IERC20)3311": {
        "encoding": "inplace",
        "label": "contract IERC20",
        "numberOfBytes": "20"
      },
      "t_contract(ISwap)24867": {
        "encoding": "inplace",
        "label": "contract ISwap",
        "numberOfBytes": "20"
      },
      "t_contract(LPToken)7402": {
        "encoding": "inplace",
        "label": "contract LPToken",
        "numberOfBytes": "20"
      },
      "t_mapping(t_address,t_uint8)": {
        "encoding": "mapping",
        "key": "t_address",
        "label": "mapping(address => uint8)",
        "numberOfBytes": "32",
        "value": "t_uint8"
      },
      "t_struct(MetaSwap)28367_storage": {
        "encoding": "inplace",
        "label": "struct MetaSwapUtils.MetaSwap",
        "members": [
          {
            "astId": 28359,
            "contract": "contracts/meta/MetaSwap.sol:MetaSwap",
            "label": "baseSwap",
            "offset": 0,
            "slot": "0",
            "type": "t_contract(ISwap)24867"
          },
          {
            "astId": 28361,
            "contract": "contracts/meta/MetaSwap.sol:MetaSwap",
            "label": "baseVirtualPrice",
            "offset": 0,
            "slot": "1",
            "type": "t_uint256"
          },
          {
            "astId": 28363,
            "contract": "contracts/meta/MetaSwap.sol:MetaSwap",
            "label": "baseCacheLastUpdated",
            "offset": 0,
            "slot": "2",
            "type": "t_uint256"
          },
          {
            "astId": 28366,
            "contract": "contracts/meta/MetaSwap.sol:MetaSwap",
            "label": "baseTokens",
            "offset": 0,
            "slot": "3",
            "type": "t_array(t_contract(IERC20)3311)dyn_storage"
          }
        ],
        "numberOfBytes": "128"
      },
      "t_struct(Swap)9655_storage": {
        "encoding": "inplace",
        "label": "struct SwapUtils.Swap",
        "members": [
          {
            "astId": 9633,
            "contract": "contracts/meta/MetaSwap.sol:MetaSwap",
            "label": "initialA",
            "offset": 0,
            "slot": "0",
            "type": "t_uint256"
          },
          {
            "astId": 9635,
            "contract": "contracts/meta/MetaSwap.sol:MetaSwap",
            "label": "futureA",
            "offset": 0,
            "slot": "1",
            "type": "t_uint256"
          },
          {
            "astId": 9637,
            "contract": "contracts/meta/MetaSwap.sol:MetaSwap",
            "label": "initialATime",
            "offset": 0,
            "slot": "2",
            "type": "t_uint256"
          },
          {
            "astId": 9639,
            "contract": "contracts/meta/MetaSwap.sol:MetaSwap",
            "label": "futureATime",
            "offset": 0,
            "slot": "3",
            "type": "t_uint256"
          },
          {
            "astId": 9641,
            "contract": "contracts/meta/MetaSwap.sol:MetaSwap",
            "label": "swapFee",
            "offset": 0,
            "slot": "4",
            "type": "t_uint256"
          },
          {
            "astId": 9643,
            "contract": "contracts/meta/MetaSwap.sol:MetaSwap",
            "label": "adminFee",
            "offset": 0,
            "slot": "5",
            "type": "t_uint256"
          },
          {
            "astId": 9645,
            "contract": "contracts/meta/MetaSwap.sol:MetaSwap",
            "label": "lpToken",
            "offset": 0,
            "slot": "6",
            "type": "t_contract(LPToken)7402"
          },
          {
            "astId": 9648,
            "contract": "contracts/meta/MetaSwap.sol:MetaSwap",
            "label": "pooledTokens",
            "offset": 0,
            "slot": "7",
            "type": "t_array(t_contract(IERC20)3311)dyn_storage"
          },
          {
            "astId": 9651,
            "contract": "contracts/meta/MetaSwap.sol:MetaSwap",
            "label": "tokenPrecisionMultipliers",
            "offset": 0,
            "slot": "8",
            "type": "t_array(t_uint256)dyn_storage"
          },
          {
            "astId": 9654,
            "contract": "contracts/meta/MetaSwap.sol:MetaSwap",
            "label": "balances",
            "offset": 0,
            "slot": "9",
            "type": "t_array(t_uint256)dyn_storage"
          }
        ],
        "numberOfBytes": "320"
      },
      "t_uint256": {
        "encoding": "inplace",
        "label": "uint256",
        "numberOfBytes": "32"
      },
      "t_uint8": {
        "encoding": "inplace",
        "label": "uint8",
        "numberOfBytes": "1"
      }
    }
  }
}