{
  "address": "0xDc8EC95Bc5C3B57EbdA4557A2CE6201cb916B9E9",
  "abi": [
    {
      "anonymous": false,
      "inputs": [
        {
          "indexed": true,
          "internalType": "address",
          "name": "provider",
          "type": "address"
        },
        {
          "indexed": false,
          "internalType": "uint256[]",
          "name": "tokenAmounts",
          "type": "uint256[]"
        },
        {
          "indexed": false,
          "internalType": "uint256[]",
          "name": "fees",
          "type": "uint256[]"
        },
        {
          "indexed": false,
          "internalType": "uint256",
          "name": "invariant",
          "type": "uint256"
        },
        {
          "indexed": false,
          "internalType": "uint256",
          "name": "lpTokenSupply",
          "type": "uint256"
        }
      ],
      "name": "AddLiquidity",
      "type": "event"
    },
    {
      "anonymous": false,
      "inputs": [
        {
          "indexed": true,
          "internalType": "address",
          "name": "receiver",
          "type": "address"
        },
        {
          "indexed": false,
          "internalType": "uint8",
          "name": "tokenIndex",
          "type": "uint8"
        },
        {
          "indexed": false,
          "internalType": "uint256",
          "name": "amount",
          "type": "uint256"
        },
        {
          "indexed": false,
          "internalType": "uint256",
          "name": "amountFee",
          "type": "uint256"
        },
        {
          "indexed": false,
          "internalType": "uint256",
          "name": "protocolFee",
          "type": "uint256"
        }
      ],
      "name": "FlashLoan",
      "type": "event"
    },
    {
      "anonymous": false,
      "inputs": [
        {
          "indexed": false,
          "internalType": "uint256",
          "name": "newAdminFee",
          "type": "uint256"
        }
      ],
      "name": "NewAdminFee",
      "type": "event"
    },
    {
      "anonymous": false,
      "inputs": [
        {
          "indexed": false,
          "internalType": "uint256",
          "name": "newSwapFee",
          "type": "uint256"
        }
      ],
      "name": "NewSwapFee",
      "type": "event"
    },
    {
      "anonymous": false,
      "inputs": [
        {
          "indexed": false,
          "internalType": "uint256",
          "name": "newWithdrawFee",
          "type": "uint256"
        }
      ],
      "name": "NewWithdrawFee",
      "type": "event"
    },
    {
      "anonymous": false,
      "inputs": [
        {
          "indexed": true,
          "internalType": "address",
          "name": "previousOwner",
          "type": "address"
        },
        {
          "indexed": true,
          "internalType": "address",
          "name": "newOwner",
          "type": "address"
        }
      ],
      "name": "OwnershipTransferred",
      "type": "event"
    },
    {
      "anonymous": false,
      "inputs": [
        {
          "indexed": false,
          "internalType": "address",
          "name": "account",
          "type": "address"
        }
      ],
      "name": "Paused",
      "type": "event"
    },
    {
      "anonymous": false,
      "inputs": [
        {
          "indexed": false,
          "internalType": "uint256",
          "name": "oldA",
          "type": "uint256"
        },
        {
          "indexed": false,
          "internalType": "uint256",
          "name": "newA",
          "type": "uint256"
        },
        {
          "indexed": false,
          "internalType": "uint256",
          "name": "initialTime",
          "type": "uint256"
        },
        {
          "indexed": false,
          "internalType": "uint256",
          "name": "futureTime",
          "type": "uint256"
        }
      ],
      "name": "RampA",
      "type": "event"
    },
    {
      "anonymous": false,
      "inputs": [
        {
          "indexed": true,
          "internalType": "address",
          "name": "provider",
          "type": "address"
        },
        {
          "indexed": false,
          "internalType": "uint256[]",
          "name": "tokenAmounts",
          "type": "uint256[]"
        },
        {
          "indexed": false,
          "internalType": "uint256",
          "name": "lpTokenSupply",
          "type": "uint256"
        }
      ],
      "name": "RemoveLiquidity",
      "type": "event"
    },
    {
      "anonymous": false,
      "inputs": [
        {
          "indexed": true,
          "internalType": "address",
          "name": "provider",
          "type": "address"
        },
        {
          "indexed": false,
          "internalType": "uint256[]",
          "name": "tokenAmounts",
          "type": "uint256[]"
        },
        {
          "indexed": false,
          "internalType": "uint256[]",
          "name": "fees",
          "type": "uint256[]"
        },
        {
          "indexed": false,
          "internalType": "uint256",
          "name": "invariant",
          "type": "uint256"
        },
        {
          "indexed": false,
          "internalType": "uint256",
          "name": "lpTokenSupply",
          "type": "uint256"
        }
      ],
      "name": "RemoveLiquidityImbalance",
      "type": "event"
    },
    {
      "anonymous": false,
      "inputs": [
        {
          "indexed": true,
          "internalType": "address",
          "name": "provider",
          "type": "address"
        },
        {
          "indexed": false,
          "internalType": "uint256",
          "name": "lpTokenAmount",
          "type": "uint256"
        },
        {
          "indexed": false,
          "internalType": "uint256",
          "name": "lpTokenSupply",
          "type": "uint256"
        },
        {
          "indexed": false,
          "internalType": "uint256",
          "name": "boughtId",
          "type": "uint256"
        },
        {
          "indexed": false,
          "internalType": "uint256",
          "name": "tokensBought",
          "type": "uint256"
        }
      ],
      "name": "RemoveLiquidityOne",
      "type": "event"
    },
    {
      "anonymous": false,
      "inputs": [
        {
          "indexed": false,
          "internalType": "uint256",
          "name": "currentA",
          "type": "uint256"
        },
        {
          "indexed": false,
          "internalType": "uint256",
          "name": "time",
          "type": "uint256"
        }
      ],
      "name": "StopRampA",
      "type": "event"
    },
    {
      "anonymous": false,
      "inputs": [
        {
          "indexed": true,
          "internalType": "address",
          "name": "buyer",
          "type": "address"
        },
        {
          "indexed": false,
          "internalType": "uint256",
          "name": "tokensSold",
          "type": "uint256"
        },
        {
          "indexed": false,
          "internalType": "uint256",
          "name": "tokensBought",
          "type": "uint256"
        },
        {
          "indexed": false,
          "internalType": "uint128",
          "name": "soldId",
          "type": "uint128"
        },
        {
          "indexed": false,
          "internalType": "uint128",
          "name": "boughtId",
          "type": "uint128"
        }
      ],
      "name": "TokenSwap",
      "type": "event"
    },
    {
      "anonymous": false,
      "inputs": [
        {
          "indexed": false,
          "internalType": "address",
          "name": "account",
          "type": "address"
        }
      ],
      "name": "Unpaused",
      "type": "event"
    },
    {
      "inputs": [],
      "name": "MAX_BPS",
      "outputs": [
        {
          "internalType": "uint256",
          "name": "",
          "type": "uint256"
        }
      ],
      "stateMutability": "view",
      "type": "function"
    },
    {
      "inputs": [
        {
          "internalType": "uint256[]",
          "name": "amounts",
          "type": "uint256[]"
        },
        {
          "internalType": "uint256",
          "name": "minToMint",
          "type": "uint256"
        },
        {
          "internalType": "uint256",
          "name": "deadline",
          "type": "uint256"
        }
      ],
      "name": "addLiquidity",
      "outputs": [
        {
          "internalType": "uint256",
          "name": "",
          "type": "uint256"
        }
      ],
      "stateMutability": "payable",
      "type": "function"
    },
    {
      "inputs": [],
      "name": "averageVolume",
      "outputs": [
        {
          "internalType": "uint256",
          "name": "",
          "type": "uint256"
        }
      ],
      "stateMutability": "view",
      "type": "function"
    },
    {
      "inputs": [],
      "name": "baseFee",
      "outputs": [
        {
          "internalType": "uint256",
          "name": "",
          "type": "uint256"
        }
      ],
      "stateMutability": "view",
      "type": "function"
    },
    {
      "inputs": [
        {
          "internalType": "uint256",
          "name": "amount",
          "type": "uint256"
        }
      ],
      "name": "calculateRemoveLiquidity",
      "outputs": [
        {
          "internalType": "uint256[]",
          "name": "",
          "type": "uint256[]"
        }
      ],
      "stateMutability": "view",
      "type": "function"
    },
    {
      "inputs": [
        {
          "internalType": "uint256",
          "name": "tokenAmount",
          "type": "uint256"
        },
        {
          "internalType": "uint8",
          "name": "tokenIndex",
          "type": "uint8"
        }
      ],
      "name": "calculateRemoveLiquidityOneToken",
      "outputs": [
        {
          "internalType": "uint256",
          "name": "availableTokenAmount",
          "type": "uint256"
        }
      ],
      "stateMutability": "view",
      "type": "function"
    },
    {
      "inputs": [
        {
          "internalType": "uint8",
          "name": "tokenIndexFrom",
          "type": "uint8"
        },
        {
          "internalType": "uint8",
          "name": "tokenIndexTo",
          "type": "uint8"
        },
        {
          "internalType": "uint256",
          "name": "dx",
          "type": "uint256"
        }
      ],
      "name": "calculateSwap",
      "outputs": [
        {
          "internalType": "uint256",
          "name": "",
          "type": "uint256"
        }
      ],
      "stateMutability": "view",
      "type": "function"
    },
    {
      "inputs": [
        {
          "internalType": "uint256[]",
          "name": "amounts",
          "type": "uint256[]"
        },
        {
          "internalType": "bool",
          "name": "deposit",
          "type": "bool"
        }
      ],
      "name": "calculateTokenAmount",
      "outputs": [
        {
          "internalType": "uint256",
          "name": "",
          "type": "uint256"
        }
      ],
      "stateMutability": "view",
      "type": "function"
    },
    {
      "inputs": [],
      "name": "creationTimestamp",
      "outputs": [
        {
          "internalType": "uint256",
          "name": "",
          "type": "uint256"
        }
      ],
      "stateMutability": "view",
      "type": "function"
    },
    {
      "inputs": [],
      "name": "feeFactor",
      "outputs": [
        {
          "internalType": "uint256",
          "name": "",
          "type": "uint256"
        }
      ],
      "stateMutability": "view",
      "type": "function"
    },
    {
      "inputs": [
        {
          "internalType": "address",
          "name": "receiver",
          "type": "address"
        },
        {
          "internalType": "contract IERC20",
          "name": "token",
          "type": "address"
        },
        {
          "internalType": "uint256",
          "name": "amount",
          "type": "uint256"
        },
        {
          "internalType": "bytes",
          "name": "params",
          "type": "bytes"
        }
      ],
      "name": "flashLoan",
      "outputs": [],
      "stateMutability": "payable",
      "type": "function"
    },
    {
      "inputs": [],
      "name": "flashLoanFeeBPS",
      "outputs": [
        {
          "internalType": "uint256",
          "name": "",
          "type": "uint256"
        }
      ],
      "stateMutability": "view",
      "type": "function"
    },
    {
      "inputs": [],
      "name": "getA",
      "outputs": [
        {
          "internalType": "uint256",
          "name": "",
          "type": "uint256"
        }
      ],
      "stateMutability": "view",
      "type": "function"
    },
    {
      "inputs": [],
      "name": "getAPrecise",
      "outputs": [
        {
          "internalType": "uint256",
          "name": "",
          "type": "uint256"
        }
      ],
      "stateMutability": "view",
      "type": "function"
    },
    {
      "inputs": [
        {
          "internalType": "uint256",
          "name": "index",
          "type": "uint256"
        }
      ],
      "name": "getAdminBalance",
      "outputs": [
        {
          "internalType": "uint256",
          "name": "",
          "type": "uint256"
        }
      ],
      "stateMutability": "view",
      "type": "function"
    },
    {
      "inputs": [
        {
          "internalType": "uint8",
          "name": "index",
          "type": "uint8"
        }
      ],
      "name": "getToken",
      "outputs": [
        {
          "internalType": "contract IERC20",
          "name": "",
          "type": "address"
        }
      ],
      "stateMutability": "view",
      "type": "function"
    },
    {
      "inputs": [
        {
          "internalType": "uint8",
          "name": "index",
          "type": "uint8"
        }
      ],
      "name": "getTokenBalance",
      "outputs": [
        {
          "internalType": "uint256",
          "name": "",
          "type": "uint256"
        }
      ],
      "stateMutability": "view",
      "type": "function"
    },
    {
      "inputs": [
        {
          "internalType": "address",
          "name": "tokenAddress",
          "type": "address"
        }
      ],
      "name": "getTokenIndex",
      "outputs": [
        {
          "internalType": "uint8",
          "name": "",
          "type": "uint8"
        }
      ],
      "stateMutability": "view",
      "type": "function"
    },
    {
      "inputs": [],
      "name": "getVirtualPrice",
      "outputs": [
        {
          "internalType": "uint256",
          "name": "",
          "type": "uint256"
        }
      ],
      "stateMutability": "view",
      "type": "function"
    },
    {
      "inputs": [
        {
          "internalType": "contract IERC20[]",
          "name": "_pooledTokens",
          "type": "address[]"
        },
        {
          "internalType": "uint8[]",
          "name": "decimals",
          "type": "uint8[]"
        },
        {
          "internalType": "string",
          "name": "lpTokenName",
          "type": "string"
        },
        {
          "internalType": "string",
          "name": "lpTokenSymbol",
          "type": "string"
        },
        {
          "internalType": "uint256",
          "name": "_a",
          "type": "uint256"
        },
        {
          "internalType": "uint256",
          "name": "_fee",
          "type": "uint256"
        },
        {
          "internalType": "uint256",
          "name": "_adminFee",
          "type": "uint256"
        },
        {
          "internalType": "address",
          "name": "lpTokenTargetAddress",
          "type": "address"
        }
      ],
      "name": "initialize",
      "outputs": [],
      "stateMutability": "payable",
      "type": "function"
    },
    {
      "inputs": [],
      "name": "owner",
      "outputs": [
        {
          "internalType": "address",
          "name": "",
          "type": "address"
        }
      ],
      "stateMutability": "view",
      "type": "function"
    },
    {
      "inputs": [],
      "name": "pause",
      "outputs": [],
      "stateMutability": "nonpayable",
      "type": "function"
    },
    {
      "inputs": [],
      "name": "paused",
      "outputs": [
        {
          "internalType": "bool",
          "name": "",
          "type": "bool"
        }
      ],
      "stateMutability": "view",
      "type": "function"
    },
    {
      "inputs": [],
      "name": "protocolFeeShareBPS",
      "outputs": [
        {
          "internalType": "uint256",
          "name": "",
          "type": "uint256"
        }
      ],
      "stateMutability": "view",
      "type": "function"
    },
    {
      "inputs": [
        {
          "internalType": "uint256",
          "name": "futureA",
          "type": "uint256"
        },
        {
          "internalType": "uint256",
          "name": "futureTime",
          "type": "uint256"
        }
      ],
      "name": "rampA",
      "outputs": [],
      "stateMutability": "payable",
      "type": "function"
    },
    {
      "inputs": [
        {
          "internalType": "uint256",
          "name": "",
          "type": "uint256"
        }
      ],
      "name": "recentVolume",
      "outputs": [
        {
          "internalType": "uint256",
          "name": "volume",
          "type": "uint256"
        },
        {
          "internalType": "uint256",
          "name": "timestamp",
          "type": "uint256"
        }
      ],
      "stateMutability": "view",
      "type": "function"
    },
    {
      "inputs": [],
      "name": "recentVolumePointer",
      "outputs": [
        {
          "internalType": "uint256",
          "name": "",
          "type": "uint256"
        }
      ],
      "stateMutability": "view",
      "type": "function"
    },
    {
      "inputs": [
        {
          "internalType": "uint256",
          "name": "amount",
          "type": "uint256"
        },
        {
          "internalType": "uint256[]",
          "name": "minAmounts",
          "type": "uint256[]"
        },
        {
          "internalType": "uint256",
          "name": "deadline",
          "type": "uint256"
        }
      ],
      "name": "removeLiquidity",
      "outputs": [
        {
          "internalType": "uint256[]",
          "name": "",
          "type": "uint256[]"
        }
      ],
      "stateMutability": "payable",
      "type": "function"
    },
    {
      "inputs": [
        {
          "internalType": "uint256[]",
          "name": "amounts",
          "type": "uint256[]"
        },
        {
          "internalType": "uint256",
          "name": "maxBurnAmount",
          "type": "uint256"
        },
        {
          "internalType": "uint256",
          "name": "deadline",
          "type": "uint256"
        }
      ],
      "name": "removeLiquidityImbalance",
      "outputs": [
        {
          "internalType": "uint256",
          "name": "",
          "type": "uint256"
        }
      ],
      "stateMutability": "payable",
      "type": "function"
    },
    {
      "inputs": [
        {
          "internalType": "uint256",
          "name": "tokenAmount",
          "type": "uint256"
        },
        {
          "internalType": "uint8",
          "name": "tokenIndex",
          "type": "uint8"
        },
        {
          "internalType": "uint256",
          "name": "minAmount",
          "type": "uint256"
        },
        {
          "internalType": "uint256",
          "name": "deadline",
          "type": "uint256"
        }
      ],
      "name": "removeLiquidityOneToken",
      "outputs": [
        {
          "internalType": "uint256",
          "name": "",
          "type": "uint256"
        }
      ],
      "stateMutability": "payable",
      "type": "function"
    },
    {
      "inputs": [],
      "name": "renounceOwnership",
      "outputs": [],
      "stateMutability": "nonpayable",
      "type": "function"
    },
    {
      "inputs": [
        {
          "internalType": "uint256",
          "name": "newAdminFee",
          "type": "uint256"
        }
      ],
      "name": "setAdminFee",
      "outputs": [],
      "stateMutability": "payable",
      "type": "function"
    },
    {
      "inputs": [
        {
          "internalType": "uint256",
          "name": "newFlashLoanFeeBPS",
          "type": "uint256"
        },
        {
          "internalType": "uint256",
          "name": "newProtocolFeeShareBPS",
          "type": "uint256"
        }
      ],
      "name": "setFlashLoanFees",
      "outputs": [],
      "stateMutability": "payable",
      "type": "function"
    },
    {
      "inputs": [
        {
          "internalType": "uint256",
          "name": "newSwapFee",
          "type": "uint256"
        }
      ],
      "name": "setSwapFee",
      "outputs": [],
      "stateMutability": "payable",
      "type": "function"
    },
    {
      "inputs": [],
      "name": "stopRampA",
      "outputs": [],
      "stateMutability": "payable",
      "type": "function"
    },
    {
      "inputs": [
        {
          "internalType": "uint8",
          "name": "tokenIndexFrom",
          "type": "uint8"
        },
        {
          "internalType": "uint8",
          "name": "tokenIndexTo",
          "type": "uint8"
        },
        {
          "internalType": "uint256",
          "name": "dx",
          "type": "uint256"
        },
        {
          "internalType": "uint256",
          "name": "minDy",
          "type": "uint256"
        },
        {
          "internalType": "uint256",
          "name": "deadline",
          "type": "uint256"
        }
      ],
      "name": "swap",
      "outputs": [
        {
          "internalType": "uint256",
          "name": "",
          "type": "uint256"
        }
      ],
      "stateMutability": "payable",
      "type": "function"
    },
    {
      "inputs": [],
      "name": "swapStorage",
      "outputs": [
        {
          "internalType": "uint256",
          "name": "initialA",
          "type": "uint256"
        },
        {
          "internalType": "uint256",
          "name": "futureA",
          "type": "uint256"
        },
        {
          "internalType": "uint256",
          "name": "initialATime",
          "type": "uint256"
        },
        {
          "internalType": "uint256",
          "name": "futureATime",
          "type": "uint256"
        },
        {
          "internalType": "uint256",
          "name": "swapFee",
          "type": "uint256"
        },
        {
          "internalType": "uint256",
          "name": "adminFee",
          "type": "uint256"
        },
        {
          "internalType": "contract LPToken",
          "name": "lpToken",
          "type": "address"
        }
      ],
      "stateMutability": "view",
      "type": "function"
    },
    {
      "inputs": [
        {
          "internalType": "address",
          "name": "newOwner",
          "type": "address"
        }
      ],
      "name": "transferOwnership",
      "outputs": [],
      "stateMutability": "nonpayable",
      "type": "function"
    },
    {
      "inputs": [],
      "name": "unpause",
      "outputs": [],
      "stateMutability": "nonpayable",
      "type": "function"
    },
    {
      "inputs": [],
      "name": "withdrawAdminFees",
      "outputs": [],
      "stateMutability": "payable",
      "type": "function"
    }
  ],
  "transactionHash": "0x6bdf4e47040a628f415373f9545a6f3e9e089ea19b095831f741057c235ee788",
  "args": [],
  "numDeployments": 1,
  "solcInputHash": "e2b5d33cda78a84063d4da0472518d18",
  "bytecode": "0x6080604052600160d455600160d85534801561001a57600080fd5b506143828061002a6000396000f3fe6080604052600436106102bb5760003560e01c80638beb60b61161016e578063e25aa5fa116100cb578063ef8159671161007f578063f2fde38b11610064578063f2fde38b14610c70578063f91d27c114610ca3578063fd967f4714610cb8576102bb565b8063ef81596714610c23578063f2fad2b614610c46576102bb565b8063e6ab2806116100b0578063e6ab280614610b65578063e8cc7fb614610be4578063ef0a712f14610bf9576102bb565b8063e25aa5fa14610b3b578063e4cb1cdc14610b50576102bb565b8063b28cb6dc11610122578063b331108611610107578063b331108614610b09578063c4db7fa014610b1e578063d46300fd14610b26576102bb565b8063b28cb6dc146108a4578063b2da6bfe14610af4576102bb565b8063916955861161015357806391695586146107fe57806391ceb3eb1461083a578063a95b089f14610867576102bb565b80638beb60b6146107cc5780638da5cb5b146107e9576102bb565b80635cffe9de1161021c578063715018a6116101d057806382b86600116101b557806382b86600146106f85780638456cb591461074157806384cdd9bc14610756576102bb565b8063715018a6146106ce5780637f1c825a146106e3576102bb565b80636176707b116102015780636176707b1461062d57806366c0bd24146106705780636ef25c3a146106b9576102bb565b80635cffe9de146105115780635fd65f0f146105d7576102bb565b80633e3a1560116102735780634d49e87d116102585780634d49e87d1461044f578063593d132c146104c55780635c975abb146104e8576102bb565b80633e3a1560146104085780633f4ba83a1461043a576102bb565b806331cd52b0116102a457806331cd52b0146102f1578063342a87a1146103b857806334e19907146103eb576102bb565b80630419b45a146102c05780630ba81959146102ca575b600080fd5b6102c8610ccd565b005b3480156102d657600080fd5b506102df610dc3565b60408051918252519081900360200190f35b6103686004803603606081101561030757600080fd5b8135919081019060408101602082013564010000000081111561032957600080fd5b82018360208201111561033b57600080fd5b8035906020019184602083028401116401000000008311171561035d57600080fd5b919350915035610e48565b60408051602080825283518183015283519192839290830191858101910280838360005b838110156103a457818101518382015260200161038c565b505050509050019250505060405180910390f35b3480156103c457600080fd5b506102df600480360360408110156103db57600080fd5b508035906020013560ff16611085565b6102c86004803603602081101561040157600080fd5b5035611139565b6102df6004803603608081101561041e57600080fd5b5080359060ff602082013516906040810135906060013561123a565b34801561044657600080fd5b506102c8611406565b6102df6004803603606081101561046557600080fd5b81019060208101813564010000000081111561048057600080fd5b82018360208201111561049257600080fd5b803590602001918460208302840111640100000000831117156104b457600080fd5b919350915080359060200135611484565b6102c8600480360360408110156104db57600080fd5b5080359060200135611624565b3480156104f457600080fd5b506104fd61172d565b604080519115158252519081900360200190f35b6102c86004803603608081101561052757600080fd5b6001600160a01b0382358116926020810135909116916040820135919081019060808101606082013564010000000081111561056257600080fd5b82018360208201111561057457600080fd5b8035906020019184600183028401116401000000008311171561059657600080fd5b91908080601f016020809104026020016040519081016040528093929190818152602001838380828437600092019190915250929550611736945050505050565b3480156105e357600080fd5b506105ec611bc8565b604080519788526020880196909652868601949094526060860192909252608085015260a08401526001600160a01b031660c0830152519081900360e00190f35b34801561063957600080fd5b506106576004803603602081101561065057600080fd5b5035611be9565b6040805192835260208301919091528051918290030190f35b34801561067c57600080fd5b506106a36004803603602081101561069357600080fd5b50356001600160a01b0316611c14565b6040805160ff9092168252519081900360200190f35b3480156106c557600080fd5b506102df611ca1565b3480156106da57600080fd5b506102c8611ca7565b3480156106ef57600080fd5b506102df611d7d565b34801561070457600080fd5b506107256004803603602081101561071b57600080fd5b503560ff16611d83565b604080516001600160a01b039092168252519081900360200190f35b34801561074d57600080fd5b506102c8611e0b565b6102df6004803603606081101561076c57600080fd5b81019060208101813564010000000081111561078757600080fd5b82018360208201111561079957600080fd5b803590602001918460208302840111640100000000831117156107bb57600080fd5b919350915080359060200135611e87565b6102c8600480360360208110156107e257600080fd5b5035612027565b3480156107f557600080fd5b5061072561210d565b6102df600480360360a081101561081457600080fd5b5060ff81358116916020810135909116906040810135906060810135906080013561211c565b34801561084657600080fd5b506102df6004803603602081101561085d57600080fd5b503560ff166122fa565b34801561087357600080fd5b506102df6004803603606081101561088a57600080fd5b5060ff813581169160208101359091169060400135612379565b6102c860048036036101008110156108bb57600080fd5b8101906020810181356401000000008111156108d657600080fd5b8201836020820111156108e857600080fd5b8035906020019184602083028401116401000000008311171561090a57600080fd5b919080806020026020016040519081016040528093929190818152602001838360200280828437600092019190915250929594936020810193503591505064010000000081111561095a57600080fd5b82018360208201111561096c57600080fd5b8035906020019184602083028401116401000000008311171561098e57600080fd5b91908080602002602001604051908101604052809392919081815260200183836020028082843760009201919091525092959493602081019350359150506401000000008111156109de57600080fd5b8201836020820111156109f057600080fd5b80359060200191846001830284011164010000000083111715610a1257600080fd5b91908080601f0160208091040260200160405190810160405280939291908181526020018383808284376000920191909152509295949360208101935035915050640100000000811115610a6557600080fd5b820183602082011115610a7757600080fd5b80359060200191846001830284011164010000000083111715610a9957600080fd5b91908080601f01602080910402602001604051908101604052809392919081815260200183838082843760009201919091525092955050823593505050602081013590604081013590606001356001600160a01b0316612436565b348015610b0057600080fd5b506102df6124fa565b348015610b1557600080fd5b506102df612500565b6102c8612506565b348015610b3257600080fd5b506102df6125e5565b348015610b4757600080fd5b506102df612639565b348015610b5c57600080fd5b506102df61268d565b348015610b7157600080fd5b506102df60048036036040811015610b8857600080fd5b810190602081018135640100000000811115610ba357600080fd5b820183602082011115610bb557600080fd5b80359060200191846020830284011164010000000083111715610bd757600080fd5b9193509150351515612693565b348015610bf057600080fd5b506102df612728565b348015610c0557600080fd5b506102df60048036036020811015610c1c57600080fd5b503561272e565b6102c860048036036040811015610c3957600080fd5b50803590602001356127bc565b348015610c5257600080fd5b5061036860048036036020811015610c6957600080fd5b50356128ac565b348015610c7c57600080fd5b506102c860048036036020811015610c9357600080fd5b50356001600160a01b03166129f6565b348015610caf57600080fd5b506102df612b23565b348015610cc457600080fd5b506102df612b29565b610cd5612b2f565b6001600160a01b0316610ce661210d565b6001600160a01b031614610d41576040805162461bcd60e51b815260206004820181905260248201527f4f776e61626c653a2063616c6c6572206973206e6f7420746865206f776e6572604482015290519081900360640190fd5b7322b5Ec130b65EF85C83cF9e6bEa5ac8e76bea5db6324c5c75160c9610d6561210d565b6040518363ffffffff1660e01b815260040180838152602001826001600160a01b031681526020019250505060006040518083038186803b158015610da957600080fd5b505af4158015610dbd573d6000803e3d6000fd5b50505050565b600060c9731b6C79E47FD08c238E324a1f1bcE0E0b77779D7963c9b64dcb90916040518263ffffffff1660e01b81526004018082815260200191505060206040518083038186803b158015610e1757600080fd5b505af4158015610e2b573d6000803e3d6000fd5b505050506040513d6020811015610e4157600080fd5b5051905090565b606060026097541415610ea2576040805162461bcd60e51b815260206004820152601f60248201527f5265656e7472616e637947756172643a207265656e7472616e742063616c6c00604482015290519081900360640190fd5b60026097558142811015610efd576040805162461bcd60e51b815260206004820152601060248201527f446561646c696e65206e6f74206d657400000000000000000000000000000000604482015290519081900360640190fd5b60c97322b5Ec130b65EF85C83cF9e6bEa5ac8e76bea5db6373fd6b3e90918888886040518563ffffffff1660e01b815260040180858152602001848152602001806020018281038252848482818152602001925060200280828437600081840152601f19601f8201169050808301925050509550505050505060006040518083038186803b158015610f8e57600080fd5b505af4158015610fa2573d6000803e3d6000fd5b505050506040513d6000823e601f3d9081017fffffffffffffffffffffffffffffffffffffffffffffffffffffffffffffffe01682016040526020811015610fe957600080fd5b810190808051604051939291908464010000000082111561100957600080fd5b90830190602082018581111561101e57600080fd5b825186602082028301116401000000008211171561103b57600080fd5b82525081516020918201928201910280838360005b83811015611068578181015183820152602001611050565b505050509050016040525050509150506001609755949350505050565b604080517fe069274200000000000000000000000000000000000000000000000000000000815260c960048201526024810184905260ff8316604482015290516000917322b5Ec130b65EF85C83cF9e6bEa5ac8e76bea5db9163e069274291606480820192602092909190829003018186803b15801561110457600080fd5b505af4158015611118573d6000803e3d6000fd5b505050506040513d602081101561112e57600080fd5b505190505b92915050565b611141612b2f565b6001600160a01b031661115261210d565b6001600160a01b0316146111ad576040805162461bcd60e51b815260206004820181905260248201527f4f776e61626c653a2063616c6c6572206973206e6f7420746865206f776e6572604482015290519081900360640190fd5b604080517f467e186c00000000000000000000000000000000000000000000000000000000815260c960048201526024810183905290517322b5Ec130b65EF85C83cF9e6bEa5ac8e76bea5db9163467e186c916044808301926000929190829003018186803b15801561121f57600080fd5b505af4158015611233573d6000803e3d6000fd5b5050505050565b600060026097541415611294576040805162461bcd60e51b815260206004820152601f60248201527f5265656e7472616e637947756172643a207265656e7472616e742063616c6c00604482015290519081900360640190fd5b60026097556112a161172d565b156112f3576040805162461bcd60e51b815260206004820152601060248201527f5061757361626c653a2070617573656400000000000000000000000000000000604482015290519081900360640190fd5b8180421115611349576040805162461bcd60e51b815260206004820152601060248201527f446561646c696e65206e6f74206d657400000000000000000000000000000000604482015290519081900360640190fd5b604080517fe7a4db8100000000000000000000000000000000000000000000000000000000815260c960048201526024810188905260ff871660448201526064810186905290517322b5Ec130b65EF85C83cF9e6bEa5ac8e76bea5db9163e7a4db81916084808301926020929190829003018186803b1580156113cb57600080fd5b505af41580156113df573d6000803e3d6000fd5b505050506040513d60208110156113f557600080fd5b505160016097559695505050505050565b61140e612b2f565b6001600160a01b031661141f61210d565b6001600160a01b03161461147a576040805162461bcd60e51b815260206004820181905260248201527f4f776e61626c653a2063616c6c6572206973206e6f7420746865206f776e6572604482015290519081900360640190fd5b611482612b33565b565b6000600260975414156114de576040805162461bcd60e51b815260206004820152601f60248201527f5265656e7472616e637947756172643a207265656e7472616e742063616c6c00604482015290519081900360640190fd5b60026097556114eb61172d565b1561153d576040805162461bcd60e51b815260206004820152601060248201527f5061757361626c653a2070617573656400000000000000000000000000000000604482015290519081900360640190fd5b8180421115611593576040805162461bcd60e51b815260206004820152601060248201527f446561646c696e65206e6f74206d657400000000000000000000000000000000604482015290519081900360640190fd5b60c97322b5Ec130b65EF85C83cF9e6bEa5ac8e76bea5db6340370edf90918888886040518563ffffffff1660e01b815260040180858152602001806020018381526020018281038252858582818152602001925060200280828437600081840152601f19601f8201169050808301925050509550505050505060206040518083038186803b1580156113cb57600080fd5b61162c612b2f565b6001600160a01b031661163d61210d565b6001600160a01b031614611698576040805162461bcd60e51b815260206004820181905260248201527f4f776e61626c653a2063616c6c6572206973206e6f7420746865206f776e6572604482015290519081900360640190fd5b604080517f58fdd79b00000000000000000000000000000000000000000000000000000000815260c9600482015260248101849052604481018390529051731b6C79E47FD08c238E324a1f1bcE0E0b77779D79916358fdd79b916064808301926000929190829003018186803b15801561171157600080fd5b505af4158015611725573d6000803e3d6000fd5b505050505050565b60655460ff1690565b6002609754141561178e576040805162461bcd60e51b815260206004820152601f60248201527f5265656e7472616e637947756172643a207265656e7472616e742063616c6c00604482015290519081900360640190fd5b6002609755600061179e84611c14565b90506000846001600160a01b03166370a08231306040518263ffffffff1660e01b815260040180826001600160a01b0316815260200191505060206040518083038186803b1580156117ef57600080fd5b505afa158015611803573d6000803e3d6000fd5b505050506040513d602081101561181957600080fd5b505160d28054919250600091611851919060ff861690811061183757fe5b906000526020600020015483612bdc90919063ffffffff16565b90506000851180156118635750848210155b6118b4576040805162461bcd60e51b815260206004820152600e60248201527f696e76616c696420616d6f756e74000000000000000000000000000000000000604482015290519081900360640190fd5b60006118d76127106118d160da5489612c3990919063ffffffff16565b90612c92565b905060006118f66127106118d160db5485612c3990919063ffffffff16565b90506000821161194d576040805162461bcd60e51b815260206004820152601f60248201527f616d6f756e7420697320736d616c6c20666f72206120666c6173684c6f616e00604482015290519081900360640190fd5b6119616001600160a01b0389168a89612cf9565b886001600160a01b031663405b019d308a8a868b6040518663ffffffff1660e01b815260040180866001600160a01b03168152602001856001600160a01b0316815260200184815260200183815260200180602001828103825283818151815260200191508051906020019080838360005b838110156119eb5781810151838201526020016119d3565b50505050905090810190601f168015611a185780820380516001836020036101000a031916815260200191505b509650505050505050600060405180830381600087803b158015611a3b57600080fd5b505af1158015611a4f573d6000803e3d6000fd5b505050506000886001600160a01b03166370a08231306040518263ffffffff1660e01b815260040180826001600160a01b0316815260200191505060206040518083038186803b158015611aa257600080fd5b505afa158015611ab6573d6000803e3d6000fd5b505050506040513d6020811015611acc57600080fd5b50519050611ada8584612d7e565b811015611b2e576040805162461bcd60e51b815260206004820152601860248201527f666c6173684c6f616e20666565206973206e6f74206d65740000000000000000604482015290519081900360640190fd5b611b4282611b3c8387612bdc565b90612bdc565b60d2805460ff8916908110611b5357fe5b600091825260209182902001919091556040805160ff891681529182018a905281810185905260608201849052516001600160a01b038c16917f7c186b2827b23e9024e7b29869cba58a97a4bac6567802a8ea6a8afa7b8c22f0919081900360800190a2505060016097555050505050505050565b60c95460ca5460cb5460cc5460cd5460ce5460cf546001600160a01b031687565b60d58181548110611bf657fe5b60009182526020909120600290910201805460019091015490915082565b6001600160a01b038116600081815260d36020526040812054909160ff90911690611c3e82611d83565b6001600160a01b031614611c99576040805162461bcd60e51b815260206004820152601460248201527f546f6b656e20646f6573206e6f74206578697374000000000000000000000000604482015290519081900360640190fd5b90505b919050565b60d75481565b611caf612b2f565b6001600160a01b0316611cc061210d565b6001600160a01b031614611d1b576040805162461bcd60e51b815260206004820181905260248201527f4f776e61626c653a2063616c6c6572206973206e6f7420746865206f776e6572604482015290519081900360640190fd5b6033546040516000916001600160a01b0316907f8be0079c531659141344cd1fd0a4f28419497f9722a3daafe3b4186f6b6457e0908390a3603380547fffffffffffffffffffffffff0000000000000000000000000000000000000000169055565b60da5481565b60d05460009060ff831610611ddf576040805162461bcd60e51b815260206004820152600c60248201527f4f7574206f662072616e67650000000000000000000000000000000000000000604482015290519081900360640190fd5b60d0805460ff8416908110611df057fe5b6000918252602090912001546001600160a01b031692915050565b611e13612b2f565b6001600160a01b0316611e2461210d565b6001600160a01b031614611e7f576040805162461bcd60e51b815260206004820181905260248201527f4f776e61626c653a2063616c6c6572206973206e6f7420746865206f776e6572604482015290519081900360640190fd5b611482612dd8565b600060026097541415611ee1576040805162461bcd60e51b815260206004820152601f60248201527f5265656e7472616e637947756172643a207265656e7472616e742063616c6c00604482015290519081900360640190fd5b6002609755611eee61172d565b15611f40576040805162461bcd60e51b815260206004820152601060248201527f5061757361626c653a2070617573656400000000000000000000000000000000604482015290519081900360640190fd5b8180421115611f96576040805162461bcd60e51b815260206004820152601060248201527f446561646c696e65206e6f74206d657400000000000000000000000000000000604482015290519081900360640190fd5b60c97322b5Ec130b65EF85C83cF9e6bEa5ac8e76bea5db6341b91c2690918888886040518563ffffffff1660e01b815260040180858152602001806020018381526020018281038252858582818152602001925060200280828437600081840152601f19601f8201169050808301925050509550505050505060206040518083038186803b1580156113cb57600080fd5b61202f612b2f565b6001600160a01b031661204061210d565b6001600160a01b03161461209b576040805162461bcd60e51b815260206004820181905260248201527f4f776e61626c653a2063616c6c6572206973206e6f7420746865206f776e6572604482015290519081900360640190fd5b604080517f7046727600000000000000000000000000000000000000000000000000000000815260c960048201526024810183905290517322b5Ec130b65EF85C83cF9e6bEa5ac8e76bea5db916370467276916044808301926000929190829003018186803b15801561121f57600080fd5b6033546001600160a01b031690565b600060026097541415612176576040805162461bcd60e51b815260206004820152601f60248201527f5265656e7472616e637947756172643a207265656e7472616e742063616c6c00604482015290519081900360640190fd5b600260975561218361172d565b156121d5576040805162461bcd60e51b815260206004820152601060248201527f5061757361626c653a2070617573656400000000000000000000000000000000604482015290519081900360640190fd5b818042111561222b576040805162461bcd60e51b815260206004820152601060248201527f446561646c696e65206e6f74206d657400000000000000000000000000000000604482015290519081900360640190fd5b61223484612e68565b604080517fa5397b2200000000000000000000000000000000000000000000000000000000815260c9600482015260ff808a16602483015288166044820152606481018790526084810186905290517322b5Ec130b65EF85C83cF9e6bEa5ac8e76bea5db9163a5397b229160a4808301926020929190829003018186803b1580156122be57600080fd5b505af41580156122d2573d6000803e3d6000fd5b505050506040513d60208110156122e857600080fd5b50516001609755979650505050505050565b60d05460009060ff831610612356576040805162461bcd60e51b815260206004820152601260248201527f496e646578206f7574206f662072616e67650000000000000000000000000000604482015290519081900360640190fd5b60d2805460ff841690811061236757fe5b90600052602060002001549050919050565b604080517f4b23603c00000000000000000000000000000000000000000000000000000000815260c9600482015260ff8086166024830152841660448201526064810183905290516000917322b5Ec130b65EF85C83cF9e6bEa5ac8e76bea5db91634b23603c91608480820192602092909190829003018186803b15801561240057600080fd5b505af4158015612414573d6000803e3d6000fd5b505050506040513d602081101561242a57600080fd5b505190505b9392505050565b600054610100900460ff168061244f575061244f6130dc565b8061245d575060005460ff16155b6124985760405162461bcd60e51b815260040180806020018281038252602e8152602001806142d4602e913960400191505060405180910390fd5b600054610100900460ff161580156124c3576000805460ff1961ff0019909116610100171660011790555b6124d389898989898989896130ed565b600860da55600060db5580156124ef576000805461ff00191690555b505050505050505050565b60d45481565b60d95481565b61250e612b2f565b6001600160a01b031661251f61210d565b6001600160a01b03161461257a576040805162461bcd60e51b815260206004820181905260248201527f4f776e61626c653a2063616c6c6572206973206e6f7420746865206f776e6572604482015290519081900360640190fd5b604080517ff14e211e00000000000000000000000000000000000000000000000000000000815260c960048201529051731b6C79E47FD08c238E324a1f1bcE0E0b77779D799163f14e211e916024808301926000929190829003018186803b158015610da957600080fd5b600060c9731b6C79E47FD08c238E324a1f1bcE0E0b77779D7963b0a14cfc90916040518263ffffffff1660e01b81526004018082815260200191505060206040518083038186803b158015610e1757600080fd5b600060c97322b5Ec130b65EF85C83cF9e6bEa5ac8e76bea5db6371906c2c90916040518263ffffffff1660e01b81526004018082815260200191505060206040518083038186803b158015610e1757600080fd5b60d65481565b600060c97322b5Ec130b65EF85C83cF9e6bEa5ac8e76bea5db63834b491090918686866040518563ffffffff1660e01b8152600401808581526020018060200183151581526020018281038252858582818152602001925060200280828437600081840152601f19601f8201169050808301925050509550505050505060206040518083038186803b15801561240057600080fd5b60db5481565b600060c97322b5Ec130b65EF85C83cF9e6bEa5ac8e76bea5db637d0481609091846040518363ffffffff1660e01b8152600401808381526020018281526020019250505060206040518083038186803b15801561278a57600080fd5b505af415801561279e573d6000803e3d6000fd5b505050506040513d60208110156127b457600080fd5b505192915050565b6127c4612b2f565b6001600160a01b03166127d561210d565b6001600160a01b031614612830576040805162461bcd60e51b815260206004820181905260248201527f4f776e61626c653a2063616c6c6572206973206e6f7420746865206f776e6572604482015290519081900360640190fd5b60008211801561284257506127108211155b801561285057506127108111155b6128a1576040805162461bcd60e51b815260206004820152601b60248201527f6665657320617265206e6f7420696e2076616c69642072616e67650000000000604482015290519081900360640190fd5b60da9190915560db55565b606060c97322b5Ec130b65EF85C83cF9e6bEa5ac8e76bea5db6370703e4a9091846040518363ffffffff1660e01b8152600401808381526020018281526020019250505060006040518083038186803b15801561290857600080fd5b505af415801561291c573d6000803e3d6000fd5b505050506040513d6000823e601f3d9081017fffffffffffffffffffffffffffffffffffffffffffffffffffffffffffffffe0168201604052602081101561296357600080fd5b810190808051604051939291908464010000000082111561298357600080fd5b90830190602082018581111561299857600080fd5b82518660208202830111640100000000821117156129b557600080fd5b82525081516020918201928201910280838360005b838110156129e25781810151838201526020016129ca565b505050509050016040525050509050919050565b6129fe612b2f565b6001600160a01b0316612a0f61210d565b6001600160a01b031614612a6a576040805162461bcd60e51b815260206004820181905260248201527f4f776e61626c653a2063616c6c6572206973206e6f7420746865206f776e6572604482015290519081900360640190fd5b6001600160a01b038116612aaf5760405162461bcd60e51b81526004018080602001828103825260268152602001806142886026913960400191505060405180910390fd5b6033546040516001600160a01b038084169216907f8be0079c531659141344cd1fd0a4f28419497f9722a3daafe3b4186f6b6457e090600090a3603380547fffffffffffffffffffffffff0000000000000000000000000000000000000000166001600160a01b0392909216919091179055565b60d85481565b61271081565b3390565b612b3b61172d565b612b8c576040805162461bcd60e51b815260206004820152601460248201527f5061757361626c653a206e6f7420706175736564000000000000000000000000604482015290519081900360640190fd5b6065805460ff191690557f5db9ee0a495bf2e6ff9c91a7834c1ba4fdd244a5e8aa4e537bd38aeae4b073aa612bbf612b2f565b604080516001600160a01b039092168252519081900360200190a1565b600082821115612c33576040805162461bcd60e51b815260206004820152601e60248201527f536166654d6174683a207375627472616374696f6e206f766572666c6f770000604482015290519081900360640190fd5b50900390565b600082612c4857506000611133565b82820282848281612c5557fe5b041461242f5760405162461bcd60e51b81526004018080602001828103825260218152602001806143026021913960400191505060405180910390fd5b6000808211612ce8576040805162461bcd60e51b815260206004820152601a60248201527f536166654d6174683a206469766973696f6e206279207a65726f000000000000604482015290519081900360640190fd5b818381612cf157fe5b049392505050565b604080516001600160a01b038416602482015260448082018490528251808303909101815260649091019091526020810180517bffffffffffffffffffffffffffffffffffffffffffffffffffffffff167fa9059cbb00000000000000000000000000000000000000000000000000000000179052612d7990849061397f565b505050565b60008282018381101561242f576040805162461bcd60e51b815260206004820152601b60248201527f536166654d6174683a206164646974696f6e206f766572666c6f770000000000604482015290519081900360640190fd5b612de061172d565b15612e32576040805162461bcd60e51b815260206004820152601060248201527f5061757361626c653a2070617573656400000000000000000000000000000000604482015290519081900360640190fd5b6065805460ff191660011790557f62e78cea01bee320cd4e420270b5ea74000d11b0c9f74754ebdbfc544b05a258612bbf612b2f565b60d580544291612eac916102589190612e82906001612bdc565b81548110612e8c57fe5b906000526020600020906002020160010154612d7e90919063ffffffff16565b10612f165760d58054612ee7918391612ec6906001612bdc565b81548110612ed057fe5b600091825260209091206002909102015490612d7e565b60d58054612ef6906001612bdc565b81548110612f0057fe5b6000918252602090912060029091020155613003565b612f77612f2e60d95442612bdc90919063ffffffff16565b61025881612f3857fe5b04612f71612f6860d560d65481548110612f4e57fe5b600091825260209091206002909102015460d45490612bdc565b60d45490612d7e565b90612c39565b60d45560d654612f88906001612d7e565b60d65560408051808201909152818152426020820190815260d5805460018101825560009190915291517f51858de9989bf7441865ebdadbf7382c8838edbf830f5d86a9a51ac773676dd6600290930292830155517f51858de9989bf7441865ebdadbf7382c8838edbf830f5d86a9a51ac773676dd7909101555b60d55460d65460009190805b828110156130425760d5818154811061302457fe5b6000918252602090912060029091020154939093019260010161300f565b50600061306c60d75461306660d4546118d18860d854612c3990919063ffffffff16565b90612d7e565b905060c97322b5Ec130b65EF85C83cF9e6bEa5ac8e76bea5db63467e186c9091836040518363ffffffff1660e01b8152600401808381526020018281526020019250505060006040518083038186803b1580156130c857600080fd5b505af41580156124ef573d6000803e3d6000fd5b60006130e730613a30565b15905090565b600054610100900460ff168061310657506131066130dc565b80613114575060005460ff16155b61314f5760405162461bcd60e51b815260040180806020018281038252602e8152602001806142d4602e913960400191505060405180910390fd5b600054610100900460ff1615801561317a576000805460ff1961ff0019909116610100171660011790555b613182613a36565b61318a613af0565b60018951116131e0576040805162461bcd60e51b815260206004820152601960248201527f5f706f6f6c6564546f6b656e732e6c656e677468203c3d203100000000000000604482015290519081900360640190fd5b602089511115613237576040805162461bcd60e51b815260206004820152601960248201527f5f706f6f6c6564546f6b656e732e6c656e677468203e20333200000000000000604482015290519081900360640190fd5b875189511461328d576040805162461bcd60e51b815260206004820152601f60248201527f5f706f6f6c6564546f6b656e7320646563696d616c73206d69736d6174636800604482015290519081900360640190fd5b6060885167ffffffffffffffff811180156132a757600080fd5b506040519080825280602002602001820160405280156132d1578160200160208202803683370190505b50905060005b8a518160ff16101561354f5760ff8116156133c05760d360008c8360ff16815181106132ff57fe5b6020908102919091018101516001600160a01b031682528101919091526040016000205460ff1615801561336f57508a8160ff168151811061333d57fe5b60200260200101516001600160a01b03168b60008151811061335b57fe5b60200260200101516001600160a01b031614155b6133c0576040805162461bcd60e51b815260206004820152601060248201527f4475706c696361746520746f6b656e7300000000000000000000000000000000604482015290519081900360640190fd5b60006001600160a01b03168b8260ff16815181106133da57fe5b60200260200101516001600160a01b0316141561343e576040805162461bcd60e51b815260206004820152601d60248201527f546865203020616464726573732069736e277420616e204552432d3230000000604482015290519081900360640190fd5b601260ff168a8260ff168151811061345257fe5b602002602001015160ff1611156134b0576040805162461bcd60e51b815260206004820152601a60248201527f546f6b656e20646563696d616c732065786365656473206d6178000000000000604482015290519081900360640190fd5b6134e08a8260ff16815181106134c257fe5b602002602001015160ff16601260ff16612bdc90919063ffffffff16565b600a0a828260ff16815181106134f257fe5b6020026020010181815250508060d360008d8460ff168151811061351257fe5b6020908102919091018101516001600160a01b03168252810191909152604001600020805460ff191660ff929092169190911790556001016132d7565b50620f424086106135a7576040805162461bcd60e51b815260206004820152601260248201527f5f612065786365656473206d6178696d756d0000000000000000000000000000604482015290519081900360640190fd5b6305f5e10085106135ff576040805162461bcd60e51b815260206004820152601460248201527f5f6665652065786365656473206d6178696d756d000000000000000000000000604482015290519081900360640190fd5b6402540be4008410613658576040805162461bcd60e51b815260206004820152601960248201527f5f61646d696e4665652065786365656473206d6178696d756d00000000000000604482015290519081900360640190fd5b600061366384613b85565b9050806001600160a01b0316634cd88b768a8a6040518363ffffffff1660e01b8152600401808060200180602001838103835285818151815260200191508051906020019080838360005b838110156136c65781810151838201526020016136ae565b50505050905090810190601f1680156136f35780820380516001836020036101000a031916815260200191505b50838103825284518152845160209182019186019080838360005b8381101561372657818101518382015260200161370e565b50505050905090810190601f1680156137535780820380516001836020036101000a031916815260200191505b50945050505050602060405180830381600087803b15801561377457600080fd5b505af1158015613788573d6000803e3d6000fd5b505050506040513d602081101561379e57600080fd5b50516137f1576040805162461bcd60e51b815260206004820152601c60248201527f636f756c64206e6f7420696e6974206c70546f6b656e20636c6f6e6500000000604482015290519081900360640190fd5b60cf80547fffffffffffffffffffffffff0000000000000000000000000000000000000000166001600160a01b0383161790558a516138379060d09060208e0190614177565b50815161384b9060d19060208501906141f4565b508a5167ffffffffffffffff8111801561386457600080fd5b5060405190808252806020026020018201604052801561388e578160200160208202803683370190505b5080516138a39160d2916020909101906141f4565b506138af876064612c39565b60c9556138bd876064612c39565b60ca5560cd86905560ce85905560005b60068160ff16101561395757604080518082019091526000808252426020830190815260d58054600180820183559190935292517f51858de9989bf7441865ebdadbf7382c8838edbf830f5d86a9a51ac773676dd6600290930292830155517f51858de9989bf7441865ebdadbf7382c8838edbf830f5d86a9a51ac773676dd790910155016138cd565b50505060d78490554260d95580156124ef576000805461ff0019169055505050505050505050565b60606139d4826040518060400160405280602081526020017f5361666545524332303a206c6f772d6c6576656c2063616c6c206661696c6564815250856001600160a01b0316613c409092919063ffffffff16565b805190915015612d79578080602001905160208110156139f357600080fd5b5051612d795760405162461bcd60e51b815260040180806020018281038252602a815260200180614323602a913960400191505060405180910390fd5b3b151590565b600054610100900460ff1680613a4f5750613a4f6130dc565b80613a5d575060005460ff16155b613a985760405162461bcd60e51b815260040180806020018281038252602e8152602001806142d4602e913960400191505060405180910390fd5b600054610100900460ff16158015613ac3576000805460ff1961ff0019909116610100171660011790555b613acb613c57565b613ad3613cf7565b613adb613e08565b8015613aed576000805461ff00191690555b50565b600054610100900460ff1680613b095750613b096130dc565b80613b17575060005460ff16155b613b525760405162461bcd60e51b815260040180806020018281038252602e8152602001806142d4602e913960400191505060405180910390fd5b600054610100900460ff16158015613b7d576000805460ff1961ff0019909116610100171660011790555b613adb613eb3565b60006040517f3d602d80600a3d3981f3363d3d373d3d3d363d7300000000000000000000000081528260601b60148201527f5af43d82803e903d91602b57fd5bf3000000000000000000000000000000000060288201526037816000f09150506001600160a01b038116611c9c576040805162461bcd60e51b815260206004820152601660248201527f455243313136373a20637265617465206661696c656400000000000000000000604482015290519081900360640190fd5b6060613c4f8484600085613f59565b949350505050565b600054610100900460ff1680613c705750613c706130dc565b80613c7e575060005460ff16155b613cb95760405162461bcd60e51b815260040180806020018281038252602e8152602001806142d4602e913960400191505060405180910390fd5b600054610100900460ff16158015613adb576000805460ff1961ff0019909116610100171660011790558015613aed576000805461ff001916905550565b600054610100900460ff1680613d105750613d106130dc565b80613d1e575060005460ff16155b613d595760405162461bcd60e51b815260040180806020018281038252602e8152602001806142d4602e913960400191505060405180910390fd5b600054610100900460ff16158015613d84576000805460ff1961ff0019909116610100171660011790555b6000613d8e612b2f565b603380547fffffffffffffffffffffffff0000000000000000000000000000000000000000166001600160a01b038316908117909155604051919250906000907f8be0079c531659141344cd1fd0a4f28419497f9722a3daafe3b4186f6b6457e0908290a3508015613aed576000805461ff001916905550565b600054610100900460ff1680613e215750613e216130dc565b80613e2f575060005460ff16155b613e6a5760405162461bcd60e51b815260040180806020018281038252602e8152602001806142d4602e913960400191505060405180910390fd5b600054610100900460ff16158015613e95576000805460ff1961ff0019909116610100171660011790555b6065805460ff191690558015613aed576000805461ff001916905550565b600054610100900460ff1680613ecc5750613ecc6130dc565b80613eda575060005460ff16155b613f155760405162461bcd60e51b815260040180806020018281038252602e8152602001806142d4602e913960400191505060405180910390fd5b600054610100900460ff16158015613f40576000805460ff1961ff0019909116610100171660011790555b60016097558015613aed576000805461ff001916905550565b606082471015613f9a5760405162461bcd60e51b81526004018080602001828103825260268152602001806142ae6026913960400191505060405180910390fd5b613fa385613a30565b613ff4576040805162461bcd60e51b815260206004820152601d60248201527f416464726573733a2063616c6c20746f206e6f6e2d636f6e7472616374000000604482015290519081900360640190fd5b60006060866001600160a01b031685876040518082805190602001908083835b6020831061405157805182527fffffffffffffffffffffffffffffffffffffffffffffffffffffffffffffffe09092019160209182019101614014565b6001836020036101000a03801982511681845116808217855250505050505090500191505060006040518083038185875af1925050503d80600081146140b3576040519150601f19603f3d011682016040523d82523d6000602084013e6140b8565b606091505b50915091506140c88282866140d3565b979650505050505050565b606083156140e257508161242f565b8251156140f25782518084602001fd5b8160405162461bcd60e51b81526004018080602001828103825283818151815260200191508051906020019080838360005b8381101561413c578181015183820152602001614124565b50505050905090810190601f1680156141695780820380516001836020036101000a031916815260200191505b509250505060405180910390fd5b8280548282559060005260206000209081019282156141e4579160200282015b828111156141e457825182547fffffffffffffffffffffffff0000000000000000000000000000000000000000166001600160a01b03909116178255602090920191600190910190614197565b506141f092915061423b565b5090565b82805482825590600052602060002090810192821561422f579160200282015b8281111561422f578251825591602001919060010190614214565b506141f0929150614272565b5b808211156141f05780547fffffffffffffffffffffffff000000000000000000000000000000000000000016815560010161423c565b5b808211156141f0576000815560010161427356fe4f776e61626c653a206e6577206f776e657220697320746865207a65726f2061646472657373416464726573733a20696e73756666696369656e742062616c616e636520666f722063616c6c496e697469616c697a61626c653a20636f6e747261637420697320616c726561647920696e697469616c697a6564536166654d6174683a206d756c7469706c69636174696f6e206f766572666c6f775361666545524332303a204552433230206f7065726174696f6e20646964206e6f742073756363656564a2646970667358221220b12da927bea0dbf7e03b5553d5039699852bb505a2a209b3825ed87f0433c5a564736f6c634300060c0033",
  "deployedBytecode": "0x6080604052600436106102bb5760003560e01c80638beb60b61161016e578063e25aa5fa116100cb578063ef8159671161007f578063f2fde38b11610064578063f2fde38b14610c70578063f91d27c114610ca3578063fd967f4714610cb8576102bb565b8063ef81596714610c23578063f2fad2b614610c46576102bb565b8063e6ab2806116100b0578063e6ab280614610b65578063e8cc7fb614610be4578063ef0a712f14610bf9576102bb565b8063e25aa5fa14610b3b578063e4cb1cdc14610b50576102bb565b8063b28cb6dc11610122578063b331108611610107578063b331108614610b09578063c4db7fa014610b1e578063d46300fd14610b26576102bb565b8063b28cb6dc146108a4578063b2da6bfe14610af4576102bb565b8063916955861161015357806391695586146107fe57806391ceb3eb1461083a578063a95b089f14610867576102bb565b80638beb60b6146107cc5780638da5cb5b146107e9576102bb565b80635cffe9de1161021c578063715018a6116101d057806382b86600116101b557806382b86600146106f85780638456cb591461074157806384cdd9bc14610756576102bb565b8063715018a6146106ce5780637f1c825a146106e3576102bb565b80636176707b116102015780636176707b1461062d57806366c0bd24146106705780636ef25c3a146106b9576102bb565b80635cffe9de146105115780635fd65f0f146105d7576102bb565b80633e3a1560116102735780634d49e87d116102585780634d49e87d1461044f578063593d132c146104c55780635c975abb146104e8576102bb565b80633e3a1560146104085780633f4ba83a1461043a576102bb565b806331cd52b0116102a457806331cd52b0146102f1578063342a87a1146103b857806334e19907146103eb576102bb565b80630419b45a146102c05780630ba81959146102ca575b600080fd5b6102c8610ccd565b005b3480156102d657600080fd5b506102df610dc3565b60408051918252519081900360200190f35b6103686004803603606081101561030757600080fd5b8135919081019060408101602082013564010000000081111561032957600080fd5b82018360208201111561033b57600080fd5b8035906020019184602083028401116401000000008311171561035d57600080fd5b919350915035610e48565b60408051602080825283518183015283519192839290830191858101910280838360005b838110156103a457818101518382015260200161038c565b505050509050019250505060405180910390f35b3480156103c457600080fd5b506102df600480360360408110156103db57600080fd5b508035906020013560ff16611085565b6102c86004803603602081101561040157600080fd5b5035611139565b6102df6004803603608081101561041e57600080fd5b5080359060ff602082013516906040810135906060013561123a565b34801561044657600080fd5b506102c8611406565b6102df6004803603606081101561046557600080fd5b81019060208101813564010000000081111561048057600080fd5b82018360208201111561049257600080fd5b803590602001918460208302840111640100000000831117156104b457600080fd5b919350915080359060200135611484565b6102c8600480360360408110156104db57600080fd5b5080359060200135611624565b3480156104f457600080fd5b506104fd61172d565b604080519115158252519081900360200190f35b6102c86004803603608081101561052757600080fd5b6001600160a01b0382358116926020810135909116916040820135919081019060808101606082013564010000000081111561056257600080fd5b82018360208201111561057457600080fd5b8035906020019184600183028401116401000000008311171561059657600080fd5b91908080601f016020809104026020016040519081016040528093929190818152602001838380828437600092019190915250929550611736945050505050565b3480156105e357600080fd5b506105ec611bc8565b604080519788526020880196909652868601949094526060860192909252608085015260a08401526001600160a01b031660c0830152519081900360e00190f35b34801561063957600080fd5b506106576004803603602081101561065057600080fd5b5035611be9565b6040805192835260208301919091528051918290030190f35b34801561067c57600080fd5b506106a36004803603602081101561069357600080fd5b50356001600160a01b0316611c14565b6040805160ff9092168252519081900360200190f35b3480156106c557600080fd5b506102df611ca1565b3480156106da57600080fd5b506102c8611ca7565b3480156106ef57600080fd5b506102df611d7d565b34801561070457600080fd5b506107256004803603602081101561071b57600080fd5b503560ff16611d83565b604080516001600160a01b039092168252519081900360200190f35b34801561074d57600080fd5b506102c8611e0b565b6102df6004803603606081101561076c57600080fd5b81019060208101813564010000000081111561078757600080fd5b82018360208201111561079957600080fd5b803590602001918460208302840111640100000000831117156107bb57600080fd5b919350915080359060200135611e87565b6102c8600480360360208110156107e257600080fd5b5035612027565b3480156107f557600080fd5b5061072561210d565b6102df600480360360a081101561081457600080fd5b5060ff81358116916020810135909116906040810135906060810135906080013561211c565b34801561084657600080fd5b506102df6004803603602081101561085d57600080fd5b503560ff166122fa565b34801561087357600080fd5b506102df6004803603606081101561088a57600080fd5b5060ff813581169160208101359091169060400135612379565b6102c860048036036101008110156108bb57600080fd5b8101906020810181356401000000008111156108d657600080fd5b8201836020820111156108e857600080fd5b8035906020019184602083028401116401000000008311171561090a57600080fd5b919080806020026020016040519081016040528093929190818152602001838360200280828437600092019190915250929594936020810193503591505064010000000081111561095a57600080fd5b82018360208201111561096c57600080fd5b8035906020019184602083028401116401000000008311171561098e57600080fd5b91908080602002602001604051908101604052809392919081815260200183836020028082843760009201919091525092959493602081019350359150506401000000008111156109de57600080fd5b8201836020820111156109f057600080fd5b80359060200191846001830284011164010000000083111715610a1257600080fd5b91908080601f0160208091040260200160405190810160405280939291908181526020018383808284376000920191909152509295949360208101935035915050640100000000811115610a6557600080fd5b820183602082011115610a7757600080fd5b80359060200191846001830284011164010000000083111715610a9957600080fd5b91908080601f01602080910402602001604051908101604052809392919081815260200183838082843760009201919091525092955050823593505050602081013590604081013590606001356001600160a01b0316612436565b348015610b0057600080fd5b506102df6124fa565b348015610b1557600080fd5b506102df612500565b6102c8612506565b348015610b3257600080fd5b506102df6125e5565b348015610b4757600080fd5b506102df612639565b348015610b5c57600080fd5b506102df61268d565b348015610b7157600080fd5b506102df60048036036040811015610b8857600080fd5b810190602081018135640100000000811115610ba357600080fd5b820183602082011115610bb557600080fd5b80359060200191846020830284011164010000000083111715610bd757600080fd5b9193509150351515612693565b348015610bf057600080fd5b506102df612728565b348015610c0557600080fd5b506102df60048036036020811015610c1c57600080fd5b503561272e565b6102c860048036036040811015610c3957600080fd5b50803590602001356127bc565b348015610c5257600080fd5b5061036860048036036020811015610c6957600080fd5b50356128ac565b348015610c7c57600080fd5b506102c860048036036020811015610c9357600080fd5b50356001600160a01b03166129f6565b348015610caf57600080fd5b506102df612b23565b348015610cc457600080fd5b506102df612b29565b610cd5612b2f565b6001600160a01b0316610ce661210d565b6001600160a01b031614610d41576040805162461bcd60e51b815260206004820181905260248201527f4f776e61626c653a2063616c6c6572206973206e6f7420746865206f776e6572604482015290519081900360640190fd5b73__$a4e4384d4f8ec13c7a898ae597a4175ef6$__6324c5c75160c9610d6561210d565b6040518363ffffffff1660e01b815260040180838152602001826001600160a01b031681526020019250505060006040518083038186803b158015610da957600080fd5b505af4158015610dbd573d6000803e3d6000fd5b50505050565b600060c973__$a50a14a4f4d416df093fe8223c9bbe01e7$__63c9b64dcb90916040518263ffffffff1660e01b81526004018082815260200191505060206040518083038186803b158015610e1757600080fd5b505af4158015610e2b573d6000803e3d6000fd5b505050506040513d6020811015610e4157600080fd5b5051905090565b606060026097541415610ea2576040805162461bcd60e51b815260206004820152601f60248201527f5265656e7472616e637947756172643a207265656e7472616e742063616c6c00604482015290519081900360640190fd5b60026097558142811015610efd576040805162461bcd60e51b815260206004820152601060248201527f446561646c696e65206e6f74206d657400000000000000000000000000000000604482015290519081900360640190fd5b60c973__$a4e4384d4f8ec13c7a898ae597a4175ef6$__6373fd6b3e90918888886040518563ffffffff1660e01b815260040180858152602001848152602001806020018281038252848482818152602001925060200280828437600081840152601f19601f8201169050808301925050509550505050505060006040518083038186803b158015610f8e57600080fd5b505af4158015610fa2573d6000803e3d6000fd5b505050506040513d6000823e601f3d9081017fffffffffffffffffffffffffffffffffffffffffffffffffffffffffffffffe01682016040526020811015610fe957600080fd5b810190808051604051939291908464010000000082111561100957600080fd5b90830190602082018581111561101e57600080fd5b825186602082028301116401000000008211171561103b57600080fd5b82525081516020918201928201910280838360005b83811015611068578181015183820152602001611050565b505050509050016040525050509150506001609755949350505050565b604080517fe069274200000000000000000000000000000000000000000000000000000000815260c960048201526024810184905260ff83166044820152905160009173__$a4e4384d4f8ec13c7a898ae597a4175ef6$__9163e069274291606480820192602092909190829003018186803b15801561110457600080fd5b505af4158015611118573d6000803e3d6000fd5b505050506040513d602081101561112e57600080fd5b505190505b92915050565b611141612b2f565b6001600160a01b031661115261210d565b6001600160a01b0316146111ad576040805162461bcd60e51b815260206004820181905260248201527f4f776e61626c653a2063616c6c6572206973206e6f7420746865206f776e6572604482015290519081900360640190fd5b604080517f467e186c00000000000000000000000000000000000000000000000000000000815260c9600482015260248101839052905173__$a4e4384d4f8ec13c7a898ae597a4175ef6$__9163467e186c916044808301926000929190829003018186803b15801561121f57600080fd5b505af4158015611233573d6000803e3d6000fd5b5050505050565b600060026097541415611294576040805162461bcd60e51b815260206004820152601f60248201527f5265656e7472616e637947756172643a207265656e7472616e742063616c6c00604482015290519081900360640190fd5b60026097556112a161172d565b156112f3576040805162461bcd60e51b815260206004820152601060248201527f5061757361626c653a2070617573656400000000000000000000000000000000604482015290519081900360640190fd5b8180421115611349576040805162461bcd60e51b815260206004820152601060248201527f446561646c696e65206e6f74206d657400000000000000000000000000000000604482015290519081900360640190fd5b604080517fe7a4db8100000000000000000000000000000000000000000000000000000000815260c960048201526024810188905260ff8716604482015260648101869052905173__$a4e4384d4f8ec13c7a898ae597a4175ef6$__9163e7a4db81916084808301926020929190829003018186803b1580156113cb57600080fd5b505af41580156113df573d6000803e3d6000fd5b505050506040513d60208110156113f557600080fd5b505160016097559695505050505050565b61140e612b2f565b6001600160a01b031661141f61210d565b6001600160a01b03161461147a576040805162461bcd60e51b815260206004820181905260248201527f4f776e61626c653a2063616c6c6572206973206e6f7420746865206f776e6572604482015290519081900360640190fd5b611482612b33565b565b6000600260975414156114de576040805162461bcd60e51b815260206004820152601f60248201527f5265656e7472616e637947756172643a207265656e7472616e742063616c6c00604482015290519081900360640190fd5b60026097556114eb61172d565b1561153d576040805162461bcd60e51b815260206004820152601060248201527f5061757361626c653a2070617573656400000000000000000000000000000000604482015290519081900360640190fd5b8180421115611593576040805162461bcd60e51b815260206004820152601060248201527f446561646c696e65206e6f74206d657400000000000000000000000000000000604482015290519081900360640190fd5b60c973__$a4e4384d4f8ec13c7a898ae597a4175ef6$__6340370edf90918888886040518563ffffffff1660e01b815260040180858152602001806020018381526020018281038252858582818152602001925060200280828437600081840152601f19601f8201169050808301925050509550505050505060206040518083038186803b1580156113cb57600080fd5b61162c612b2f565b6001600160a01b031661163d61210d565b6001600160a01b031614611698576040805162461bcd60e51b815260206004820181905260248201527f4f776e61626c653a2063616c6c6572206973206e6f7420746865206f776e6572604482015290519081900360640190fd5b604080517f58fdd79b00000000000000000000000000000000000000000000000000000000815260c960048201526024810184905260448101839052905173__$a50a14a4f4d416df093fe8223c9bbe01e7$__916358fdd79b916064808301926000929190829003018186803b15801561171157600080fd5b505af4158015611725573d6000803e3d6000fd5b505050505050565b60655460ff1690565b6002609754141561178e576040805162461bcd60e51b815260206004820152601f60248201527f5265656e7472616e637947756172643a207265656e7472616e742063616c6c00604482015290519081900360640190fd5b6002609755600061179e84611c14565b90506000846001600160a01b03166370a08231306040518263ffffffff1660e01b815260040180826001600160a01b0316815260200191505060206040518083038186803b1580156117ef57600080fd5b505afa158015611803573d6000803e3d6000fd5b505050506040513d602081101561181957600080fd5b505160d28054919250600091611851919060ff861690811061183757fe5b906000526020600020015483612bdc90919063ffffffff16565b90506000851180156118635750848210155b6118b4576040805162461bcd60e51b815260206004820152600e60248201527f696e76616c696420616d6f756e74000000000000000000000000000000000000604482015290519081900360640190fd5b60006118d76127106118d160da5489612c3990919063ffffffff16565b90612c92565b905060006118f66127106118d160db5485612c3990919063ffffffff16565b90506000821161194d576040805162461bcd60e51b815260206004820152601f60248201527f616d6f756e7420697320736d616c6c20666f72206120666c6173684c6f616e00604482015290519081900360640190fd5b6119616001600160a01b0389168a89612cf9565b886001600160a01b031663405b019d308a8a868b6040518663ffffffff1660e01b815260040180866001600160a01b03168152602001856001600160a01b0316815260200184815260200183815260200180602001828103825283818151815260200191508051906020019080838360005b838110156119eb5781810151838201526020016119d3565b50505050905090810190601f168015611a185780820380516001836020036101000a031916815260200191505b509650505050505050600060405180830381600087803b158015611a3b57600080fd5b505af1158015611a4f573d6000803e3d6000fd5b505050506000886001600160a01b03166370a08231306040518263ffffffff1660e01b815260040180826001600160a01b0316815260200191505060206040518083038186803b158015611aa257600080fd5b505afa158015611ab6573d6000803e3d6000fd5b505050506040513d6020811015611acc57600080fd5b50519050611ada8584612d7e565b811015611b2e576040805162461bcd60e51b815260206004820152601860248201527f666c6173684c6f616e20666565206973206e6f74206d65740000000000000000604482015290519081900360640190fd5b611b4282611b3c8387612bdc565b90612bdc565b60d2805460ff8916908110611b5357fe5b600091825260209182902001919091556040805160ff891681529182018a905281810185905260608201849052516001600160a01b038c16917f7c186b2827b23e9024e7b29869cba58a97a4bac6567802a8ea6a8afa7b8c22f0919081900360800190a2505060016097555050505050505050565b60c95460ca5460cb5460cc5460cd5460ce5460cf546001600160a01b031687565b60d58181548110611bf657fe5b60009182526020909120600290910201805460019091015490915082565b6001600160a01b038116600081815260d36020526040812054909160ff90911690611c3e82611d83565b6001600160a01b031614611c99576040805162461bcd60e51b815260206004820152601460248201527f546f6b656e20646f6573206e6f74206578697374000000000000000000000000604482015290519081900360640190fd5b90505b919050565b60d75481565b611caf612b2f565b6001600160a01b0316611cc061210d565b6001600160a01b031614611d1b576040805162461bcd60e51b815260206004820181905260248201527f4f776e61626c653a2063616c6c6572206973206e6f7420746865206f776e6572604482015290519081900360640190fd5b6033546040516000916001600160a01b0316907f8be0079c531659141344cd1fd0a4f28419497f9722a3daafe3b4186f6b6457e0908390a3603380547fffffffffffffffffffffffff0000000000000000000000000000000000000000169055565b60da5481565b60d05460009060ff831610611ddf576040805162461bcd60e51b815260206004820152600c60248201527f4f7574206f662072616e67650000000000000000000000000000000000000000604482015290519081900360640190fd5b60d0805460ff8416908110611df057fe5b6000918252602090912001546001600160a01b031692915050565b611e13612b2f565b6001600160a01b0316611e2461210d565b6001600160a01b031614611e7f576040805162461bcd60e51b815260206004820181905260248201527f4f776e61626c653a2063616c6c6572206973206e6f7420746865206f776e6572604482015290519081900360640190fd5b611482612dd8565b600060026097541415611ee1576040805162461bcd60e51b815260206004820152601f60248201527f5265656e7472616e637947756172643a207265656e7472616e742063616c6c00604482015290519081900360640190fd5b6002609755611eee61172d565b15611f40576040805162461bcd60e51b815260206004820152601060248201527f5061757361626c653a2070617573656400000000000000000000000000000000604482015290519081900360640190fd5b8180421115611f96576040805162461bcd60e51b815260206004820152601060248201527f446561646c696e65206e6f74206d657400000000000000000000000000000000604482015290519081900360640190fd5b60c973__$a4e4384d4f8ec13c7a898ae597a4175ef6$__6341b91c2690918888886040518563ffffffff1660e01b815260040180858152602001806020018381526020018281038252858582818152602001925060200280828437600081840152601f19601f8201169050808301925050509550505050505060206040518083038186803b1580156113cb57600080fd5b61202f612b2f565b6001600160a01b031661204061210d565b6001600160a01b03161461209b576040805162461bcd60e51b815260206004820181905260248201527f4f776e61626c653a2063616c6c6572206973206e6f7420746865206f776e6572604482015290519081900360640190fd5b604080517f7046727600000000000000000000000000000000000000000000000000000000815260c9600482015260248101839052905173__$a4e4384d4f8ec13c7a898ae597a4175ef6$__916370467276916044808301926000929190829003018186803b15801561121f57600080fd5b6033546001600160a01b031690565b600060026097541415612176576040805162461bcd60e51b815260206004820152601f60248201527f5265656e7472616e637947756172643a207265656e7472616e742063616c6c00604482015290519081900360640190fd5b600260975561218361172d565b156121d5576040805162461bcd60e51b815260206004820152601060248201527f5061757361626c653a2070617573656400000000000000000000000000000000604482015290519081900360640190fd5b818042111561222b576040805162461bcd60e51b815260206004820152601060248201527f446561646c696e65206e6f74206d657400000000000000000000000000000000604482015290519081900360640190fd5b61223484612e68565b604080517fa5397b2200000000000000000000000000000000000000000000000000000000815260c9600482015260ff808a166024830152881660448201526064810187905260848101869052905173__$a4e4384d4f8ec13c7a898ae597a4175ef6$__9163a5397b229160a4808301926020929190829003018186803b1580156122be57600080fd5b505af41580156122d2573d6000803e3d6000fd5b505050506040513d60208110156122e857600080fd5b50516001609755979650505050505050565b60d05460009060ff831610612356576040805162461bcd60e51b815260206004820152601260248201527f496e646578206f7574206f662072616e67650000000000000000000000000000604482015290519081900360640190fd5b60d2805460ff841690811061236757fe5b90600052602060002001549050919050565b604080517f4b23603c00000000000000000000000000000000000000000000000000000000815260c9600482015260ff80861660248301528416604482015260648101839052905160009173__$a4e4384d4f8ec13c7a898ae597a4175ef6$__91634b23603c91608480820192602092909190829003018186803b15801561240057600080fd5b505af4158015612414573d6000803e3d6000fd5b505050506040513d602081101561242a57600080fd5b505190505b9392505050565b600054610100900460ff168061244f575061244f6130dc565b8061245d575060005460ff16155b6124985760405162461bcd60e51b815260040180806020018281038252602e8152602001806142d4602e913960400191505060405180910390fd5b600054610100900460ff161580156124c3576000805460ff1961ff0019909116610100171660011790555b6124d389898989898989896130ed565b600860da55600060db5580156124ef576000805461ff00191690555b505050505050505050565b60d45481565b60d95481565b61250e612b2f565b6001600160a01b031661251f61210d565b6001600160a01b03161461257a576040805162461bcd60e51b815260206004820181905260248201527f4f776e61626c653a2063616c6c6572206973206e6f7420746865206f776e6572604482015290519081900360640190fd5b604080517ff14e211e00000000000000000000000000000000000000000000000000000000815260c96004820152905173__$a50a14a4f4d416df093fe8223c9bbe01e7$__9163f14e211e916024808301926000929190829003018186803b158015610da957600080fd5b600060c973__$a50a14a4f4d416df093fe8223c9bbe01e7$__63b0a14cfc90916040518263ffffffff1660e01b81526004018082815260200191505060206040518083038186803b158015610e1757600080fd5b600060c973__$a4e4384d4f8ec13c7a898ae597a4175ef6$__6371906c2c90916040518263ffffffff1660e01b81526004018082815260200191505060206040518083038186803b158015610e1757600080fd5b60d65481565b600060c973__$a4e4384d4f8ec13c7a898ae597a4175ef6$__63834b491090918686866040518563ffffffff1660e01b8152600401808581526020018060200183151581526020018281038252858582818152602001925060200280828437600081840152601f19601f8201169050808301925050509550505050505060206040518083038186803b15801561240057600080fd5b60db5481565b600060c973__$a4e4384d4f8ec13c7a898ae597a4175ef6$__637d0481609091846040518363ffffffff1660e01b8152600401808381526020018281526020019250505060206040518083038186803b15801561278a57600080fd5b505af415801561279e573d6000803e3d6000fd5b505050506040513d60208110156127b457600080fd5b505192915050565b6127c4612b2f565b6001600160a01b03166127d561210d565b6001600160a01b031614612830576040805162461bcd60e51b815260206004820181905260248201527f4f776e61626c653a2063616c6c6572206973206e6f7420746865206f776e6572604482015290519081900360640190fd5b60008211801561284257506127108211155b801561285057506127108111155b6128a1576040805162461bcd60e51b815260206004820152601b60248201527f6665657320617265206e6f7420696e2076616c69642072616e67650000000000604482015290519081900360640190fd5b60da9190915560db55565b606060c973__$a4e4384d4f8ec13c7a898ae597a4175ef6$__6370703e4a9091846040518363ffffffff1660e01b8152600401808381526020018281526020019250505060006040518083038186803b15801561290857600080fd5b505af415801561291c573d6000803e3d6000fd5b505050506040513d6000823e601f3d9081017fffffffffffffffffffffffffffffffffffffffffffffffffffffffffffffffe0168201604052602081101561296357600080fd5b810190808051604051939291908464010000000082111561298357600080fd5b90830190602082018581111561299857600080fd5b82518660208202830111640100000000821117156129b557600080fd5b82525081516020918201928201910280838360005b838110156129e25781810151838201526020016129ca565b505050509050016040525050509050919050565b6129fe612b2f565b6001600160a01b0316612a0f61210d565b6001600160a01b031614612a6a576040805162461bcd60e51b815260206004820181905260248201527f4f776e61626c653a2063616c6c6572206973206e6f7420746865206f776e6572604482015290519081900360640190fd5b6001600160a01b038116612aaf5760405162461bcd60e51b81526004018080602001828103825260268152602001806142886026913960400191505060405180910390fd5b6033546040516001600160a01b038084169216907f8be0079c531659141344cd1fd0a4f28419497f9722a3daafe3b4186f6b6457e090600090a3603380547fffffffffffffffffffffffff0000000000000000000000000000000000000000166001600160a01b0392909216919091179055565b60d85481565b61271081565b3390565b612b3b61172d565b612b8c576040805162461bcd60e51b815260206004820152601460248201527f5061757361626c653a206e6f7420706175736564000000000000000000000000604482015290519081900360640190fd5b6065805460ff191690557f5db9ee0a495bf2e6ff9c91a7834c1ba4fdd244a5e8aa4e537bd38aeae4b073aa612bbf612b2f565b604080516001600160a01b039092168252519081900360200190a1565b600082821115612c33576040805162461bcd60e51b815260206004820152601e60248201527f536166654d6174683a207375627472616374696f6e206f766572666c6f770000604482015290519081900360640190fd5b50900390565b600082612c4857506000611133565b82820282848281612c5557fe5b041461242f5760405162461bcd60e51b81526004018080602001828103825260218152602001806143026021913960400191505060405180910390fd5b6000808211612ce8576040805162461bcd60e51b815260206004820152601a60248201527f536166654d6174683a206469766973696f6e206279207a65726f000000000000604482015290519081900360640190fd5b818381612cf157fe5b049392505050565b604080516001600160a01b038416602482015260448082018490528251808303909101815260649091019091526020810180517bffffffffffffffffffffffffffffffffffffffffffffffffffffffff167fa9059cbb00000000000000000000000000000000000000000000000000000000179052612d7990849061397f565b505050565b60008282018381101561242f576040805162461bcd60e51b815260206004820152601b60248201527f536166654d6174683a206164646974696f6e206f766572666c6f770000000000604482015290519081900360640190fd5b612de061172d565b15612e32576040805162461bcd60e51b815260206004820152601060248201527f5061757361626c653a2070617573656400000000000000000000000000000000604482015290519081900360640190fd5b6065805460ff191660011790557f62e78cea01bee320cd4e420270b5ea74000d11b0c9f74754ebdbfc544b05a258612bbf612b2f565b60d580544291612eac916102589190612e82906001612bdc565b81548110612e8c57fe5b906000526020600020906002020160010154612d7e90919063ffffffff16565b10612f165760d58054612ee7918391612ec6906001612bdc565b81548110612ed057fe5b600091825260209091206002909102015490612d7e565b60d58054612ef6906001612bdc565b81548110612f0057fe5b6000918252602090912060029091020155613003565b612f77612f2e60d95442612bdc90919063ffffffff16565b61025881612f3857fe5b04612f71612f6860d560d65481548110612f4e57fe5b600091825260209091206002909102015460d45490612bdc565b60d45490612d7e565b90612c39565b60d45560d654612f88906001612d7e565b60d65560408051808201909152818152426020820190815260d5805460018101825560009190915291517f51858de9989bf7441865ebdadbf7382c8838edbf830f5d86a9a51ac773676dd6600290930292830155517f51858de9989bf7441865ebdadbf7382c8838edbf830f5d86a9a51ac773676dd7909101555b60d55460d65460009190805b828110156130425760d5818154811061302457fe5b6000918252602090912060029091020154939093019260010161300f565b50600061306c60d75461306660d4546118d18860d854612c3990919063ffffffff16565b90612d7e565b905060c973__$a4e4384d4f8ec13c7a898ae597a4175ef6$__63467e186c9091836040518363ffffffff1660e01b8152600401808381526020018281526020019250505060006040518083038186803b1580156130c857600080fd5b505af41580156124ef573d6000803e3d6000fd5b60006130e730613a30565b15905090565b600054610100900460ff168061310657506131066130dc565b80613114575060005460ff16155b61314f5760405162461bcd60e51b815260040180806020018281038252602e8152602001806142d4602e913960400191505060405180910390fd5b600054610100900460ff1615801561317a576000805460ff1961ff0019909116610100171660011790555b613182613a36565b61318a613af0565b60018951116131e0576040805162461bcd60e51b815260206004820152601960248201527f5f706f6f6c6564546f6b656e732e6c656e677468203c3d203100000000000000604482015290519081900360640190fd5b602089511115613237576040805162461bcd60e51b815260206004820152601960248201527f5f706f6f6c6564546f6b656e732e6c656e677468203e20333200000000000000604482015290519081900360640190fd5b875189511461328d576040805162461bcd60e51b815260206004820152601f60248201527f5f706f6f6c6564546f6b656e7320646563696d616c73206d69736d6174636800604482015290519081900360640190fd5b6060885167ffffffffffffffff811180156132a757600080fd5b506040519080825280602002602001820160405280156132d1578160200160208202803683370190505b50905060005b8a518160ff16101561354f5760ff8116156133c05760d360008c8360ff16815181106132ff57fe5b6020908102919091018101516001600160a01b031682528101919091526040016000205460ff1615801561336f57508a8160ff168151811061333d57fe5b60200260200101516001600160a01b03168b60008151811061335b57fe5b60200260200101516001600160a01b031614155b6133c0576040805162461bcd60e51b815260206004820152601060248201527f4475706c696361746520746f6b656e7300000000000000000000000000000000604482015290519081900360640190fd5b60006001600160a01b03168b8260ff16815181106133da57fe5b60200260200101516001600160a01b0316141561343e576040805162461bcd60e51b815260206004820152601d60248201527f546865203020616464726573732069736e277420616e204552432d3230000000604482015290519081900360640190fd5b601260ff168a8260ff168151811061345257fe5b602002602001015160ff1611156134b0576040805162461bcd60e51b815260206004820152601a60248201527f546f6b656e20646563696d616c732065786365656473206d6178000000000000604482015290519081900360640190fd5b6134e08a8260ff16815181106134c257fe5b602002602001015160ff16601260ff16612bdc90919063ffffffff16565b600a0a828260ff16815181106134f257fe5b6020026020010181815250508060d360008d8460ff168151811061351257fe5b6020908102919091018101516001600160a01b03168252810191909152604001600020805460ff191660ff929092169190911790556001016132d7565b50620f424086106135a7576040805162461bcd60e51b815260206004820152601260248201527f5f612065786365656473206d6178696d756d0000000000000000000000000000604482015290519081900360640190fd5b6305f5e10085106135ff576040805162461bcd60e51b815260206004820152601460248201527f5f6665652065786365656473206d6178696d756d000000000000000000000000604482015290519081900360640190fd5b6402540be4008410613658576040805162461bcd60e51b815260206004820152601960248201527f5f61646d696e4665652065786365656473206d6178696d756d00000000000000604482015290519081900360640190fd5b600061366384613b85565b9050806001600160a01b0316634cd88b768a8a6040518363ffffffff1660e01b8152600401808060200180602001838103835285818151815260200191508051906020019080838360005b838110156136c65781810151838201526020016136ae565b50505050905090810190601f1680156136f35780820380516001836020036101000a031916815260200191505b50838103825284518152845160209182019186019080838360005b8381101561372657818101518382015260200161370e565b50505050905090810190601f1680156137535780820380516001836020036101000a031916815260200191505b50945050505050602060405180830381600087803b15801561377457600080fd5b505af1158015613788573d6000803e3d6000fd5b505050506040513d602081101561379e57600080fd5b50516137f1576040805162461bcd60e51b815260206004820152601c60248201527f636f756c64206e6f7420696e6974206c70546f6b656e20636c6f6e6500000000604482015290519081900360640190fd5b60cf80547fffffffffffffffffffffffff0000000000000000000000000000000000000000166001600160a01b0383161790558a516138379060d09060208e0190614177565b50815161384b9060d19060208501906141f4565b508a5167ffffffffffffffff8111801561386457600080fd5b5060405190808252806020026020018201604052801561388e578160200160208202803683370190505b5080516138a39160d2916020909101906141f4565b506138af876064612c39565b60c9556138bd876064612c39565b60ca5560cd86905560ce85905560005b60068160ff16101561395757604080518082019091526000808252426020830190815260d58054600180820183559190935292517f51858de9989bf7441865ebdadbf7382c8838edbf830f5d86a9a51ac773676dd6600290930292830155517f51858de9989bf7441865ebdadbf7382c8838edbf830f5d86a9a51ac773676dd790910155016138cd565b50505060d78490554260d95580156124ef576000805461ff0019169055505050505050505050565b60606139d4826040518060400160405280602081526020017f5361666545524332303a206c6f772d6c6576656c2063616c6c206661696c6564815250856001600160a01b0316613c409092919063ffffffff16565b805190915015612d79578080602001905160208110156139f357600080fd5b5051612d795760405162461bcd60e51b815260040180806020018281038252602a815260200180614323602a913960400191505060405180910390fd5b3b151590565b600054610100900460ff1680613a4f5750613a4f6130dc565b80613a5d575060005460ff16155b613a985760405162461bcd60e51b815260040180806020018281038252602e8152602001806142d4602e913960400191505060405180910390fd5b600054610100900460ff16158015613ac3576000805460ff1961ff0019909116610100171660011790555b613acb613c57565b613ad3613cf7565b613adb613e08565b8015613aed576000805461ff00191690555b50565b600054610100900460ff1680613b095750613b096130dc565b80613b17575060005460ff16155b613b525760405162461bcd60e51b815260040180806020018281038252602e8152602001806142d4602e913960400191505060405180910390fd5b600054610100900460ff16158015613b7d576000805460ff1961ff0019909116610100171660011790555b613adb613eb3565b60006040517f3d602d80600a3d3981f3363d3d373d3d3d363d7300000000000000000000000081528260601b60148201527f5af43d82803e903d91602b57fd5bf3000000000000000000000000000000000060288201526037816000f09150506001600160a01b038116611c9c576040805162461bcd60e51b815260206004820152601660248201527f455243313136373a20637265617465206661696c656400000000000000000000604482015290519081900360640190fd5b6060613c4f8484600085613f59565b949350505050565b600054610100900460ff1680613c705750613c706130dc565b80613c7e575060005460ff16155b613cb95760405162461bcd60e51b815260040180806020018281038252602e8152602001806142d4602e913960400191505060405180910390fd5b600054610100900460ff16158015613adb576000805460ff1961ff0019909116610100171660011790558015613aed576000805461ff001916905550565b600054610100900460ff1680613d105750613d106130dc565b80613d1e575060005460ff16155b613d595760405162461bcd60e51b815260040180806020018281038252602e8152602001806142d4602e913960400191505060405180910390fd5b600054610100900460ff16158015613d84576000805460ff1961ff0019909116610100171660011790555b6000613d8e612b2f565b603380547fffffffffffffffffffffffff0000000000000000000000000000000000000000166001600160a01b038316908117909155604051919250906000907f8be0079c531659141344cd1fd0a4f28419497f9722a3daafe3b4186f6b6457e0908290a3508015613aed576000805461ff001916905550565b600054610100900460ff1680613e215750613e216130dc565b80613e2f575060005460ff16155b613e6a5760405162461bcd60e51b815260040180806020018281038252602e8152602001806142d4602e913960400191505060405180910390fd5b600054610100900460ff16158015613e95576000805460ff1961ff0019909116610100171660011790555b6065805460ff191690558015613aed576000805461ff001916905550565b600054610100900460ff1680613ecc5750613ecc6130dc565b80613eda575060005460ff16155b613f155760405162461bcd60e51b815260040180806020018281038252602e8152602001806142d4602e913960400191505060405180910390fd5b600054610100900460ff16158015613f40576000805460ff1961ff0019909116610100171660011790555b60016097558015613aed576000805461ff001916905550565b606082471015613f9a5760405162461bcd60e51b81526004018080602001828103825260268152602001806142ae6026913960400191505060405180910390fd5b613fa385613a30565b613ff4576040805162461bcd60e51b815260206004820152601d60248201527f416464726573733a2063616c6c20746f206e6f6e2d636f6e7472616374000000604482015290519081900360640190fd5b60006060866001600160a01b031685876040518082805190602001908083835b6020831061405157805182527fffffffffffffffffffffffffffffffffffffffffffffffffffffffffffffffe09092019160209182019101614014565b6001836020036101000a03801982511681845116808217855250505050505090500191505060006040518083038185875af1925050503d80600081146140b3576040519150601f19603f3d011682016040523d82523d6000602084013e6140b8565b606091505b50915091506140c88282866140d3565b979650505050505050565b606083156140e257508161242f565b8251156140f25782518084602001fd5b8160405162461bcd60e51b81526004018080602001828103825283818151815260200191508051906020019080838360005b8381101561413c578181015183820152602001614124565b50505050905090810190601f1680156141695780820380516001836020036101000a031916815260200191505b509250505060405180910390fd5b8280548282559060005260206000209081019282156141e4579160200282015b828111156141e457825182547fffffffffffffffffffffffff0000000000000000000000000000000000000000166001600160a01b03909116178255602090920191600190910190614197565b506141f092915061423b565b5090565b82805482825590600052602060002090810192821561422f579160200282015b8281111561422f578251825591602001919060010190614214565b506141f0929150614272565b5b808211156141f05780547fffffffffffffffffffffffff000000000000000000000000000000000000000016815560010161423c565b5b808211156141f0576000815560010161427356fe4f776e61626c653a206e6577206f776e657220697320746865207a65726f2061646472657373416464726573733a20696e73756666696369656e742062616c616e636520666f722063616c6c496e697469616c697a61626c653a20636f6e747261637420697320616c726561647920696e697469616c697a6564536166654d6174683a206d756c7469706c69636174696f6e206f766572666c6f775361666545524332303a204552433230206f7065726174696f6e20646964206e6f742073756363656564a2646970667358221220b12da927bea0dbf7e03b5553d5039699852bb505a2a209b3825ed87f0433c5a564736f6c634300060c0033",
  "libraries": {
    "SwapUtils": "0x22b5Ec130b65EF85C83cF9e6bEa5ac8e76bea5db",
    "AmplificationUtils": "0x1b6C79E47FD08c238E324a1f1bcE0E0b77779D79"
  },
  "devdoc": {
    "details": "Most of the logic is stored as a library `SwapUtils` for the sake of reducing contract's deployment size.",
    "kind": "dev",
    "methods": {
      "addLiquidity(uint256[],uint256,uint256)": {
        "params": {
          "amounts": "the amounts of each token to add, in their native precision",
          "deadline": "latest timestamp to accept this transaction",
          "minToMint": "the minimum LP tokens adding this amount of liquidity should mint, otherwise revert. Handy for front-running mitigation"
        },
        "returns": {
          "_0": "amount of LP token user minted and received"
        }
      },
      "calculateRemoveLiquidity(uint256)": {
        "params": {
          "amount": "the amount of LP tokens that would be burned on withdrawal"
        },
        "returns": {
          "_0": "array of token balances that the user will receive"
        }
      },
      "calculateRemoveLiquidityOneToken(uint256,uint8)": {
        "params": {
          "tokenAmount": "the amount of LP token to burn",
          "tokenIndex": "index of which token will be withdrawn"
        },
        "returns": {
          "availableTokenAmount": "calculated amount of underlying token available to withdraw"
        }
      },
      "calculateSwap(uint8,uint8,uint256)": {
        "params": {
          "dx": "the amount of tokens the user wants to sell. If the token charges a fee on transfers, use the amount that gets transferred after the fee.",
          "tokenIndexFrom": "the token the user wants to sell",
          "tokenIndexTo": "the token the user wants to buy"
        },
        "returns": {
          "_0": "amount of tokens the user will receive"
        }
      },
      "calculateTokenAmount(uint256[],bool)": {
        "details": "This shouldn't be used outside frontends for user estimates.",
        "params": {
          "amounts": "an array of token amounts to deposit or withdrawal, corresponding to pooledTokens. The amount should be in each pooled token's native precision. If a token charges a fee on transfers, use the amount that gets transferred after the fee.",
          "deposit": "whether this is a deposit or a withdrawal"
        },
        "returns": {
          "_0": "token amount the user will receive"
        }
      },
      "flashLoan(address,address,uint256,bytes)": {
        "params": {
          "amount": "the total amount to borrow in this transaction",
          "params": "optional data to pass along to the callback function",
          "receiver": "the address of the receiver of the token. This address must implement the IFlashLoanReceiver interface and the callback function `executeOperation`.",
          "token": "the protocol fee in bps to be applied on the total flash loan fee"
        }
      },
      "getA()": {
        "details": "See the StableSwap paper for details",
        "returns": {
          "_0": "A parameter"
        }
      },
      "getAPrecise()": {
        "details": "See the StableSwap paper for details",
        "returns": {
          "_0": "A parameter in its raw precision form"
        }
      },
      "getAdminBalance(uint256)": {
        "params": {
          "index": "Index of the pooled token"
        },
        "returns": {
          "_0": "admin's token balance in the token's precision"
        }
      },
      "getToken(uint8)": {
        "params": {
          "index": "the index of the token"
        },
        "returns": {
          "_0": "address of the token at given index"
        }
      },
      "getTokenBalance(uint8)": {
        "params": {
          "index": "the index of the token"
        },
        "returns": {
          "_0": "current balance of the pooled token at given index with token's native precision"
        }
      },
      "getTokenIndex(address)": {
        "params": {
          "tokenAddress": "address of the token"
        },
        "returns": {
          "_0": "the index of the given token address"
        }
      },
      "getVirtualPrice()": {
        "returns": {
          "_0": "the virtual price, scaled to the POOL_PRECISION_DECIMALS"
        }
      },
      "initialize(address[],uint8[],string,string,uint256,uint256,uint256,address)": {
        "params": {
          "_a": "the amplification coefficient * n * (n - 1). See the StableSwap paper for details",
          "_adminFee": "default adminFee to be initialized with",
          "_fee": "default swap fee to be initialized with",
          "_pooledTokens": "an array of ERC20s this pool will accept",
          "decimals": "the decimals to use for each pooled token, eg 8 for WBTC. Cannot be larger than POOL_PRECISION_DECIMALS",
          "lpTokenName": "the long-form name of the token to be deployed",
          "lpTokenSymbol": "the short symbol for the token to be deployed",
          "lpTokenTargetAddress": "the address of an existing LPToken contract to use as a target"
        }
      },
      "owner()": {
        "details": "Returns the address of the current owner."
      },
      "paused()": {
        "details": "Returns true if the contract is paused, and false otherwise."
      },
      "rampA(uint256,uint256)": {
        "params": {
          "futureA": "the new A to ramp towards",
          "futureTime": "timestamp when the new A should be reached"
        }
      },
      "removeLiquidity(uint256,uint256[],uint256)": {
        "details": "Liquidity can always be removed, even when the pool is paused.",
        "params": {
          "amount": "the amount of LP tokens to burn",
          "deadline": "latest timestamp to accept this transaction",
          "minAmounts": "the minimum amounts of each token in the pool        acceptable for this burn. Useful as a front-running mitigation"
        },
        "returns": {
          "_0": "amounts of tokens user received"
        }
      },
      "removeLiquidityImbalance(uint256[],uint256,uint256)": {
        "params": {
          "amounts": "how much of each token to withdraw",
          "deadline": "latest timestamp to accept this transaction",
          "maxBurnAmount": "the max LP token provider is willing to pay to remove liquidity. Useful as a front-running mitigation."
        },
        "returns": {
          "_0": "amount of LP tokens burned"
        }
      },
      "removeLiquidityOneToken(uint256,uint8,uint256,uint256)": {
        "params": {
          "deadline": "latest timestamp to accept this transaction",
          "minAmount": "the minimum amount to withdraw, otherwise revert",
          "tokenAmount": "the amount of the token you want to receive",
          "tokenIndex": "the index of the token you want to receive"
        },
        "returns": {
          "_0": "amount of chosen token user received"
        }
      },
      "renounceOwnership()": {
        "details": "Leaves the contract without owner. It will not be possible to call `onlyOwner` functions anymore. Can only be called by the current owner. NOTE: Renouncing ownership will leave the contract without an owner, thereby removing any functionality that is only available to the owner."
      },
      "setAdminFee(uint256)": {
        "params": {
          "newAdminFee": "new admin fee to be applied on future transactions"
        }
      },
      "setFlashLoanFees(uint256,uint256)": {
        "params": {
          "newFlashLoanFeeBPS": "the total fee in bps to be applied on future flash loans",
          "newProtocolFeeShareBPS": "the protocol fee in bps to be applied on the total flash loan fee"
        }
      },
      "setSwapFee(uint256)": {
        "params": {
          "newSwapFee": "new swap fee to be applied on future transactions"
        }
      },
      "swap(uint8,uint8,uint256,uint256,uint256)": {
        "params": {
          "deadline": "latest timestamp to accept this transaction",
          "dx": "the amount of tokens the user wants to swap from",
          "minDy": "the min amount the user would like to receive, or revert.",
          "tokenIndexFrom": "the token the user wants to swap from",
          "tokenIndexTo": "the token the user wants to swap to"
        }
      },
      "transferOwnership(address)": {
        "details": "Transfers ownership of the contract to a new account (`newOwner`). Can only be called by the current owner."
      }
    },
    "title": "Swap - A StableSwap implementation in solidity.",
    "version": 1
  },
  "userdoc": {
    "kind": "user",
    "methods": {
      "addLiquidity(uint256[],uint256,uint256)": {
        "notice": "Add liquidity to the pool with the given amounts of tokens"
      },
      "calculateRemoveLiquidity(uint256)": {
        "notice": "A simple method to calculate amount of each underlying tokens that is returned upon burning given amount of LP tokens"
      },
      "calculateRemoveLiquidityOneToken(uint256,uint8)": {
        "notice": "Calculate the amount of underlying token available to withdraw when withdrawing via only single token"
      },
      "calculateSwap(uint8,uint8,uint256)": {
        "notice": "Calculate amount of tokens you receive on swap"
      },
      "calculateTokenAmount(uint256[],bool)": {
        "notice": "A simple method to calculate prices from deposits or withdrawals, excluding fees but including slippage. This is helpful as an input into the various \"min\" parameters on calls to fight front-running"
      },
      "flashLoan(address,address,uint256,bytes)": {
        "notice": "Borrow the specified token from this pool for this transaction only. This function will call `IFlashLoanReceiver(receiver).executeOperation` and the `receiver` must return the full amount of the token and the associated fee by the end of the callback transaction. If the conditions are not met, this call is reverted."
      },
      "getA()": {
        "notice": "Return A, the amplification coefficient * n * (n - 1)"
      },
      "getAPrecise()": {
        "notice": "Return A in its raw precision form"
      },
      "getAdminBalance(uint256)": {
        "notice": "This function reads the accumulated amount of admin fees of the token with given index"
      },
      "getToken(uint8)": {
        "notice": "Return address of the pooled token at given index. Reverts if tokenIndex is out of range."
      },
      "getTokenBalance(uint8)": {
        "notice": "Return current balance of the pooled token at given index"
      },
      "getTokenIndex(address)": {
        "notice": "Return the index of the given token address. Reverts if no matching token is found."
      },
      "getVirtualPrice()": {
        "notice": "Get the virtual price, to help calculate profit"
      },
      "initialize(address[],uint8[],string,string,uint256,uint256,uint256,address)": {
        "notice": "Initializes this Swap contract with the given parameters. This will also clone a LPToken contract that represents users' LP positions. The owner of LPToken will be this contract - which means only this contract is allowed to mint/burn tokens."
      },
      "pause()": {
        "notice": "Pause the contract. Revert if already paused."
      },
      "rampA(uint256,uint256)": {
        "notice": "Start ramping up or down A parameter towards given futureA and futureTime Checks if the change is too rapid, and commits the new A value only when it falls under the limit range."
      },
      "removeLiquidity(uint256,uint256[],uint256)": {
        "notice": "Burn LP tokens to remove liquidity from the pool. Withdraw fee that decays linearly over period of 4 weeks since last deposit will apply."
      },
      "removeLiquidityImbalance(uint256[],uint256,uint256)": {
        "notice": "Remove liquidity from the pool, weighted differently than the pool's current balances. Withdraw fee that decays linearly over period of 4 weeks since last deposit will apply."
      },
      "removeLiquidityOneToken(uint256,uint8,uint256,uint256)": {
        "notice": "Remove liquidity from the pool all in one token. Withdraw fee that decays linearly over period of 4 weeks since last deposit will apply."
      },
      "setAdminFee(uint256)": {
        "notice": "Update the admin fee. Admin fee takes portion of the swap fee."
      },
      "setFlashLoanFees(uint256,uint256)": {
        "notice": "Updates the flash loan fee parameters. This function can only be called by the owner."
      },
      "setSwapFee(uint256)": {
        "notice": "Update the swap fee to be applied on swaps"
      },
      "stopRampA()": {
        "notice": "Stop ramping A immediately. Reverts if ramp A is already stopped."
      },
      "swap(uint8,uint8,uint256,uint256,uint256)": {
        "notice": "Swap two tokens using this pool"
      },
      "unpause()": {
        "notice": "Unpause the contract. Revert if already unpaused."
      },
      "withdrawAdminFees()": {
        "notice": "Withdraw all admin fees to the contract owner"
      }
    },
    "notice": "This contract is responsible for custody of closely pegged assets (eg. group of stablecoins) and automatic market making system. Users become an LP (Liquidity Provider) by depositing their tokens in desired ratios for an exchange of the pool token that represents their share of the pool. Users can burn pool tokens and withdraw their share of token(s). Each time a swap between the pooled tokens happens, a set fee incurs which effectively gets distributed to the LPs. In case of emergencies, admin can pause additional deposits, swaps, or single-asset withdraws - which stops the ratio of the tokens in the pool from changing. Users can always withdraw their tokens via multi-asset withdraws.",
    "version": 1
  },
  "storageLayout": {
    "storage": [
      {
        "astId": 492,
        "contract": "contracts/SwapFlashLoan.sol:SwapFlashLoan",
        "label": "_initialized",
        "offset": 0,
        "slot": "0",
        "type": "t_bool"
      },
      {
        "astId": 495,
        "contract": "contracts/SwapFlashLoan.sol:SwapFlashLoan",
        "label": "_initializing",
        "offset": 1,
        "slot": "0",
        "type": "t_bool"
      },
      {
        "astId": 1531,
        "contract": "contracts/SwapFlashLoan.sol:SwapFlashLoan",
        "label": "__gap",
        "offset": 0,
        "slot": "1",
        "type": "t_array(t_uint256)50_storage"
      },
      {
        "astId": 10,
        "contract": "contracts/SwapFlashLoan.sol:SwapFlashLoan",
        "label": "_owner",
        "offset": 0,
        "slot": "51",
        "type": "t_address"
      },
      {
        "astId": 129,
        "contract": "contracts/SwapFlashLoan.sol:SwapFlashLoan",
        "label": "__gap",
        "offset": 0,
        "slot": "52",
        "type": "t_array(t_uint256)49_storage"
      },
      {
        "astId": 1553,
        "contract": "contracts/SwapFlashLoan.sol:SwapFlashLoan",
        "label": "_paused",
        "offset": 0,
        "slot": "101",
        "type": "t_bool"
      },
      {
        "astId": 1644,
        "contract": "contracts/SwapFlashLoan.sol:SwapFlashLoan",
        "label": "__gap",
        "offset": 0,
        "slot": "102",
        "type": "t_array(t_uint256)49_storage"
      },
      {
        "astId": 1659,
        "contract": "contracts/SwapFlashLoan.sol:SwapFlashLoan",
        "label": "_status",
        "offset": 0,
        "slot": "151",
        "type": "t_uint256"
      },
      {
        "astId": 1702,
        "contract": "contracts/SwapFlashLoan.sol:SwapFlashLoan",
        "label": "__gap",
        "offset": 0,
        "slot": "152",
        "type": "t_array(t_uint256)49_storage"
      },
      {
        "astId": 7779,
        "contract": "contracts/SwapFlashLoan.sol:SwapFlashLoan",
        "label": "swapStorage",
        "offset": 0,
        "slot": "201",
        "type": "t_struct(Swap)9847_storage"
      },
      {
        "astId": 7783,
        "contract": "contracts/SwapFlashLoan.sol:SwapFlashLoan",
        "label": "tokenIndexes",
        "offset": 0,
        "slot": "211",
        "type": "t_mapping(t_address,t_uint8)"
      },
      {
        "astId": 8530,
        "contract": "contracts/SwapFlashLoan.sol:SwapFlashLoan",
        "label": "averageVolume",
        "offset": 0,
        "slot": "212",
        "type": "t_uint256"
      },
      {
        "astId": 8533,
        "contract": "contracts/SwapFlashLoan.sol:SwapFlashLoan",
        "label": "recentVolume",
        "offset": 0,
        "slot": "213",
        "type": "t_array(t_struct(TradeVolume)8527_storage)dyn_storage"
      },
      {
        "astId": 8535,
        "contract": "contracts/SwapFlashLoan.sol:SwapFlashLoan",
        "label": "recentVolumePointer",
        "offset": 0,
        "slot": "214",
        "type": "t_uint256"
      },
      {
        "astId": 8537,
        "contract": "contracts/SwapFlashLoan.sol:SwapFlashLoan",
        "label": "baseFee",
        "offset": 0,
        "slot": "215",
        "type": "t_uint256"
      },
      {
        "astId": 8540,
        "contract": "contracts/SwapFlashLoan.sol:SwapFlashLoan",
        "label": "feeFactor",
        "offset": 0,
        "slot": "216",
        "type": "t_uint256"
      },
      {
        "astId": 8542,
        "contract": "contracts/SwapFlashLoan.sol:SwapFlashLoan",
        "label": "creationTimestamp",
        "offset": 0,
        "slot": "217",
        "type": "t_uint256"
      },
      {
        "astId": 9046,
        "contract": "contracts/SwapFlashLoan.sol:SwapFlashLoan",
        "label": "flashLoanFeeBPS",
        "offset": 0,
        "slot": "218",
        "type": "t_uint256"
      },
      {
        "astId": 9048,
        "contract": "contracts/SwapFlashLoan.sol:SwapFlashLoan",
        "label": "protocolFeeShareBPS",
        "offset": 0,
        "slot": "219",
        "type": "t_uint256"
      }
    ],
    "types": {
      "t_address": {
        "encoding": "inplace",
        "label": "address",
        "numberOfBytes": "20"
      },
      "t_array(t_contract(IERC20)3311)dyn_storage": {
        "base": "t_contract(IERC20)3311",
        "encoding": "dynamic_array",
        "label": "contract IERC20[]",
        "numberOfBytes": "32"
      },
      "t_array(t_struct(TradeVolume)8527_storage)dyn_storage": {
        "base": "t_struct(TradeVolume)8527_storage",
        "encoding": "dynamic_array",
        "label": "struct Swap.TradeVolume[]",
        "numberOfBytes": "32"
      },
      "t_array(t_uint256)49_storage": {
        "base": "t_uint256",
        "encoding": "inplace",
        "label": "uint256[49]",
        "numberOfBytes": "1568"
      },
      "t_array(t_uint256)50_storage": {
        "base": "t_uint256",
        "encoding": "inplace",
        "label": "uint256[50]",
        "numberOfBytes": "1600"
      },
      "t_array(t_uint256)dyn_storage": {
        "base": "t_uint256",
        "encoding": "dynamic_array",
        "label": "uint256[]",
        "numberOfBytes": "32"
      },
      "t_bool": {
        "encoding": "inplace",
        "label": "bool",
        "numberOfBytes": "1"
      },
      "t_contract(IERC20)3311": {
        "encoding": "inplace",
        "label": "contract IERC20",
        "numberOfBytes": "20"
      },
      "t_contract(LPToken)7402": {
        "encoding": "inplace",
        "label": "contract LPToken",
        "numberOfBytes": "20"
      },
      "t_mapping(t_address,t_uint8)": {
        "encoding": "mapping",
        "key": "t_address",
        "label": "mapping(address => uint8)",
        "numberOfBytes": "32",
        "value": "t_uint8"
      },
      "t_struct(Swap)9847_storage": {
        "encoding": "inplace",
        "label": "struct SwapUtils.Swap",
        "members": [
          {
            "astId": 9825,
            "contract": "contracts/SwapFlashLoan.sol:SwapFlashLoan",
            "label": "initialA",
            "offset": 0,
            "slot": "0",
            "type": "t_uint256"
          },
          {
            "astId": 9827,
            "contract": "contracts/SwapFlashLoan.sol:SwapFlashLoan",
            "label": "futureA",
            "offset": 0,
            "slot": "1",
            "type": "t_uint256"
          },
          {
            "astId": 9829,
            "contract": "contracts/SwapFlashLoan.sol:SwapFlashLoan",
            "label": "initialATime",
            "offset": 0,
            "slot": "2",
            "type": "t_uint256"
          },
          {
            "astId": 9831,
            "contract": "contracts/SwapFlashLoan.sol:SwapFlashLoan",
            "label": "futureATime",
            "offset": 0,
            "slot": "3",
            "type": "t_uint256"
          },
          {
            "astId": 9833,
            "contract": "contracts/SwapFlashLoan.sol:SwapFlashLoan",
            "label": "swapFee",
            "offset": 0,
            "slot": "4",
            "type": "t_uint256"
          },
          {
            "astId": 9835,
            "contract": "contracts/SwapFlashLoan.sol:SwapFlashLoan",
            "label": "adminFee",
            "offset": 0,
            "slot": "5",
            "type": "t_uint256"
          },
          {
            "astId": 9837,
            "contract": "contracts/SwapFlashLoan.sol:SwapFlashLoan",
            "label": "lpToken",
            "offset": 0,
            "slot": "6",
            "type": "t_contract(LPToken)7402"
          },
          {
            "astId": 9840,
            "contract": "contracts/SwapFlashLoan.sol:SwapFlashLoan",
            "label": "pooledTokens",
            "offset": 0,
            "slot": "7",
            "type": "t_array(t_contract(IERC20)3311)dyn_storage"
          },
          {
            "astId": 9843,
            "contract": "contracts/SwapFlashLoan.sol:SwapFlashLoan",
            "label": "tokenPrecisionMultipliers",
            "offset": 0,
            "slot": "8",
            "type": "t_array(t_uint256)dyn_storage"
          },
          {
            "astId": 9846,
            "contract": "contracts/SwapFlashLoan.sol:SwapFlashLoan",
            "label": "balances",
            "offset": 0,
            "slot": "9",
            "type": "t_array(t_uint256)dyn_storage"
          }
        ],
        "numberOfBytes": "320"
      },
      "t_struct(TradeVolume)8527_storage": {
        "encoding": "inplace",
        "label": "struct Swap.TradeVolume",
        "members": [
          {
            "astId": 8524,
            "contract": "contracts/SwapFlashLoan.sol:SwapFlashLoan",
            "label": "volume",
            "offset": 0,
            "slot": "0",
            "type": "t_uint256"
          },
          {
            "astId": 8526,
            "contract": "contracts/SwapFlashLoan.sol:SwapFlashLoan",
            "label": "timestamp",
            "offset": 0,
            "slot": "1",
            "type": "t_uint256"
          }
        ],
        "numberOfBytes": "64"
      },
      "t_uint256": {
        "encoding": "inplace",
        "label": "uint256",
        "numberOfBytes": "32"
      },
      "t_uint8": {
        "encoding": "inplace",
        "label": "uint8",
        "numberOfBytes": "1"
      }
    }
  }
}